{
	"contracts/MySecondContract.sol": {
		"MySecondContract": {
			"abi": [
				{
					"inputs": [],
					"name": "good",
					"outputs": [
						{
							"internalType": "bool",
							"name": "",
							"type": "bool"
						}
					],
					"stateMutability": "view",
					"type": "function"
				},
				{
					"inputs": [
						{
							"internalType": "string",
							"name": "_abc",
							"type": "string"
						}
					],
					"name": "hiString",
					"outputs": [],
					"stateMutability": "nonpayable",
					"type": "function"
				},
				{
					"inputs": [],
					"name": "myString",
					"outputs": [
						{
							"internalType": "string",
							"name": "",
							"type": "string"
						}
					],
					"stateMutability": "view",
					"type": "function"
				},
				{
					"inputs": [
						{
							"internalType": "bool",
							"name": "_good",
							"type": "bool"
						}
					],
					"name": "setBool",
					"outputs": [],
					"stateMutability": "nonpayable",
					"type": "function"
				}
			],
			"devdoc": {
				"kind": "dev",
				"methods": {},
				"version": 1
			},
			"evm": {
				"assembly": "    /* \"contracts/MySecondContract.sol\":62:324  contract MySecondContract {... */\n  mstore(0x40, 0x80)\n    /* \"contracts/MySecondContract.sol\":95:133  string public myString = \"Hello World\" */\n  mload(0x40)\n  dup1\n  0x40\n  add\n  0x40\n  mstore\n  dup1\n  0x0b\n  dup2\n  mstore\n  0x20\n  add\n  0x48656c6c6f20576f726c64000000000000000000000000000000000000000000\n  dup2\n  mstore\n  pop\n  0x00\n  swap1\n  dup2\n  tag_1\n  swap2\n  swap1\n  tag_2\n  jump\t// in\ntag_1:\n  pop\n    /* \"contracts/MySecondContract.sol\":62:324  contract MySecondContract {... */\n  callvalue\n  dup1\n  iszero\n  tag_3\n  jumpi\n  0x00\n  dup1\n  revert\ntag_3:\n  pop\n  jump(tag_4)\n    /* \"#utility.yul\":7:106   */\ntag_5:\n    /* \"#utility.yul\":59:65   */\n  0x00\n    /* \"#utility.yul\":93:98   */\n  dup2\n    /* \"#utility.yul\":87:99   */\n  mload\n    /* \"#utility.yul\":77:99   */\n  swap1\n  pop\n    /* \"#utility.yul\":7:106   */\n  swap2\n  swap1\n  pop\n  jump\t// out\n    /* \"#utility.yul\":112:292   */\ntag_6:\n    /* \"#utility.yul\":160:237   */\n  0x4e487b7100000000000000000000000000000000000000000000000000000000\n    /* \"#utility.yul\":157:158   */\n  0x00\n    /* \"#utility.yul\":150:238   */\n  mstore\n    /* \"#utility.yul\":257:261   */\n  0x41\n    /* \"#utility.yul\":254:255   */\n  0x04\n    /* \"#utility.yul\":247:262   */\n  mstore\n    /* \"#utility.yul\":281:285   */\n  0x24\n    /* \"#utility.yul\":278:279   */\n  0x00\n    /* \"#utility.yul\":271:286   */\n  revert\n    /* \"#utility.yul\":298:478   */\ntag_7:\n    /* \"#utility.yul\":346:423   */\n  0x4e487b7100000000000000000000000000000000000000000000000000000000\n    /* \"#utility.yul\":343:344   */\n  0x00\n    /* \"#utility.yul\":336:424   */\n  mstore\n    /* \"#utility.yul\":443:447   */\n  0x22\n    /* \"#utility.yul\":440:441   */\n  0x04\n    /* \"#utility.yul\":433:448   */\n  mstore\n    /* \"#utility.yul\":467:471   */\n  0x24\n    /* \"#utility.yul\":464:465   */\n  0x00\n    /* \"#utility.yul\":457:472   */\n  revert\n    /* \"#utility.yul\":484:804   */\ntag_8:\n    /* \"#utility.yul\":528:534   */\n  0x00\n    /* \"#utility.yul\":565:566   */\n  0x02\n    /* \"#utility.yul\":559:563   */\n  dup3\n    /* \"#utility.yul\":555:567   */\n  div\n    /* \"#utility.yul\":545:567   */\n  swap1\n  pop\n    /* \"#utility.yul\":612:613   */\n  0x01\n    /* \"#utility.yul\":606:610   */\n  dup3\n    /* \"#utility.yul\":602:614   */\n  and\n    /* \"#utility.yul\":633:651   */\n  dup1\n    /* \"#utility.yul\":623:704   */\n  tag_30\n  jumpi\n    /* \"#utility.yul\":689:693   */\n  0x7f\n    /* \"#utility.yul\":681:687   */\n  dup3\n    /* \"#utility.yul\":677:694   */\n  and\n    /* \"#utility.yul\":667:694   */\n  swap2\n  pop\n    /* \"#utility.yul\":623:704   */\ntag_30:\n    /* \"#utility.yul\":751:753   */\n  0x20\n    /* \"#utility.yul\":743:749   */\n  dup3\n    /* \"#utility.yul\":740:754   */\n  lt\n    /* \"#utility.yul\":720:738   */\n  dup2\n    /* \"#utility.yul\":717:755   */\n  sub\n    /* \"#utility.yul\":714:798   */\n  tag_31\n  jumpi\n    /* \"#utility.yul\":770:788   */\n  tag_32\n  tag_7\n  jump\t// in\ntag_32:\n    /* \"#utility.yul\":714:798   */\ntag_31:\n    /* \"#utility.yul\":535:804   */\n  pop\n    /* \"#utility.yul\":484:804   */\n  swap2\n  swap1\n  pop\n  jump\t// out\n    /* \"#utility.yul\":810:951   */\ntag_9:\n    /* \"#utility.yul\":859:863   */\n  0x00\n    /* \"#utility.yul\":882:885   */\n  dup2\n    /* \"#utility.yul\":874:885   */\n  swap1\n  pop\n    /* \"#utility.yul\":905:908   */\n  dup2\n    /* \"#utility.yul\":902:903   */\n  0x00\n    /* \"#utility.yul\":895:909   */\n  mstore\n    /* \"#utility.yul\":939:943   */\n  0x20\n    /* \"#utility.yul\":936:937   */\n  0x00\n    /* \"#utility.yul\":926:944   */\n  keccak256\n    /* \"#utility.yul\":918:944   */\n  swap1\n  pop\n    /* \"#utility.yul\":810:951   */\n  swap2\n  swap1\n  pop\n  jump\t// out\n    /* \"#utility.yul\":957:1050   */\ntag_10:\n    /* \"#utility.yul\":994:1000   */\n  0x00\n    /* \"#utility.yul\":1041:1043   */\n  0x20\n    /* \"#utility.yul\":1036:1038   */\n  0x1f\n    /* \"#utility.yul\":1029:1034   */\n  dup4\n    /* \"#utility.yul\":1025:1039   */\n  add\n    /* \"#utility.yul\":1021:1044   */\n  div\n    /* \"#utility.yul\":1011:1044   */\n  swap1\n  pop\n    /* \"#utility.yul\":957:1050   */\n  swap2\n  swap1\n  pop\n  jump\t// out\n    /* \"#utility.yul\":1056:1163   */\ntag_11:\n    /* \"#utility.yul\":1100:1108   */\n  0x00\n    /* \"#utility.yul\":1150:1155   */\n  dup3\n    /* \"#utility.yul\":1144:1148   */\n  dup3\n    /* \"#utility.yul\":1140:1156   */\n  shl\n    /* \"#utility.yul\":1119:1156   */\n  swap1\n  pop\n    /* \"#utility.yul\":1056:1163   */\n  swap3\n  swap2\n  pop\n  pop\n  jump\t// out\n    /* \"#utility.yul\":1169:1562   */\ntag_12:\n    /* \"#utility.yul\":1238:1244   */\n  0x00\n    /* \"#utility.yul\":1288:1289   */\n  0x08\n    /* \"#utility.yul\":1276:1286   */\n  dup4\n    /* \"#utility.yul\":1272:1290   */\n  mul\n    /* \"#utility.yul\":1311:1408   */\n  tag_37\n    /* \"#utility.yul\":1341:1407   */\n  0xffffffffffffffffffffffffffffffffffffffffffffffffffffffffffffffff\n    /* \"#utility.yul\":1330:1339   */\n  dup3\n    /* \"#utility.yul\":1311:1408   */\n  tag_11\n  jump\t// in\ntag_37:\n    /* \"#utility.yul\":1429:1468   */\n  tag_38\n    /* \"#utility.yul\":1459:1467   */\n  dup7\n    /* \"#utility.yul\":1448:1457   */\n  dup4\n    /* \"#utility.yul\":1429:1468   */\n  tag_11\n  jump\t// in\ntag_38:\n    /* \"#utility.yul\":1417:1468   */\n  swap6\n  pop\n    /* \"#utility.yul\":1501:1505   */\n  dup1\n    /* \"#utility.yul\":1497:1506   */\n  not\n    /* \"#utility.yul\":1490:1495   */\n  dup5\n    /* \"#utility.yul\":1486:1507   */\n  and\n    /* \"#utility.yul\":1477:1507   */\n  swap4\n  pop\n    /* \"#utility.yul\":1550:1554   */\n  dup1\n    /* \"#utility.yul\":1540:1548   */\n  dup7\n    /* \"#utility.yul\":1536:1555   */\n  and\n    /* \"#utility.yul\":1529:1534   */\n  dup5\n    /* \"#utility.yul\":1526:1556   */\n  or\n    /* \"#utility.yul\":1516:1556   */\n  swap3\n  pop\n    /* \"#utility.yul\":1245:1562   */\n  pop\n  pop\n    /* \"#utility.yul\":1169:1562   */\n  swap4\n  swap3\n  pop\n  pop\n  pop\n  jump\t// out\n    /* \"#utility.yul\":1568:1645   */\ntag_13:\n    /* \"#utility.yul\":1605:1612   */\n  0x00\n    /* \"#utility.yul\":1634:1639   */\n  dup2\n    /* \"#utility.yul\":1623:1639   */\n  swap1\n  pop\n    /* \"#utility.yul\":1568:1645   */\n  swap2\n  swap1\n  pop\n  jump\t// out\n    /* \"#utility.yul\":1651:1711   */\ntag_14:\n    /* \"#utility.yul\":1679:1682   */\n  0x00\n    /* \"#utility.yul\":1700:1705   */\n  dup2\n    /* \"#utility.yul\":1693:1705   */\n  swap1\n  pop\n    /* \"#utility.yul\":1651:1711   */\n  swap2\n  swap1\n  pop\n  jump\t// out\n    /* \"#utility.yul\":1717:1859   */\ntag_15:\n    /* \"#utility.yul\":1767:1776   */\n  0x00\n    /* \"#utility.yul\":1800:1853   */\n  tag_42\n    /* \"#utility.yul\":1818:1852   */\n  tag_43\n    /* \"#utility.yul\":1827:1851   */\n  tag_44\n    /* \"#utility.yul\":1845:1850   */\n  dup5\n    /* \"#utility.yul\":1827:1851   */\n  tag_13\n  jump\t// in\ntag_44:\n    /* \"#utility.yul\":1818:1852   */\n  tag_14\n  jump\t// in\ntag_43:\n    /* \"#utility.yul\":1800:1853   */\n  tag_13\n  jump\t// in\ntag_42:\n    /* \"#utility.yul\":1787:1853   */\n  swap1\n  pop\n    /* \"#utility.yul\":1717:1859   */\n  swap2\n  swap1\n  pop\n  jump\t// out\n    /* \"#utility.yul\":1865:1940   */\ntag_16:\n    /* \"#utility.yul\":1908:1911   */\n  0x00\n    /* \"#utility.yul\":1929:1934   */\n  dup2\n    /* \"#utility.yul\":1922:1934   */\n  swap1\n  pop\n    /* \"#utility.yul\":1865:1940   */\n  swap2\n  swap1\n  pop\n  jump\t// out\n    /* \"#utility.yul\":1946:2215   */\ntag_17:\n    /* \"#utility.yul\":2056:2095   */\n  tag_47\n    /* \"#utility.yul\":2087:2094   */\n  dup4\n    /* \"#utility.yul\":2056:2095   */\n  tag_15\n  jump\t// in\ntag_47:\n    /* \"#utility.yul\":2117:2208   */\n  tag_48\n    /* \"#utility.yul\":2166:2207   */\n  tag_49\n    /* \"#utility.yul\":2190:2206   */\n  dup3\n    /* \"#utility.yul\":2166:2207   */\n  tag_16\n  jump\t// in\ntag_49:\n    /* \"#utility.yul\":2158:2164   */\n  dup5\n    /* \"#utility.yul\":2151:2155   */\n  dup5\n    /* \"#utility.yul\":2145:2156   */\n  sload\n    /* \"#utility.yul\":2117:2208   */\n  tag_12\n  jump\t// in\ntag_48:\n    /* \"#utility.yul\":2111:2115   */\n  dup3\n    /* \"#utility.yul\":2104:2209   */\n  sstore\n    /* \"#utility.yul\":2022:2215   */\n  pop\n    /* \"#utility.yul\":1946:2215   */\n  pop\n  pop\n  pop\n  jump\t// out\n    /* \"#utility.yul\":2221:2294   */\ntag_18:\n    /* \"#utility.yul\":2266:2269   */\n  0x00\n    /* \"#utility.yul\":2221:2294   */\n  swap1\n  jump\t// out\n    /* \"#utility.yul\":2300:2489   */\ntag_19:\n    /* \"#utility.yul\":2377:2409   */\n  tag_52\n  tag_18\n  jump\t// in\ntag_52:\n    /* \"#utility.yul\":2418:2483   */\n  tag_53\n    /* \"#utility.yul\":2476:2482   */\n  dup2\n    /* \"#utility.yul\":2468:2474   */\n  dup5\n    /* \"#utility.yul\":2462:2466   */\n  dup5\n    /* \"#utility.yul\":2418:2483   */\n  tag_17\n  jump\t// in\ntag_53:\n    /* \"#utility.yul\":2353:2489   */\n  pop\n    /* \"#utility.yul\":2300:2489   */\n  pop\n  pop\n  jump\t// out\n    /* \"#utility.yul\":2495:2681   */\ntag_20:\n    /* \"#utility.yul\":2555:2675   */\ntag_55:\n    /* \"#utility.yul\":2572:2575   */\n  dup2\n    /* \"#utility.yul\":2565:2570   */\n  dup2\n    /* \"#utility.yul\":2562:2576   */\n  lt\n    /* \"#utility.yul\":2555:2675   */\n  iszero\n  tag_57\n  jumpi\n    /* \"#utility.yul\":2626:2665   */\n  tag_58\n    /* \"#utility.yul\":2663:2664   */\n  0x00\n    /* \"#utility.yul\":2656:2661   */\n  dup3\n    /* \"#utility.yul\":2626:2665   */\n  tag_19\n  jump\t// in\ntag_58:\n    /* \"#utility.yul\":2599:2600   */\n  0x01\n    /* \"#utility.yul\":2592:2597   */\n  dup2\n    /* \"#utility.yul\":2588:2601   */\n  add\n    /* \"#utility.yul\":2579:2601   */\n  swap1\n  pop\n    /* \"#utility.yul\":2555:2675   */\n  jump(tag_55)\ntag_57:\n    /* \"#utility.yul\":2495:2681   */\n  pop\n  pop\n  jump\t// out\n    /* \"#utility.yul\":2687:3230   */\ntag_21:\n    /* \"#utility.yul\":2788:2790   */\n  0x1f\n    /* \"#utility.yul\":2783:2786   */\n  dup3\n    /* \"#utility.yul\":2780:2791   */\n  gt\n    /* \"#utility.yul\":2777:3223   */\n  iszero\n  tag_60\n  jumpi\n    /* \"#utility.yul\":2822:2860   */\n  tag_61\n    /* \"#utility.yul\":2854:2859   */\n  dup2\n    /* \"#utility.yul\":2822:2860   */\n  tag_9\n  jump\t// in\ntag_61:\n    /* \"#utility.yul\":2906:2935   */\n  tag_62\n    /* \"#utility.yul\":2924:2934   */\n  dup5\n    /* \"#utility.yul\":2906:2935   */\n  tag_10\n  jump\t// in\ntag_62:\n    /* \"#utility.yul\":2896:2904   */\n  dup2\n    /* \"#utility.yul\":2892:2936   */\n  add\n    /* \"#utility.yul\":3089:3091   */\n  0x20\n    /* \"#utility.yul\":3077:3087   */\n  dup6\n    /* \"#utility.yul\":3074:3092   */\n  lt\n    /* \"#utility.yul\":3071:3120   */\n  iszero\n  tag_63\n  jumpi\n    /* \"#utility.yul\":3110:3118   */\n  dup2\n    /* \"#utility.yul\":3095:3118   */\n  swap1\n  pop\n    /* \"#utility.yul\":3071:3120   */\ntag_63:\n    /* \"#utility.yul\":3133:3213   */\n  tag_64\n    /* \"#utility.yul\":3189:3211   */\n  tag_65\n    /* \"#utility.yul\":3207:3210   */\n  dup6\n    /* \"#utility.yul\":3189:3211   */\n  tag_10\n  jump\t// in\ntag_65:\n    /* \"#utility.yul\":3179:3187   */\n  dup4\n    /* \"#utility.yul\":3175:3212   */\n  add\n    /* \"#utility.yul\":3162:3173   */\n  dup3\n    /* \"#utility.yul\":3133:3213   */\n  tag_20\n  jump\t// in\ntag_64:\n    /* \"#utility.yul\":2792:3223   */\n  pop\n  pop\n    /* \"#utility.yul\":2777:3223   */\ntag_60:\n    /* \"#utility.yul\":2687:3230   */\n  pop\n  pop\n  pop\n  jump\t// out\n    /* \"#utility.yul\":3236:3353   */\ntag_22:\n    /* \"#utility.yul\":3290:3298   */\n  0x00\n    /* \"#utility.yul\":3340:3345   */\n  dup3\n    /* \"#utility.yul\":3334:3338   */\n  dup3\n    /* \"#utility.yul\":3330:3346   */\n  shr\n    /* \"#utility.yul\":3309:3346   */\n  swap1\n  pop\n    /* \"#utility.yul\":3236:3353   */\n  swap3\n  swap2\n  pop\n  pop\n  jump\t// out\n    /* \"#utility.yul\":3359:3528   */\ntag_23:\n    /* \"#utility.yul\":3403:3409   */\n  0x00\n    /* \"#utility.yul\":3436:3487   */\n  tag_68\n    /* \"#utility.yul\":3484:3485   */\n  0x00\n    /* \"#utility.yul\":3480:3486   */\n  not\n    /* \"#utility.yul\":3472:3477   */\n  dup5\n    /* \"#utility.yul\":3469:3470   */\n  0x08\n    /* \"#utility.yul\":3465:3478   */\n  mul\n    /* \"#utility.yul\":3436:3487   */\n  tag_22\n  jump\t// in\ntag_68:\n    /* \"#utility.yul\":3432:3488   */\n  not\n    /* \"#utility.yul\":3517:3521   */\n  dup1\n    /* \"#utility.yul\":3511:3515   */\n  dup4\n    /* \"#utility.yul\":3507:3522   */\n  and\n    /* \"#utility.yul\":3497:3522   */\n  swap2\n  pop\n    /* \"#utility.yul\":3410:3528   */\n  pop\n    /* \"#utility.yul\":3359:3528   */\n  swap3\n  swap2\n  pop\n  pop\n  jump\t// out\n    /* \"#utility.yul\":3533:3828   */\ntag_24:\n    /* \"#utility.yul\":3609:3613   */\n  0x00\n    /* \"#utility.yul\":3755:3784   */\n  tag_70\n    /* \"#utility.yul\":3780:3783   */\n  dup4\n    /* \"#utility.yul\":3774:3778   */\n  dup4\n    /* \"#utility.yul\":3755:3784   */\n  tag_23\n  jump\t// in\ntag_70:\n    /* \"#utility.yul\":3747:3784   */\n  swap2\n  pop\n    /* \"#utility.yul\":3817:3820   */\n  dup3\n    /* \"#utility.yul\":3814:3815   */\n  0x02\n    /* \"#utility.yul\":3810:3821   */\n  mul\n    /* \"#utility.yul\":3804:3808   */\n  dup3\n    /* \"#utility.yul\":3801:3822   */\n  or\n    /* \"#utility.yul\":3793:3822   */\n  swap1\n  pop\n    /* \"#utility.yul\":3533:3828   */\n  swap3\n  swap2\n  pop\n  pop\n  jump\t// out\n    /* \"#utility.yul\":3833:5228   */\ntag_2:\n    /* \"#utility.yul\":3950:3987   */\n  tag_72\n    /* \"#utility.yul\":3983:3986   */\n  dup3\n    /* \"#utility.yul\":3950:3987   */\n  tag_5\n  jump\t// in\ntag_72:\n    /* \"#utility.yul\":4052:4070   */\n  0xffffffffffffffff\n    /* \"#utility.yul\":4044:4050   */\n  dup2\n    /* \"#utility.yul\":4041:4071   */\n  gt\n    /* \"#utility.yul\":4038:4094   */\n  iszero\n  tag_73\n  jumpi\n    /* \"#utility.yul\":4074:4092   */\n  tag_74\n  tag_6\n  jump\t// in\ntag_74:\n    /* \"#utility.yul\":4038:4094   */\ntag_73:\n    /* \"#utility.yul\":4118:4156   */\n  tag_75\n    /* \"#utility.yul\":4150:4154   */\n  dup3\n    /* \"#utility.yul\":4144:4155   */\n  sload\n    /* \"#utility.yul\":4118:4156   */\n  tag_8\n  jump\t// in\ntag_75:\n    /* \"#utility.yul\":4203:4270   */\n  tag_76\n    /* \"#utility.yul\":4263:4269   */\n  dup3\n    /* \"#utility.yul\":4255:4261   */\n  dup3\n    /* \"#utility.yul\":4249:4253   */\n  dup6\n    /* \"#utility.yul\":4203:4270   */\n  tag_21\n  jump\t// in\ntag_76:\n    /* \"#utility.yul\":4297:4298   */\n  0x00\n    /* \"#utility.yul\":4321:4325   */\n  0x20\n    /* \"#utility.yul\":4308:4325   */\n  swap1\n  pop\n    /* \"#utility.yul\":4353:4355   */\n  0x1f\n    /* \"#utility.yul\":4345:4351   */\n  dup4\n    /* \"#utility.yul\":4342:4356   */\n  gt\n    /* \"#utility.yul\":4370:4371   */\n  0x01\n    /* \"#utility.yul\":4365:4983   */\n  dup2\n  eq\n  tag_78\n  jumpi\n    /* \"#utility.yul\":5027:5028   */\n  0x00\n    /* \"#utility.yul\":5044:5050   */\n  dup5\n    /* \"#utility.yul\":5041:5118   */\n  iszero\n  tag_79\n  jumpi\n    /* \"#utility.yul\":5093:5102   */\n  dup3\n    /* \"#utility.yul\":5088:5091   */\n  dup8\n    /* \"#utility.yul\":5084:5103   */\n  add\n    /* \"#utility.yul\":5078:5104   */\n  mload\n    /* \"#utility.yul\":5069:5104   */\n  swap1\n  pop\n    /* \"#utility.yul\":5041:5118   */\ntag_79:\n    /* \"#utility.yul\":5144:5211   */\n  tag_80\n    /* \"#utility.yul\":5204:5210   */\n  dup6\n    /* \"#utility.yul\":5197:5202   */\n  dup3\n    /* \"#utility.yul\":5144:5211   */\n  tag_24\n  jump\t// in\ntag_80:\n    /* \"#utility.yul\":5138:5142   */\n  dup7\n    /* \"#utility.yul\":5131:5212   */\n  sstore\n    /* \"#utility.yul\":5000:5222   */\n  pop\n    /* \"#utility.yul\":4335:5222   */\n  jump(tag_77)\n    /* \"#utility.yul\":4365:4983   */\ntag_78:\n    /* \"#utility.yul\":4417:4421   */\n  0x1f\n    /* \"#utility.yul\":4413:4422   */\n  not\n    /* \"#utility.yul\":4405:4411   */\n  dup5\n    /* \"#utility.yul\":4401:4423   */\n  and\n    /* \"#utility.yul\":4451:4488   */\n  tag_81\n    /* \"#utility.yul\":4483:4487   */\n  dup7\n    /* \"#utility.yul\":4451:4488   */\n  tag_9\n  jump\t// in\ntag_81:\n    /* \"#utility.yul\":4510:4511   */\n  0x00\n    /* \"#utility.yul\":4524:4732   */\ntag_82:\n    /* \"#utility.yul\":4538:4545   */\n  dup3\n    /* \"#utility.yul\":4535:4536   */\n  dup2\n    /* \"#utility.yul\":4532:4546   */\n  lt\n    /* \"#utility.yul\":4524:4732   */\n  iszero\n  tag_84\n  jumpi\n    /* \"#utility.yul\":4617:4626   */\n  dup5\n    /* \"#utility.yul\":4612:4615   */\n  dup10\n    /* \"#utility.yul\":4608:4627   */\n  add\n    /* \"#utility.yul\":4602:4628   */\n  mload\n    /* \"#utility.yul\":4594:4600   */\n  dup3\n    /* \"#utility.yul\":4587:4629   */\n  sstore\n    /* \"#utility.yul\":4668:4669   */\n  0x01\n    /* \"#utility.yul\":4660:4666   */\n  dup3\n    /* \"#utility.yul\":4656:4670   */\n  add\n    /* \"#utility.yul\":4646:4670   */\n  swap2\n  pop\n    /* \"#utility.yul\":4715:4717   */\n  0x20\n    /* \"#utility.yul\":4704:4713   */\n  dup6\n    /* \"#utility.yul\":4700:4718   */\n  add\n    /* \"#utility.yul\":4687:4718   */\n  swap5\n  pop\n    /* \"#utility.yul\":4561:4565   */\n  0x20\n    /* \"#utility.yul\":4558:4559   */\n  dup2\n    /* \"#utility.yul\":4554:4566   */\n  add\n    /* \"#utility.yul\":4549:4566   */\n  swap1\n  pop\n    /* \"#utility.yul\":4524:4732   */\n  jump(tag_82)\ntag_84:\n    /* \"#utility.yul\":4760:4766   */\n  dup7\n    /* \"#utility.yul\":4751:4758   */\n  dup4\n    /* \"#utility.yul\":4748:4767   */\n  lt\n    /* \"#utility.yul\":4745:4924   */\n  iszero\n  tag_85\n  jumpi\n    /* \"#utility.yul\":4818:4827   */\n  dup5\n    /* \"#utility.yul\":4813:4816   */\n  dup10\n    /* \"#utility.yul\":4809:4828   */\n  add\n    /* \"#utility.yul\":4803:4829   */\n  mload\n    /* \"#utility.yul\":4861:4909   */\n  tag_86\n    /* \"#utility.yul\":4903:4907   */\n  0x1f\n    /* \"#utility.yul\":4895:4901   */\n  dup10\n    /* \"#utility.yul\":4891:4908   */\n  and\n    /* \"#utility.yul\":4880:4889   */\n  dup3\n    /* \"#utility.yul\":4861:4909   */\n  tag_23\n  jump\t// in\ntag_86:\n    /* \"#utility.yul\":4853:4859   */\n  dup4\n    /* \"#utility.yul\":4846:4910   */\n  sstore\n    /* \"#utility.yul\":4768:4924   */\n  pop\n    /* \"#utility.yul\":4745:4924   */\ntag_85:\n    /* \"#utility.yul\":4970:4971   */\n  0x01\n    /* \"#utility.yul\":4966:4967   */\n  0x02\n    /* \"#utility.yul\":4958:4964   */\n  dup9\n    /* \"#utility.yul\":4954:4968   */\n  mul\n    /* \"#utility.yul\":4950:4972   */\n  add\n    /* \"#utility.yul\":4944:4948   */\n  dup9\n    /* \"#utility.yul\":4937:4973   */\n  sstore\n    /* \"#utility.yul\":4372:4983   */\n  pop\n  pop\n  pop\n    /* \"#utility.yul\":4335:5222   */\ntag_77:\n  pop\n    /* \"#utility.yul\":3925:5228   */\n  pop\n  pop\n  pop\n    /* \"#utility.yul\":3833:5228   */\n  pop\n  pop\n  jump\t// out\n    /* \"contracts/MySecondContract.sol\":62:324  contract MySecondContract {... */\ntag_4:\n  dataSize(sub_0)\n  dup1\n  dataOffset(sub_0)\n  0x00\n  codecopy\n  0x00\n  return\nstop\n\nsub_0: assembly {\n        /* \"contracts/MySecondContract.sol\":62:324  contract MySecondContract {... */\n      mstore(0x40, 0x80)\n      callvalue\n      dup1\n      iszero\n      tag_1\n      jumpi\n      0x00\n      dup1\n      revert\n    tag_1:\n      pop\n      jumpi(tag_2, lt(calldatasize, 0x04))\n      shr(0xe0, calldataload(0x00))\n      dup1\n      0x1e26fd33\n      eq\n      tag_3\n      jumpi\n      dup1\n      0x492bfa18\n      eq\n      tag_4\n      jumpi\n      dup1\n      0x95a6c1a2\n      eq\n      tag_5\n      jumpi\n      dup1\n      0xaa8fb40b\n      eq\n      tag_6\n      jumpi\n    tag_2:\n      0x00\n      dup1\n      revert\n        /* \"contracts/MySecondContract.sol\":253:321  function setBool (bool _good) public {... */\n    tag_3:\n      tag_7\n      0x04\n      dup1\n      calldatasize\n      sub\n      dup2\n      add\n      swap1\n      tag_8\n      swap2\n      swap1\n      tag_9\n      jump\t// in\n    tag_8:\n      tag_10\n      jump\t// in\n    tag_7:\n      stop\n        /* \"contracts/MySecondContract.sol\":95:133  string public myString = \"Hello World\" */\n    tag_4:\n      tag_11\n      tag_12\n      jump\t// in\n    tag_11:\n      mload(0x40)\n      tag_13\n      swap2\n      swap1\n      tag_14\n      jump\t// in\n    tag_13:\n      mload(0x40)\n      dup1\n      swap2\n      sub\n      swap1\n      return\n        /* \"contracts/MySecondContract.sol\":165:245  function hiString (string memory _abc) public {... */\n    tag_5:\n      tag_15\n      0x04\n      dup1\n      calldatasize\n      sub\n      dup2\n      add\n      swap1\n      tag_16\n      swap2\n      swap1\n      tag_17\n      jump\t// in\n    tag_16:\n      tag_18\n      jump\t// in\n    tag_15:\n      stop\n        /* \"contracts/MySecondContract.sol\":140:156  bool public good */\n    tag_6:\n      tag_19\n      tag_20\n      jump\t// in\n    tag_19:\n      mload(0x40)\n      tag_21\n      swap2\n      swap1\n      tag_22\n      jump\t// in\n    tag_21:\n      mload(0x40)\n      dup1\n      swap2\n      sub\n      swap1\n      return\n        /* \"contracts/MySecondContract.sol\":253:321  function setBool (bool _good) public {... */\n    tag_10:\n        /* \"contracts/MySecondContract.sol\":308:313  _good */\n      dup1\n        /* \"contracts/MySecondContract.sol\":301:305  good */\n      0x01\n      0x00\n        /* \"contracts/MySecondContract.sol\":301:313  good = _good */\n      0x0100\n      exp\n      dup2\n      sload\n      dup2\n      0xff\n      mul\n      not\n      and\n      swap1\n      dup4\n      iszero\n      iszero\n      mul\n      or\n      swap1\n      sstore\n      pop\n        /* \"contracts/MySecondContract.sol\":253:321  function setBool (bool _good) public {... */\n      pop\n      jump\t// out\n        /* \"contracts/MySecondContract.sol\":95:133  string public myString = \"Hello World\" */\n    tag_12:\n      0x00\n      dup1\n      sload\n      tag_24\n      swap1\n      tag_25\n      jump\t// in\n    tag_24:\n      dup1\n      0x1f\n      add\n      0x20\n      dup1\n      swap2\n      div\n      mul\n      0x20\n      add\n      mload(0x40)\n      swap1\n      dup2\n      add\n      0x40\n      mstore\n      dup1\n      swap3\n      swap2\n      swap1\n      dup2\n      dup2\n      mstore\n      0x20\n      add\n      dup3\n      dup1\n      sload\n      tag_26\n      swap1\n      tag_25\n      jump\t// in\n    tag_26:\n      dup1\n      iszero\n      tag_27\n      jumpi\n      dup1\n      0x1f\n      lt\n      tag_28\n      jumpi\n      0x0100\n      dup1\n      dup4\n      sload\n      div\n      mul\n      dup4\n      mstore\n      swap2\n      0x20\n      add\n      swap2\n      jump(tag_27)\n    tag_28:\n      dup3\n      add\n      swap2\n      swap1\n      0x00\n      mstore\n      keccak256(0x00, 0x20)\n      swap1\n    tag_29:\n      dup2\n      sload\n      dup2\n      mstore\n      swap1\n      0x01\n      add\n      swap1\n      0x20\n      add\n      dup1\n      dup4\n      gt\n      tag_29\n      jumpi\n      dup3\n      swap1\n      sub\n      0x1f\n      and\n      dup3\n      add\n      swap2\n    tag_27:\n      pop\n      pop\n      pop\n      pop\n      pop\n      dup2\n      jump\t// out\n        /* \"contracts/MySecondContract.sol\":165:245  function hiString (string memory _abc) public {... */\n    tag_18:\n        /* \"contracts/MySecondContract.sol\":233:237  _abc */\n      dup1\n        /* \"contracts/MySecondContract.sol\":222:230  myString */\n      0x00\n        /* \"contracts/MySecondContract.sol\":222:237  myString = _abc */\n      swap1\n      dup2\n      tag_31\n      swap2\n      swap1\n      tag_32\n      jump\t// in\n    tag_31:\n      pop\n        /* \"contracts/MySecondContract.sol\":165:245  function hiString (string memory _abc) public {... */\n      pop\n      jump\t// out\n        /* \"contracts/MySecondContract.sol\":140:156  bool public good */\n    tag_20:\n      0x01\n      0x00\n      swap1\n      sload\n      swap1\n      0x0100\n      exp\n      swap1\n      div\n      0xff\n      and\n      dup2\n      jump\t// out\n        /* \"#utility.yul\":7:82   */\n    tag_33:\n        /* \"#utility.yul\":40:46   */\n      0x00\n        /* \"#utility.yul\":73:75   */\n      0x40\n        /* \"#utility.yul\":67:76   */\n      mload\n        /* \"#utility.yul\":57:76   */\n      swap1\n      pop\n        /* \"#utility.yul\":7:82   */\n      swap1\n      jump\t// out\n        /* \"#utility.yul\":88:205   */\n    tag_34:\n        /* \"#utility.yul\":197:198   */\n      0x00\n        /* \"#utility.yul\":194:195   */\n      dup1\n        /* \"#utility.yul\":187:199   */\n      revert\n        /* \"#utility.yul\":211:328   */\n    tag_35:\n        /* \"#utility.yul\":320:321   */\n      0x00\n        /* \"#utility.yul\":317:318   */\n      dup1\n        /* \"#utility.yul\":310:322   */\n      revert\n        /* \"#utility.yul\":334:424   */\n    tag_36:\n        /* \"#utility.yul\":368:375   */\n      0x00\n        /* \"#utility.yul\":411:416   */\n      dup2\n        /* \"#utility.yul\":404:417   */\n      iszero\n        /* \"#utility.yul\":397:418   */\n      iszero\n        /* \"#utility.yul\":386:418   */\n      swap1\n      pop\n        /* \"#utility.yul\":334:424   */\n      swap2\n      swap1\n      pop\n      jump\t// out\n        /* \"#utility.yul\":430:546   */\n    tag_37:\n        /* \"#utility.yul\":500:521   */\n      tag_77\n        /* \"#utility.yul\":515:520   */\n      dup2\n        /* \"#utility.yul\":500:521   */\n      tag_36\n      jump\t// in\n    tag_77:\n        /* \"#utility.yul\":493:498   */\n      dup2\n        /* \"#utility.yul\":490:522   */\n      eq\n        /* \"#utility.yul\":480:540   */\n      tag_78\n      jumpi\n        /* \"#utility.yul\":536:537   */\n      0x00\n        /* \"#utility.yul\":533:534   */\n      dup1\n        /* \"#utility.yul\":526:538   */\n      revert\n        /* \"#utility.yul\":480:540   */\n    tag_78:\n        /* \"#utility.yul\":430:546   */\n      pop\n      jump\t// out\n        /* \"#utility.yul\":552:685   */\n    tag_38:\n        /* \"#utility.yul\":595:600   */\n      0x00\n        /* \"#utility.yul\":633:639   */\n      dup2\n        /* \"#utility.yul\":620:640   */\n      calldataload\n        /* \"#utility.yul\":611:640   */\n      swap1\n      pop\n        /* \"#utility.yul\":649:679   */\n      tag_80\n        /* \"#utility.yul\":673:678   */\n      dup2\n        /* \"#utility.yul\":649:679   */\n      tag_37\n      jump\t// in\n    tag_80:\n        /* \"#utility.yul\":552:685   */\n      swap3\n      swap2\n      pop\n      pop\n      jump\t// out\n        /* \"#utility.yul\":691:1014   */\n    tag_9:\n        /* \"#utility.yul\":747:753   */\n      0x00\n        /* \"#utility.yul\":796:798   */\n      0x20\n        /* \"#utility.yul\":784:793   */\n      dup3\n        /* \"#utility.yul\":775:782   */\n      dup5\n        /* \"#utility.yul\":771:794   */\n      sub\n        /* \"#utility.yul\":767:799   */\n      slt\n        /* \"#utility.yul\":764:883   */\n      iszero\n      tag_82\n      jumpi\n        /* \"#utility.yul\":802:881   */\n      tag_83\n      tag_34\n      jump\t// in\n    tag_83:\n        /* \"#utility.yul\":764:883   */\n    tag_82:\n        /* \"#utility.yul\":922:923   */\n      0x00\n        /* \"#utility.yul\":947:997   */\n      tag_84\n        /* \"#utility.yul\":989:996   */\n      dup5\n        /* \"#utility.yul\":980:986   */\n      dup3\n        /* \"#utility.yul\":969:978   */\n      dup6\n        /* \"#utility.yul\":965:987   */\n      add\n        /* \"#utility.yul\":947:997   */\n      tag_38\n      jump\t// in\n    tag_84:\n        /* \"#utility.yul\":937:997   */\n      swap2\n      pop\n        /* \"#utility.yul\":893:1007   */\n      pop\n        /* \"#utility.yul\":691:1014   */\n      swap3\n      swap2\n      pop\n      pop\n      jump\t// out\n        /* \"#utility.yul\":1020:1119   */\n    tag_39:\n        /* \"#utility.yul\":1072:1078   */\n      0x00\n        /* \"#utility.yul\":1106:1111   */\n      dup2\n        /* \"#utility.yul\":1100:1112   */\n      mload\n        /* \"#utility.yul\":1090:1112   */\n      swap1\n      pop\n        /* \"#utility.yul\":1020:1119   */\n      swap2\n      swap1\n      pop\n      jump\t// out\n        /* \"#utility.yul\":1125:1294   */\n    tag_40:\n        /* \"#utility.yul\":1209:1220   */\n      0x00\n        /* \"#utility.yul\":1243:1249   */\n      dup3\n        /* \"#utility.yul\":1238:1241   */\n      dup3\n        /* \"#utility.yul\":1231:1250   */\n      mstore\n        /* \"#utility.yul\":1283:1287   */\n      0x20\n        /* \"#utility.yul\":1278:1281   */\n      dup3\n        /* \"#utility.yul\":1274:1288   */\n      add\n        /* \"#utility.yul\":1259:1288   */\n      swap1\n      pop\n        /* \"#utility.yul\":1125:1294   */\n      swap3\n      swap2\n      pop\n      pop\n      jump\t// out\n        /* \"#utility.yul\":1300:1439   */\n    tag_41:\n        /* \"#utility.yul\":1389:1395   */\n      dup3\n        /* \"#utility.yul\":1384:1387   */\n      dup2\n        /* \"#utility.yul\":1379:1382   */\n      dup4\n        /* \"#utility.yul\":1373:1396   */\n      mcopy\n        /* \"#utility.yul\":1430:1431   */\n      0x00\n        /* \"#utility.yul\":1421:1427   */\n      dup4\n        /* \"#utility.yul\":1416:1419   */\n      dup4\n        /* \"#utility.yul\":1412:1428   */\n      add\n        /* \"#utility.yul\":1405:1432   */\n      mstore\n        /* \"#utility.yul\":1300:1439   */\n      pop\n      pop\n      pop\n      jump\t// out\n        /* \"#utility.yul\":1445:1547   */\n    tag_42:\n        /* \"#utility.yul\":1486:1492   */\n      0x00\n        /* \"#utility.yul\":1537:1539   */\n      0x1f\n        /* \"#utility.yul\":1533:1540   */\n      not\n        /* \"#utility.yul\":1528:1530   */\n      0x1f\n        /* \"#utility.yul\":1521:1526   */\n      dup4\n        /* \"#utility.yul\":1517:1531   */\n      add\n        /* \"#utility.yul\":1513:1541   */\n      and\n        /* \"#utility.yul\":1503:1541   */\n      swap1\n      pop\n        /* \"#utility.yul\":1445:1547   */\n      swap2\n      swap1\n      pop\n      jump\t// out\n        /* \"#utility.yul\":1553:1930   */\n    tag_43:\n        /* \"#utility.yul\":1641:1644   */\n      0x00\n        /* \"#utility.yul\":1669:1708   */\n      tag_90\n        /* \"#utility.yul\":1702:1707   */\n      dup3\n        /* \"#utility.yul\":1669:1708   */\n      tag_39\n      jump\t// in\n    tag_90:\n        /* \"#utility.yul\":1724:1795   */\n      tag_91\n        /* \"#utility.yul\":1788:1794   */\n      dup2\n        /* \"#utility.yul\":1783:1786   */\n      dup6\n        /* \"#utility.yul\":1724:1795   */\n      tag_40\n      jump\t// in\n    tag_91:\n        /* \"#utility.yul\":1717:1795   */\n      swap4\n      pop\n        /* \"#utility.yul\":1804:1869   */\n      tag_92\n        /* \"#utility.yul\":1862:1868   */\n      dup2\n        /* \"#utility.yul\":1857:1860   */\n      dup6\n        /* \"#utility.yul\":1850:1854   */\n      0x20\n        /* \"#utility.yul\":1843:1848   */\n      dup7\n        /* \"#utility.yul\":1839:1855   */\n      add\n        /* \"#utility.yul\":1804:1869   */\n      tag_41\n      jump\t// in\n    tag_92:\n        /* \"#utility.yul\":1894:1923   */\n      tag_93\n        /* \"#utility.yul\":1916:1922   */\n      dup2\n        /* \"#utility.yul\":1894:1923   */\n      tag_42\n      jump\t// in\n    tag_93:\n        /* \"#utility.yul\":1889:1892   */\n      dup5\n        /* \"#utility.yul\":1885:1924   */\n      add\n        /* \"#utility.yul\":1878:1924   */\n      swap2\n      pop\n        /* \"#utility.yul\":1645:1930   */\n      pop\n        /* \"#utility.yul\":1553:1930   */\n      swap3\n      swap2\n      pop\n      pop\n      jump\t// out\n        /* \"#utility.yul\":1936:2249   */\n    tag_14:\n        /* \"#utility.yul\":2049:2053   */\n      0x00\n        /* \"#utility.yul\":2087:2089   */\n      0x20\n        /* \"#utility.yul\":2076:2085   */\n      dup3\n        /* \"#utility.yul\":2072:2090   */\n      add\n        /* \"#utility.yul\":2064:2090   */\n      swap1\n      pop\n        /* \"#utility.yul\":2136:2145   */\n      dup2\n        /* \"#utility.yul\":2130:2134   */\n      dup2\n        /* \"#utility.yul\":2126:2146   */\n      sub\n        /* \"#utility.yul\":2122:2123   */\n      0x00\n        /* \"#utility.yul\":2111:2120   */\n      dup4\n        /* \"#utility.yul\":2107:2124   */\n      add\n        /* \"#utility.yul\":2100:2147   */\n      mstore\n        /* \"#utility.yul\":2164:2242   */\n      tag_95\n        /* \"#utility.yul\":2237:2241   */\n      dup2\n        /* \"#utility.yul\":2228:2234   */\n      dup5\n        /* \"#utility.yul\":2164:2242   */\n      tag_43\n      jump\t// in\n    tag_95:\n        /* \"#utility.yul\":2156:2242   */\n      swap1\n      pop\n        /* \"#utility.yul\":1936:2249   */\n      swap3\n      swap2\n      pop\n      pop\n      jump\t// out\n        /* \"#utility.yul\":2255:2372   */\n    tag_44:\n        /* \"#utility.yul\":2364:2365   */\n      0x00\n        /* \"#utility.yul\":2361:2362   */\n      dup1\n        /* \"#utility.yul\":2354:2366   */\n      revert\n        /* \"#utility.yul\":2378:2495   */\n    tag_45:\n        /* \"#utility.yul\":2487:2488   */\n      0x00\n        /* \"#utility.yul\":2484:2485   */\n      dup1\n        /* \"#utility.yul\":2477:2489   */\n      revert\n        /* \"#utility.yul\":2501:2681   */\n    tag_46:\n        /* \"#utility.yul\":2549:2626   */\n      0x4e487b7100000000000000000000000000000000000000000000000000000000\n        /* \"#utility.yul\":2546:2547   */\n      0x00\n        /* \"#utility.yul\":2539:2627   */\n      mstore\n        /* \"#utility.yul\":2646:2650   */\n      0x41\n        /* \"#utility.yul\":2643:2644   */\n      0x04\n        /* \"#utility.yul\":2636:2651   */\n      mstore\n        /* \"#utility.yul\":2670:2674   */\n      0x24\n        /* \"#utility.yul\":2667:2668   */\n      0x00\n        /* \"#utility.yul\":2660:2675   */\n      revert\n        /* \"#utility.yul\":2687:2968   */\n    tag_47:\n        /* \"#utility.yul\":2770:2797   */\n      tag_100\n        /* \"#utility.yul\":2792:2796   */\n      dup3\n        /* \"#utility.yul\":2770:2797   */\n      tag_42\n      jump\t// in\n    tag_100:\n        /* \"#utility.yul\":2762:2768   */\n      dup2\n        /* \"#utility.yul\":2758:2798   */\n      add\n        /* \"#utility.yul\":2900:2906   */\n      dup2\n        /* \"#utility.yul\":2888:2898   */\n      dup2\n        /* \"#utility.yul\":2885:2907   */\n      lt\n        /* \"#utility.yul\":2864:2882   */\n      0xffffffffffffffff\n        /* \"#utility.yul\":2852:2862   */\n      dup3\n        /* \"#utility.yul\":2849:2883   */\n      gt\n        /* \"#utility.yul\":2846:2908   */\n      or\n        /* \"#utility.yul\":2843:2931   */\n      iszero\n      tag_101\n      jumpi\n        /* \"#utility.yul\":2911:2929   */\n      tag_102\n      tag_46\n      jump\t// in\n    tag_102:\n        /* \"#utility.yul\":2843:2931   */\n    tag_101:\n        /* \"#utility.yul\":2951:2961   */\n      dup1\n        /* \"#utility.yul\":2947:2949   */\n      0x40\n        /* \"#utility.yul\":2940:2962   */\n      mstore\n        /* \"#utility.yul\":2730:2968   */\n      pop\n        /* \"#utility.yul\":2687:2968   */\n      pop\n      pop\n      jump\t// out\n        /* \"#utility.yul\":2974:3103   */\n    tag_48:\n        /* \"#utility.yul\":3008:3014   */\n      0x00\n        /* \"#utility.yul\":3035:3055   */\n      tag_104\n      tag_33\n      jump\t// in\n    tag_104:\n        /* \"#utility.yul\":3025:3055   */\n      swap1\n      pop\n        /* \"#utility.yul\":3064:3097   */\n      tag_105\n        /* \"#utility.yul\":3092:3096   */\n      dup3\n        /* \"#utility.yul\":3084:3090   */\n      dup3\n        /* \"#utility.yul\":3064:3097   */\n      tag_47\n      jump\t// in\n    tag_105:\n        /* \"#utility.yul\":2974:3103   */\n      swap2\n      swap1\n      pop\n      jump\t// out\n        /* \"#utility.yul\":3109:3417   */\n    tag_49:\n        /* \"#utility.yul\":3171:3175   */\n      0x00\n        /* \"#utility.yul\":3261:3279   */\n      0xffffffffffffffff\n        /* \"#utility.yul\":3253:3259   */\n      dup3\n        /* \"#utility.yul\":3250:3280   */\n      gt\n        /* \"#utility.yul\":3247:3303   */\n      iszero\n      tag_107\n      jumpi\n        /* \"#utility.yul\":3283:3301   */\n      tag_108\n      tag_46\n      jump\t// in\n    tag_108:\n        /* \"#utility.yul\":3247:3303   */\n    tag_107:\n        /* \"#utility.yul\":3321:3350   */\n      tag_109\n        /* \"#utility.yul\":3343:3349   */\n      dup3\n        /* \"#utility.yul\":3321:3350   */\n      tag_42\n      jump\t// in\n    tag_109:\n        /* \"#utility.yul\":3313:3350   */\n      swap1\n      pop\n        /* \"#utility.yul\":3405:3409   */\n      0x20\n        /* \"#utility.yul\":3399:3403   */\n      dup2\n        /* \"#utility.yul\":3395:3410   */\n      add\n        /* \"#utility.yul\":3387:3410   */\n      swap1\n      pop\n        /* \"#utility.yul\":3109:3417   */\n      swap2\n      swap1\n      pop\n      jump\t// out\n        /* \"#utility.yul\":3423:3571   */\n    tag_50:\n        /* \"#utility.yul\":3521:3527   */\n      dup3\n        /* \"#utility.yul\":3516:3519   */\n      dup2\n        /* \"#utility.yul\":3511:3514   */\n      dup4\n        /* \"#utility.yul\":3498:3528   */\n      calldatacopy\n        /* \"#utility.yul\":3562:3563   */\n      0x00\n        /* \"#utility.yul\":3553:3559   */\n      dup4\n        /* \"#utility.yul\":3548:3551   */\n      dup4\n        /* \"#utility.yul\":3544:3560   */\n      add\n        /* \"#utility.yul\":3537:3564   */\n      mstore\n        /* \"#utility.yul\":3423:3571   */\n      pop\n      pop\n      pop\n      jump\t// out\n        /* \"#utility.yul\":3577:4002   */\n    tag_51:\n        /* \"#utility.yul\":3655:3660   */\n      0x00\n        /* \"#utility.yul\":3680:3746   */\n      tag_112\n        /* \"#utility.yul\":3696:3745   */\n      tag_113\n        /* \"#utility.yul\":3738:3744   */\n      dup5\n        /* \"#utility.yul\":3696:3745   */\n      tag_49\n      jump\t// in\n    tag_113:\n        /* \"#utility.yul\":3680:3746   */\n      tag_48\n      jump\t// in\n    tag_112:\n        /* \"#utility.yul\":3671:3746   */\n      swap1\n      pop\n        /* \"#utility.yul\":3769:3775   */\n      dup3\n        /* \"#utility.yul\":3762:3767   */\n      dup2\n        /* \"#utility.yul\":3755:3776   */\n      mstore\n        /* \"#utility.yul\":3807:3811   */\n      0x20\n        /* \"#utility.yul\":3800:3805   */\n      dup2\n        /* \"#utility.yul\":3796:3812   */\n      add\n        /* \"#utility.yul\":3845:3848   */\n      dup5\n        /* \"#utility.yul\":3836:3842   */\n      dup5\n        /* \"#utility.yul\":3831:3834   */\n      dup5\n        /* \"#utility.yul\":3827:3843   */\n      add\n        /* \"#utility.yul\":3824:3849   */\n      gt\n        /* \"#utility.yul\":3821:3933   */\n      iszero\n      tag_114\n      jumpi\n        /* \"#utility.yul\":3852:3931   */\n      tag_115\n      tag_45\n      jump\t// in\n    tag_115:\n        /* \"#utility.yul\":3821:3933   */\n    tag_114:\n        /* \"#utility.yul\":3942:3996   */\n      tag_116\n        /* \"#utility.yul\":3989:3995   */\n      dup5\n        /* \"#utility.yul\":3984:3987   */\n      dup3\n        /* \"#utility.yul\":3979:3982   */\n      dup6\n        /* \"#utility.yul\":3942:3996   */\n      tag_50\n      jump\t// in\n    tag_116:\n        /* \"#utility.yul\":3661:4002   */\n      pop\n        /* \"#utility.yul\":3577:4002   */\n      swap4\n      swap3\n      pop\n      pop\n      pop\n      jump\t// out\n        /* \"#utility.yul\":4022:4362   */\n    tag_52:\n        /* \"#utility.yul\":4078:4083   */\n      0x00\n        /* \"#utility.yul\":4127:4130   */\n      dup3\n        /* \"#utility.yul\":4120:4124   */\n      0x1f\n        /* \"#utility.yul\":4112:4118   */\n      dup4\n        /* \"#utility.yul\":4108:4125   */\n      add\n        /* \"#utility.yul\":4104:4131   */\n      slt\n        /* \"#utility.yul\":4094:4216   */\n      tag_118\n      jumpi\n        /* \"#utility.yul\":4135:4214   */\n      tag_119\n      tag_44\n      jump\t// in\n    tag_119:\n        /* \"#utility.yul\":4094:4216   */\n    tag_118:\n        /* \"#utility.yul\":4252:4258   */\n      dup2\n        /* \"#utility.yul\":4239:4259   */\n      calldataload\n        /* \"#utility.yul\":4277:4356   */\n      tag_120\n        /* \"#utility.yul\":4352:4355   */\n      dup5\n        /* \"#utility.yul\":4344:4350   */\n      dup3\n        /* \"#utility.yul\":4337:4341   */\n      0x20\n        /* \"#utility.yul\":4329:4335   */\n      dup7\n        /* \"#utility.yul\":4325:4342   */\n      add\n        /* \"#utility.yul\":4277:4356   */\n      tag_51\n      jump\t// in\n    tag_120:\n        /* \"#utility.yul\":4268:4356   */\n      swap2\n      pop\n        /* \"#utility.yul\":4084:4362   */\n      pop\n        /* \"#utility.yul\":4022:4362   */\n      swap3\n      swap2\n      pop\n      pop\n      jump\t// out\n        /* \"#utility.yul\":4368:4877   */\n    tag_17:\n        /* \"#utility.yul\":4437:4443   */\n      0x00\n        /* \"#utility.yul\":4486:4488   */\n      0x20\n        /* \"#utility.yul\":4474:4483   */\n      dup3\n        /* \"#utility.yul\":4465:4472   */\n      dup5\n        /* \"#utility.yul\":4461:4484   */\n      sub\n        /* \"#utility.yul\":4457:4489   */\n      slt\n        /* \"#utility.yul\":4454:4573   */\n      iszero\n      tag_122\n      jumpi\n        /* \"#utility.yul\":4492:4571   */\n      tag_123\n      tag_34\n      jump\t// in\n    tag_123:\n        /* \"#utility.yul\":4454:4573   */\n    tag_122:\n        /* \"#utility.yul\":4640:4641   */\n      0x00\n        /* \"#utility.yul\":4629:4638   */\n      dup3\n        /* \"#utility.yul\":4625:4642   */\n      add\n        /* \"#utility.yul\":4612:4643   */\n      calldataload\n        /* \"#utility.yul\":4670:4688   */\n      0xffffffffffffffff\n        /* \"#utility.yul\":4662:4668   */\n      dup2\n        /* \"#utility.yul\":4659:4689   */\n      gt\n        /* \"#utility.yul\":4656:4773   */\n      iszero\n      tag_124\n      jumpi\n        /* \"#utility.yul\":4692:4771   */\n      tag_125\n      tag_35\n      jump\t// in\n    tag_125:\n        /* \"#utility.yul\":4656:4773   */\n    tag_124:\n        /* \"#utility.yul\":4797:4860   */\n      tag_126\n        /* \"#utility.yul\":4852:4859   */\n      dup5\n        /* \"#utility.yul\":4843:4849   */\n      dup3\n        /* \"#utility.yul\":4832:4841   */\n      dup6\n        /* \"#utility.yul\":4828:4850   */\n      add\n        /* \"#utility.yul\":4797:4860   */\n      tag_52\n      jump\t// in\n    tag_126:\n        /* \"#utility.yul\":4787:4860   */\n      swap2\n      pop\n        /* \"#utility.yul\":4583:4870   */\n      pop\n        /* \"#utility.yul\":4368:4877   */\n      swap3\n      swap2\n      pop\n      pop\n      jump\t// out\n        /* \"#utility.yul\":4883:4992   */\n    tag_53:\n        /* \"#utility.yul\":4964:4985   */\n      tag_128\n        /* \"#utility.yul\":4979:4984   */\n      dup2\n        /* \"#utility.yul\":4964:4985   */\n      tag_36\n      jump\t// in\n    tag_128:\n        /* \"#utility.yul\":4959:4962   */\n      dup3\n        /* \"#utility.yul\":4952:4986   */\n      mstore\n        /* \"#utility.yul\":4883:4992   */\n      pop\n      pop\n      jump\t// out\n        /* \"#utility.yul\":4998:5208   */\n    tag_22:\n        /* \"#utility.yul\":5085:5089   */\n      0x00\n        /* \"#utility.yul\":5123:5125   */\n      0x20\n        /* \"#utility.yul\":5112:5121   */\n      dup3\n        /* \"#utility.yul\":5108:5126   */\n      add\n        /* \"#utility.yul\":5100:5126   */\n      swap1\n      pop\n        /* \"#utility.yul\":5136:5201   */\n      tag_130\n        /* \"#utility.yul\":5198:5199   */\n      0x00\n        /* \"#utility.yul\":5187:5196   */\n      dup4\n        /* \"#utility.yul\":5183:5200   */\n      add\n        /* \"#utility.yul\":5174:5180   */\n      dup5\n        /* \"#utility.yul\":5136:5201   */\n      tag_53\n      jump\t// in\n    tag_130:\n        /* \"#utility.yul\":4998:5208   */\n      swap3\n      swap2\n      pop\n      pop\n      jump\t// out\n        /* \"#utility.yul\":5214:5394   */\n    tag_54:\n        /* \"#utility.yul\":5262:5339   */\n      0x4e487b7100000000000000000000000000000000000000000000000000000000\n        /* \"#utility.yul\":5259:5260   */\n      0x00\n        /* \"#utility.yul\":5252:5340   */\n      mstore\n        /* \"#utility.yul\":5359:5363   */\n      0x22\n        /* \"#utility.yul\":5356:5357   */\n      0x04\n        /* \"#utility.yul\":5349:5364   */\n      mstore\n        /* \"#utility.yul\":5383:5387   */\n      0x24\n        /* \"#utility.yul\":5380:5381   */\n      0x00\n        /* \"#utility.yul\":5373:5388   */\n      revert\n        /* \"#utility.yul\":5400:5720   */\n    tag_25:\n        /* \"#utility.yul\":5444:5450   */\n      0x00\n        /* \"#utility.yul\":5481:5482   */\n      0x02\n        /* \"#utility.yul\":5475:5479   */\n      dup3\n        /* \"#utility.yul\":5471:5483   */\n      div\n        /* \"#utility.yul\":5461:5483   */\n      swap1\n      pop\n        /* \"#utility.yul\":5528:5529   */\n      0x01\n        /* \"#utility.yul\":5522:5526   */\n      dup3\n        /* \"#utility.yul\":5518:5530   */\n      and\n        /* \"#utility.yul\":5549:5567   */\n      dup1\n        /* \"#utility.yul\":5539:5620   */\n      tag_133\n      jumpi\n        /* \"#utility.yul\":5605:5609   */\n      0x7f\n        /* \"#utility.yul\":5597:5603   */\n      dup3\n        /* \"#utility.yul\":5593:5610   */\n      and\n        /* \"#utility.yul\":5583:5610   */\n      swap2\n      pop\n        /* \"#utility.yul\":5539:5620   */\n    tag_133:\n        /* \"#utility.yul\":5667:5669   */\n      0x20\n        /* \"#utility.yul\":5659:5665   */\n      dup3\n        /* \"#utility.yul\":5656:5670   */\n      lt\n        /* \"#utility.yul\":5636:5654   */\n      dup2\n        /* \"#utility.yul\":5633:5671   */\n      sub\n        /* \"#utility.yul\":5630:5714   */\n      tag_134\n      jumpi\n        /* \"#utility.yul\":5686:5704   */\n      tag_135\n      tag_54\n      jump\t// in\n    tag_135:\n        /* \"#utility.yul\":5630:5714   */\n    tag_134:\n        /* \"#utility.yul\":5451:5720   */\n      pop\n        /* \"#utility.yul\":5400:5720   */\n      swap2\n      swap1\n      pop\n      jump\t// out\n        /* \"#utility.yul\":5726:5867   */\n    tag_55:\n        /* \"#utility.yul\":5775:5779   */\n      0x00\n        /* \"#utility.yul\":5798:5801   */\n      dup2\n        /* \"#utility.yul\":5790:5801   */\n      swap1\n      pop\n        /* \"#utility.yul\":5821:5824   */\n      dup2\n        /* \"#utility.yul\":5818:5819   */\n      0x00\n        /* \"#utility.yul\":5811:5825   */\n      mstore\n        /* \"#utility.yul\":5855:5859   */\n      0x20\n        /* \"#utility.yul\":5852:5853   */\n      0x00\n        /* \"#utility.yul\":5842:5860   */\n      keccak256\n        /* \"#utility.yul\":5834:5860   */\n      swap1\n      pop\n        /* \"#utility.yul\":5726:5867   */\n      swap2\n      swap1\n      pop\n      jump\t// out\n        /* \"#utility.yul\":5873:5966   */\n    tag_56:\n        /* \"#utility.yul\":5910:5916   */\n      0x00\n        /* \"#utility.yul\":5957:5959   */\n      0x20\n        /* \"#utility.yul\":5952:5954   */\n      0x1f\n        /* \"#utility.yul\":5945:5950   */\n      dup4\n        /* \"#utility.yul\":5941:5955   */\n      add\n        /* \"#utility.yul\":5937:5960   */\n      div\n        /* \"#utility.yul\":5927:5960   */\n      swap1\n      pop\n        /* \"#utility.yul\":5873:5966   */\n      swap2\n      swap1\n      pop\n      jump\t// out\n        /* \"#utility.yul\":5972:6079   */\n    tag_57:\n        /* \"#utility.yul\":6016:6024   */\n      0x00\n        /* \"#utility.yul\":6066:6071   */\n      dup3\n        /* \"#utility.yul\":6060:6064   */\n      dup3\n        /* \"#utility.yul\":6056:6072   */\n      shl\n        /* \"#utility.yul\":6035:6072   */\n      swap1\n      pop\n        /* \"#utility.yul\":5972:6079   */\n      swap3\n      swap2\n      pop\n      pop\n      jump\t// out\n        /* \"#utility.yul\":6085:6478   */\n    tag_58:\n        /* \"#utility.yul\":6154:6160   */\n      0x00\n        /* \"#utility.yul\":6204:6205   */\n      0x08\n        /* \"#utility.yul\":6192:6202   */\n      dup4\n        /* \"#utility.yul\":6188:6206   */\n      mul\n        /* \"#utility.yul\":6227:6324   */\n      tag_140\n        /* \"#utility.yul\":6257:6323   */\n      0xffffffffffffffffffffffffffffffffffffffffffffffffffffffffffffffff\n        /* \"#utility.yul\":6246:6255   */\n      dup3\n        /* \"#utility.yul\":6227:6324   */\n      tag_57\n      jump\t// in\n    tag_140:\n        /* \"#utility.yul\":6345:6384   */\n      tag_141\n        /* \"#utility.yul\":6375:6383   */\n      dup7\n        /* \"#utility.yul\":6364:6373   */\n      dup4\n        /* \"#utility.yul\":6345:6384   */\n      tag_57\n      jump\t// in\n    tag_141:\n        /* \"#utility.yul\":6333:6384   */\n      swap6\n      pop\n        /* \"#utility.yul\":6417:6421   */\n      dup1\n        /* \"#utility.yul\":6413:6422   */\n      not\n        /* \"#utility.yul\":6406:6411   */\n      dup5\n        /* \"#utility.yul\":6402:6423   */\n      and\n        /* \"#utility.yul\":6393:6423   */\n      swap4\n      pop\n        /* \"#utility.yul\":6466:6470   */\n      dup1\n        /* \"#utility.yul\":6456:6464   */\n      dup7\n        /* \"#utility.yul\":6452:6471   */\n      and\n        /* \"#utility.yul\":6445:6450   */\n      dup5\n        /* \"#utility.yul\":6442:6472   */\n      or\n        /* \"#utility.yul\":6432:6472   */\n      swap3\n      pop\n        /* \"#utility.yul\":6161:6478   */\n      pop\n      pop\n        /* \"#utility.yul\":6085:6478   */\n      swap4\n      swap3\n      pop\n      pop\n      pop\n      jump\t// out\n        /* \"#utility.yul\":6484:6561   */\n    tag_59:\n        /* \"#utility.yul\":6521:6528   */\n      0x00\n        /* \"#utility.yul\":6550:6555   */\n      dup2\n        /* \"#utility.yul\":6539:6555   */\n      swap1\n      pop\n        /* \"#utility.yul\":6484:6561   */\n      swap2\n      swap1\n      pop\n      jump\t// out\n        /* \"#utility.yul\":6567:6627   */\n    tag_60:\n        /* \"#utility.yul\":6595:6598   */\n      0x00\n        /* \"#utility.yul\":6616:6621   */\n      dup2\n        /* \"#utility.yul\":6609:6621   */\n      swap1\n      pop\n        /* \"#utility.yul\":6567:6627   */\n      swap2\n      swap1\n      pop\n      jump\t// out\n        /* \"#utility.yul\":6633:6775   */\n    tag_61:\n        /* \"#utility.yul\":6683:6692   */\n      0x00\n        /* \"#utility.yul\":6716:6769   */\n      tag_145\n        /* \"#utility.yul\":6734:6768   */\n      tag_146\n        /* \"#utility.yul\":6743:6767   */\n      tag_147\n        /* \"#utility.yul\":6761:6766   */\n      dup5\n        /* \"#utility.yul\":6743:6767   */\n      tag_59\n      jump\t// in\n    tag_147:\n        /* \"#utility.yul\":6734:6768   */\n      tag_60\n      jump\t// in\n    tag_146:\n        /* \"#utility.yul\":6716:6769   */\n      tag_59\n      jump\t// in\n    tag_145:\n        /* \"#utility.yul\":6703:6769   */\n      swap1\n      pop\n        /* \"#utility.yul\":6633:6775   */\n      swap2\n      swap1\n      pop\n      jump\t// out\n        /* \"#utility.yul\":6781:6856   */\n    tag_62:\n        /* \"#utility.yul\":6824:6827   */\n      0x00\n        /* \"#utility.yul\":6845:6850   */\n      dup2\n        /* \"#utility.yul\":6838:6850   */\n      swap1\n      pop\n        /* \"#utility.yul\":6781:6856   */\n      swap2\n      swap1\n      pop\n      jump\t// out\n        /* \"#utility.yul\":6862:7131   */\n    tag_63:\n        /* \"#utility.yul\":6972:7011   */\n      tag_150\n        /* \"#utility.yul\":7003:7010   */\n      dup4\n        /* \"#utility.yul\":6972:7011   */\n      tag_61\n      jump\t// in\n    tag_150:\n        /* \"#utility.yul\":7033:7124   */\n      tag_151\n        /* \"#utility.yul\":7082:7123   */\n      tag_152\n        /* \"#utility.yul\":7106:7122   */\n      dup3\n        /* \"#utility.yul\":7082:7123   */\n      tag_62\n      jump\t// in\n    tag_152:\n        /* \"#utility.yul\":7074:7080   */\n      dup5\n        /* \"#utility.yul\":7067:7071   */\n      dup5\n        /* \"#utility.yul\":7061:7072   */\n      sload\n        /* \"#utility.yul\":7033:7124   */\n      tag_58\n      jump\t// in\n    tag_151:\n        /* \"#utility.yul\":7027:7031   */\n      dup3\n        /* \"#utility.yul\":7020:7125   */\n      sstore\n        /* \"#utility.yul\":6938:7131   */\n      pop\n        /* \"#utility.yul\":6862:7131   */\n      pop\n      pop\n      pop\n      jump\t// out\n        /* \"#utility.yul\":7137:7210   */\n    tag_64:\n        /* \"#utility.yul\":7182:7185   */\n      0x00\n        /* \"#utility.yul\":7137:7210   */\n      swap1\n      jump\t// out\n        /* \"#utility.yul\":7216:7405   */\n    tag_65:\n        /* \"#utility.yul\":7293:7325   */\n      tag_155\n      tag_64\n      jump\t// in\n    tag_155:\n        /* \"#utility.yul\":7334:7399   */\n      tag_156\n        /* \"#utility.yul\":7392:7398   */\n      dup2\n        /* \"#utility.yul\":7384:7390   */\n      dup5\n        /* \"#utility.yul\":7378:7382   */\n      dup5\n        /* \"#utility.yul\":7334:7399   */\n      tag_63\n      jump\t// in\n    tag_156:\n        /* \"#utility.yul\":7269:7405   */\n      pop\n        /* \"#utility.yul\":7216:7405   */\n      pop\n      pop\n      jump\t// out\n        /* \"#utility.yul\":7411:7597   */\n    tag_66:\n        /* \"#utility.yul\":7471:7591   */\n    tag_158:\n        /* \"#utility.yul\":7488:7491   */\n      dup2\n        /* \"#utility.yul\":7481:7486   */\n      dup2\n        /* \"#utility.yul\":7478:7492   */\n      lt\n        /* \"#utility.yul\":7471:7591   */\n      iszero\n      tag_160\n      jumpi\n        /* \"#utility.yul\":7542:7581   */\n      tag_161\n        /* \"#utility.yul\":7579:7580   */\n      0x00\n        /* \"#utility.yul\":7572:7577   */\n      dup3\n        /* \"#utility.yul\":7542:7581   */\n      tag_65\n      jump\t// in\n    tag_161:\n        /* \"#utility.yul\":7515:7516   */\n      0x01\n        /* \"#utility.yul\":7508:7513   */\n      dup2\n        /* \"#utility.yul\":7504:7517   */\n      add\n        /* \"#utility.yul\":7495:7517   */\n      swap1\n      pop\n        /* \"#utility.yul\":7471:7591   */\n      jump(tag_158)\n    tag_160:\n        /* \"#utility.yul\":7411:7597   */\n      pop\n      pop\n      jump\t// out\n        /* \"#utility.yul\":7603:8146   */\n    tag_67:\n        /* \"#utility.yul\":7704:7706   */\n      0x1f\n        /* \"#utility.yul\":7699:7702   */\n      dup3\n        /* \"#utility.yul\":7696:7707   */\n      gt\n        /* \"#utility.yul\":7693:8139   */\n      iszero\n      tag_163\n      jumpi\n        /* \"#utility.yul\":7738:7776   */\n      tag_164\n        /* \"#utility.yul\":7770:7775   */\n      dup2\n        /* \"#utility.yul\":7738:7776   */\n      tag_55\n      jump\t// in\n    tag_164:\n        /* \"#utility.yul\":7822:7851   */\n      tag_165\n        /* \"#utility.yul\":7840:7850   */\n      dup5\n        /* \"#utility.yul\":7822:7851   */\n      tag_56\n      jump\t// in\n    tag_165:\n        /* \"#utility.yul\":7812:7820   */\n      dup2\n        /* \"#utility.yul\":7808:7852   */\n      add\n        /* \"#utility.yul\":8005:8007   */\n      0x20\n        /* \"#utility.yul\":7993:8003   */\n      dup6\n        /* \"#utility.yul\":7990:8008   */\n      lt\n        /* \"#utility.yul\":7987:8036   */\n      iszero\n      tag_166\n      jumpi\n        /* \"#utility.yul\":8026:8034   */\n      dup2\n        /* \"#utility.yul\":8011:8034   */\n      swap1\n      pop\n        /* \"#utility.yul\":7987:8036   */\n    tag_166:\n        /* \"#utility.yul\":8049:8129   */\n      tag_167\n        /* \"#utility.yul\":8105:8127   */\n      tag_168\n        /* \"#utility.yul\":8123:8126   */\n      dup6\n        /* \"#utility.yul\":8105:8127   */\n      tag_56\n      jump\t// in\n    tag_168:\n        /* \"#utility.yul\":8095:8103   */\n      dup4\n        /* \"#utility.yul\":8091:8128   */\n      add\n        /* \"#utility.yul\":8078:8089   */\n      dup3\n        /* \"#utility.yul\":8049:8129   */\n      tag_66\n      jump\t// in\n    tag_167:\n        /* \"#utility.yul\":7708:8139   */\n      pop\n      pop\n        /* \"#utility.yul\":7693:8139   */\n    tag_163:\n        /* \"#utility.yul\":7603:8146   */\n      pop\n      pop\n      pop\n      jump\t// out\n        /* \"#utility.yul\":8152:8269   */\n    tag_68:\n        /* \"#utility.yul\":8206:8214   */\n      0x00\n        /* \"#utility.yul\":8256:8261   */\n      dup3\n        /* \"#utility.yul\":8250:8254   */\n      dup3\n        /* \"#utility.yul\":8246:8262   */\n      shr\n        /* \"#utility.yul\":8225:8262   */\n      swap1\n      pop\n        /* \"#utility.yul\":8152:8269   */\n      swap3\n      swap2\n      pop\n      pop\n      jump\t// out\n        /* \"#utility.yul\":8275:8444   */\n    tag_69:\n        /* \"#utility.yul\":8319:8325   */\n      0x00\n        /* \"#utility.yul\":8352:8403   */\n      tag_171\n        /* \"#utility.yul\":8400:8401   */\n      0x00\n        /* \"#utility.yul\":8396:8402   */\n      not\n        /* \"#utility.yul\":8388:8393   */\n      dup5\n        /* \"#utility.yul\":8385:8386   */\n      0x08\n        /* \"#utility.yul\":8381:8394   */\n      mul\n        /* \"#utility.yul\":8352:8403   */\n      tag_68\n      jump\t// in\n    tag_171:\n        /* \"#utility.yul\":8348:8404   */\n      not\n        /* \"#utility.yul\":8433:8437   */\n      dup1\n        /* \"#utility.yul\":8427:8431   */\n      dup4\n        /* \"#utility.yul\":8423:8438   */\n      and\n        /* \"#utility.yul\":8413:8438   */\n      swap2\n      pop\n        /* \"#utility.yul\":8326:8444   */\n      pop\n        /* \"#utility.yul\":8275:8444   */\n      swap3\n      swap2\n      pop\n      pop\n      jump\t// out\n        /* \"#utility.yul\":8449:8744   */\n    tag_70:\n        /* \"#utility.yul\":8525:8529   */\n      0x00\n        /* \"#utility.yul\":8671:8700   */\n      tag_173\n        /* \"#utility.yul\":8696:8699   */\n      dup4\n        /* \"#utility.yul\":8690:8694   */\n      dup4\n        /* \"#utility.yul\":8671:8700   */\n      tag_69\n      jump\t// in\n    tag_173:\n        /* \"#utility.yul\":8663:8700   */\n      swap2\n      pop\n        /* \"#utility.yul\":8733:8736   */\n      dup3\n        /* \"#utility.yul\":8730:8731   */\n      0x02\n        /* \"#utility.yul\":8726:8737   */\n      mul\n        /* \"#utility.yul\":8720:8724   */\n      dup3\n        /* \"#utility.yul\":8717:8738   */\n      or\n        /* \"#utility.yul\":8709:8738   */\n      swap1\n      pop\n        /* \"#utility.yul\":8449:8744   */\n      swap3\n      swap2\n      pop\n      pop\n      jump\t// out\n        /* \"#utility.yul\":8749:10144   */\n    tag_32:\n        /* \"#utility.yul\":8866:8903   */\n      tag_175\n        /* \"#utility.yul\":8899:8902   */\n      dup3\n        /* \"#utility.yul\":8866:8903   */\n      tag_39\n      jump\t// in\n    tag_175:\n        /* \"#utility.yul\":8968:8986   */\n      0xffffffffffffffff\n        /* \"#utility.yul\":8960:8966   */\n      dup2\n        /* \"#utility.yul\":8957:8987   */\n      gt\n        /* \"#utility.yul\":8954:9010   */\n      iszero\n      tag_176\n      jumpi\n        /* \"#utility.yul\":8990:9008   */\n      tag_177\n      tag_46\n      jump\t// in\n    tag_177:\n        /* \"#utility.yul\":8954:9010   */\n    tag_176:\n        /* \"#utility.yul\":9034:9072   */\n      tag_178\n        /* \"#utility.yul\":9066:9070   */\n      dup3\n        /* \"#utility.yul\":9060:9071   */\n      sload\n        /* \"#utility.yul\":9034:9072   */\n      tag_25\n      jump\t// in\n    tag_178:\n        /* \"#utility.yul\":9119:9186   */\n      tag_179\n        /* \"#utility.yul\":9179:9185   */\n      dup3\n        /* \"#utility.yul\":9171:9177   */\n      dup3\n        /* \"#utility.yul\":9165:9169   */\n      dup6\n        /* \"#utility.yul\":9119:9186   */\n      tag_67\n      jump\t// in\n    tag_179:\n        /* \"#utility.yul\":9213:9214   */\n      0x00\n        /* \"#utility.yul\":9237:9241   */\n      0x20\n        /* \"#utility.yul\":9224:9241   */\n      swap1\n      pop\n        /* \"#utility.yul\":9269:9271   */\n      0x1f\n        /* \"#utility.yul\":9261:9267   */\n      dup4\n        /* \"#utility.yul\":9258:9272   */\n      gt\n        /* \"#utility.yul\":9286:9287   */\n      0x01\n        /* \"#utility.yul\":9281:9899   */\n      dup2\n      eq\n      tag_181\n      jumpi\n        /* \"#utility.yul\":9943:9944   */\n      0x00\n        /* \"#utility.yul\":9960:9966   */\n      dup5\n        /* \"#utility.yul\":9957:10034   */\n      iszero\n      tag_182\n      jumpi\n        /* \"#utility.yul\":10009:10018   */\n      dup3\n        /* \"#utility.yul\":10004:10007   */\n      dup8\n        /* \"#utility.yul\":10000:10019   */\n      add\n        /* \"#utility.yul\":9994:10020   */\n      mload\n        /* \"#utility.yul\":9985:10020   */\n      swap1\n      pop\n        /* \"#utility.yul\":9957:10034   */\n    tag_182:\n        /* \"#utility.yul\":10060:10127   */\n      tag_183\n        /* \"#utility.yul\":10120:10126   */\n      dup6\n        /* \"#utility.yul\":10113:10118   */\n      dup3\n        /* \"#utility.yul\":10060:10127   */\n      tag_70\n      jump\t// in\n    tag_183:\n        /* \"#utility.yul\":10054:10058   */\n      dup7\n        /* \"#utility.yul\":10047:10128   */\n      sstore\n        /* \"#utility.yul\":9916:10138   */\n      pop\n        /* \"#utility.yul\":9251:10138   */\n      jump(tag_180)\n        /* \"#utility.yul\":9281:9899   */\n    tag_181:\n        /* \"#utility.yul\":9333:9337   */\n      0x1f\n        /* \"#utility.yul\":9329:9338   */\n      not\n        /* \"#utility.yul\":9321:9327   */\n      dup5\n        /* \"#utility.yul\":9317:9339   */\n      and\n        /* \"#utility.yul\":9367:9404   */\n      tag_184\n        /* \"#utility.yul\":9399:9403   */\n      dup7\n        /* \"#utility.yul\":9367:9404   */\n      tag_55\n      jump\t// in\n    tag_184:\n        /* \"#utility.yul\":9426:9427   */\n      0x00\n        /* \"#utility.yul\":9440:9648   */\n    tag_185:\n        /* \"#utility.yul\":9454:9461   */\n      dup3\n        /* \"#utility.yul\":9451:9452   */\n      dup2\n        /* \"#utility.yul\":9448:9462   */\n      lt\n        /* \"#utility.yul\":9440:9648   */\n      iszero\n      tag_187\n      jumpi\n        /* \"#utility.yul\":9533:9542   */\n      dup5\n        /* \"#utility.yul\":9528:9531   */\n      dup10\n        /* \"#utility.yul\":9524:9543   */\n      add\n        /* \"#utility.yul\":9518:9544   */\n      mload\n        /* \"#utility.yul\":9510:9516   */\n      dup3\n        /* \"#utility.yul\":9503:9545   */\n      sstore\n        /* \"#utility.yul\":9584:9585   */\n      0x01\n        /* \"#utility.yul\":9576:9582   */\n      dup3\n        /* \"#utility.yul\":9572:9586   */\n      add\n        /* \"#utility.yul\":9562:9586   */\n      swap2\n      pop\n        /* \"#utility.yul\":9631:9633   */\n      0x20\n        /* \"#utility.yul\":9620:9629   */\n      dup6\n        /* \"#utility.yul\":9616:9634   */\n      add\n        /* \"#utility.yul\":9603:9634   */\n      swap5\n      pop\n        /* \"#utility.yul\":9477:9481   */\n      0x20\n        /* \"#utility.yul\":9474:9475   */\n      dup2\n        /* \"#utility.yul\":9470:9482   */\n      add\n        /* \"#utility.yul\":9465:9482   */\n      swap1\n      pop\n        /* \"#utility.yul\":9440:9648   */\n      jump(tag_185)\n    tag_187:\n        /* \"#utility.yul\":9676:9682   */\n      dup7\n        /* \"#utility.yul\":9667:9674   */\n      dup4\n        /* \"#utility.yul\":9664:9683   */\n      lt\n        /* \"#utility.yul\":9661:9840   */\n      iszero\n      tag_188\n      jumpi\n        /* \"#utility.yul\":9734:9743   */\n      dup5\n        /* \"#utility.yul\":9729:9732   */\n      dup10\n        /* \"#utility.yul\":9725:9744   */\n      add\n        /* \"#utility.yul\":9719:9745   */\n      mload\n        /* \"#utility.yul\":9777:9825   */\n      tag_189\n        /* \"#utility.yul\":9819:9823   */\n      0x1f\n        /* \"#utility.yul\":9811:9817   */\n      dup10\n        /* \"#utility.yul\":9807:9824   */\n      and\n        /* \"#utility.yul\":9796:9805   */\n      dup3\n        /* \"#utility.yul\":9777:9825   */\n      tag_69\n      jump\t// in\n    tag_189:\n        /* \"#utility.yul\":9769:9775   */\n      dup4\n        /* \"#utility.yul\":9762:9826   */\n      sstore\n        /* \"#utility.yul\":9684:9840   */\n      pop\n        /* \"#utility.yul\":9661:9840   */\n    tag_188:\n        /* \"#utility.yul\":9886:9887   */\n      0x01\n        /* \"#utility.yul\":9882:9883   */\n      0x02\n        /* \"#utility.yul\":9874:9880   */\n      dup9\n        /* \"#utility.yul\":9870:9884   */\n      mul\n        /* \"#utility.yul\":9866:9888   */\n      add\n        /* \"#utility.yul\":9860:9864   */\n      dup9\n        /* \"#utility.yul\":9853:9889   */\n      sstore\n        /* \"#utility.yul\":9288:9899   */\n      pop\n      pop\n      pop\n        /* \"#utility.yul\":9251:10138   */\n    tag_180:\n      pop\n        /* \"#utility.yul\":8841:10144   */\n      pop\n      pop\n      pop\n        /* \"#utility.yul\":8749:10144   */\n      pop\n      pop\n      jump\t// out\n\n    auxdata: 0xa26469706673582212207b8b0c85f8a80f1d9cd1ffe495d40db161e13f121a04b509c1a2ced63b46a4d764736f6c634300081a0033\n}\n",
				"bytecode": {
					"linkReferences": {},
					"object": "60806040526040518060400160405280600b81526020017f48656c6c6f20576f726c640000000000000000000000000000000000000000008152505f90816100479190610293565b50348015610053575f80fd5b50610362565b5f81519050919050565b7f4e487b71000000000000000000000000000000000000000000000000000000005f52604160045260245ffd5b7f4e487b71000000000000000000000000000000000000000000000000000000005f52602260045260245ffd5b5f60028204905060018216806100d457607f821691505b6020821081036100e7576100e6610090565b5b50919050565b5f819050815f5260205f209050919050565b5f6020601f8301049050919050565b5f82821b905092915050565b5f600883026101497fffffffffffffffffffffffffffffffffffffffffffffffffffffffffffffffff8261010e565b610153868361010e565b95508019841693508086168417925050509392505050565b5f819050919050565b5f819050919050565b5f61019761019261018d8461016b565b610174565b61016b565b9050919050565b5f819050919050565b6101b08361017d565b6101c46101bc8261019e565b84845461011a565b825550505050565b5f90565b6101d86101cc565b6101e38184846101a7565b505050565b5b81811015610206576101fb5f826101d0565b6001810190506101e9565b5050565b601f82111561024b5761021c816100ed565b610225846100ff565b81016020851015610234578190505b610248610240856100ff565b8301826101e8565b50505b505050565b5f82821c905092915050565b5f61026b5f1984600802610250565b1980831691505092915050565b5f610283838361025c565b9150826002028217905092915050565b61029c82610059565b67ffffffffffffffff8111156102b5576102b4610063565b5b6102bf82546100bd565b6102ca82828561020a565b5f60209050601f8311600181146102fb575f84156102e9578287015190505b6102f38582610278565b86555061035a565b601f198416610309866100ed565b5f5b828110156103305784890151825560018201915060208501945060208101905061030b565b8683101561034d5784890151610349601f89168261025c565b8355505b6001600288020188555050505b505050505050565b6107318061036f5f395ff3fe608060405234801561000f575f80fd5b506004361061004a575f3560e01c80631e26fd331461004e578063492bfa181461006a57806395a6c1a214610088578063aa8fb40b146100a4575b5f80fd5b610068600480360381019061006391906101d3565b6100c2565b005b6100726100de565b60405161007f919061026e565b60405180910390f35b6100a2600480360381019061009d91906103ba565b610169565b005b6100ac61017b565b6040516100b99190610410565b60405180910390f35b8060015f6101000a81548160ff02191690831515021790555050565b5f80546100ea90610456565b80601f016020809104026020016040519081016040528092919081815260200182805461011690610456565b80156101615780601f1061013857610100808354040283529160200191610161565b820191905f5260205f20905b81548152906001019060200180831161014457829003601f168201915b505050505081565b805f9081610177919061062c565b5050565b60015f9054906101000a900460ff1681565b5f604051905090565b5f80fd5b5f80fd5b5f8115159050919050565b6101b28161019e565b81146101bc575f80fd5b50565b5f813590506101cd816101a9565b92915050565b5f602082840312156101e8576101e7610196565b5b5f6101f5848285016101bf565b91505092915050565b5f81519050919050565b5f82825260208201905092915050565b8281835e5f83830152505050565b5f601f19601f8301169050919050565b5f610240826101fe565b61024a8185610208565b935061025a818560208601610218565b61026381610226565b840191505092915050565b5f6020820190508181035f8301526102868184610236565b905092915050565b5f80fd5b5f80fd5b7f4e487b71000000000000000000000000000000000000000000000000000000005f52604160045260245ffd5b6102cc82610226565b810181811067ffffffffffffffff821117156102eb576102ea610296565b5b80604052505050565b5f6102fd61018d565b905061030982826102c3565b919050565b5f67ffffffffffffffff82111561032857610327610296565b5b61033182610226565b9050602081019050919050565b828183375f83830152505050565b5f61035e6103598461030e565b6102f4565b90508281526020810184848401111561037a57610379610292565b5b61038584828561033e565b509392505050565b5f82601f8301126103a1576103a061028e565b5b81356103b184826020860161034c565b91505092915050565b5f602082840312156103cf576103ce610196565b5b5f82013567ffffffffffffffff8111156103ec576103eb61019a565b5b6103f88482850161038d565b91505092915050565b61040a8161019e565b82525050565b5f6020820190506104235f830184610401565b92915050565b7f4e487b71000000000000000000000000000000000000000000000000000000005f52602260045260245ffd5b5f600282049050600182168061046d57607f821691505b6020821081036104805761047f610429565b5b50919050565b5f819050815f5260205f209050919050565b5f6020601f8301049050919050565b5f82821b905092915050565b5f600883026104e27fffffffffffffffffffffffffffffffffffffffffffffffffffffffffffffffff826104a7565b6104ec86836104a7565b95508019841693508086168417925050509392505050565b5f819050919050565b5f819050919050565b5f61053061052b61052684610504565b61050d565b610504565b9050919050565b5f819050919050565b61054983610516565b61055d61055582610537565b8484546104b3565b825550505050565b5f90565b610571610565565b61057c818484610540565b505050565b5b8181101561059f576105945f82610569565b600181019050610582565b5050565b601f8211156105e4576105b581610486565b6105be84610498565b810160208510156105cd578190505b6105e16105d985610498565b830182610581565b50505b505050565b5f82821c905092915050565b5f6106045f19846008026105e9565b1980831691505092915050565b5f61061c83836105f5565b9150826002028217905092915050565b610635826101fe565b67ffffffffffffffff81111561064e5761064d610296565b5b6106588254610456565b6106638282856105a3565b5f60209050601f831160018114610694575f8415610682578287015190505b61068c8582610611565b8655506106f3565b601f1984166106a286610486565b5f5b828110156106c9578489015182556001820191506020850194506020810190506106a4565b868310156106e657848901516106e2601f8916826105f5565b8355505b6001600288020188555050505b50505050505056fea26469706673582212207b8b0c85f8a80f1d9cd1ffe495d40db161e13f121a04b509c1a2ced63b46a4d764736f6c634300081a0033",
					"opcodes": "PUSH1 0x80 PUSH1 0x40 MSTORE PUSH1 0x40 MLOAD DUP1 PUSH1 0x40 ADD PUSH1 0x40 MSTORE DUP1 PUSH1 0xB DUP2 MSTORE PUSH1 0x20 ADD PUSH32 0x48656C6C6F20576F726C64000000000000000000000000000000000000000000 DUP2 MSTORE POP PUSH0 SWAP1 DUP2 PUSH2 0x47 SWAP2 SWAP1 PUSH2 0x293 JUMP JUMPDEST POP CALLVALUE DUP1 ISZERO PUSH2 0x53 JUMPI PUSH0 DUP1 REVERT JUMPDEST POP PUSH2 0x362 JUMP JUMPDEST PUSH0 DUP2 MLOAD SWAP1 POP SWAP2 SWAP1 POP JUMP JUMPDEST PUSH32 0x4E487B7100000000000000000000000000000000000000000000000000000000 PUSH0 MSTORE PUSH1 0x41 PUSH1 0x4 MSTORE PUSH1 0x24 PUSH0 REVERT JUMPDEST PUSH32 0x4E487B7100000000000000000000000000000000000000000000000000000000 PUSH0 MSTORE PUSH1 0x22 PUSH1 0x4 MSTORE PUSH1 0x24 PUSH0 REVERT JUMPDEST PUSH0 PUSH1 0x2 DUP3 DIV SWAP1 POP PUSH1 0x1 DUP3 AND DUP1 PUSH2 0xD4 JUMPI PUSH1 0x7F DUP3 AND SWAP2 POP JUMPDEST PUSH1 0x20 DUP3 LT DUP2 SUB PUSH2 0xE7 JUMPI PUSH2 0xE6 PUSH2 0x90 JUMP JUMPDEST JUMPDEST POP SWAP2 SWAP1 POP JUMP JUMPDEST PUSH0 DUP2 SWAP1 POP DUP2 PUSH0 MSTORE PUSH1 0x20 PUSH0 KECCAK256 SWAP1 POP SWAP2 SWAP1 POP JUMP JUMPDEST PUSH0 PUSH1 0x20 PUSH1 0x1F DUP4 ADD DIV SWAP1 POP SWAP2 SWAP1 POP JUMP JUMPDEST PUSH0 DUP3 DUP3 SHL SWAP1 POP SWAP3 SWAP2 POP POP JUMP JUMPDEST PUSH0 PUSH1 0x8 DUP4 MUL PUSH2 0x149 PUSH32 0xFFFFFFFFFFFFFFFFFFFFFFFFFFFFFFFFFFFFFFFFFFFFFFFFFFFFFFFFFFFFFFFF DUP3 PUSH2 0x10E JUMP JUMPDEST PUSH2 0x153 DUP7 DUP4 PUSH2 0x10E JUMP JUMPDEST SWAP6 POP DUP1 NOT DUP5 AND SWAP4 POP DUP1 DUP7 AND DUP5 OR SWAP3 POP POP POP SWAP4 SWAP3 POP POP POP JUMP JUMPDEST PUSH0 DUP2 SWAP1 POP SWAP2 SWAP1 POP JUMP JUMPDEST PUSH0 DUP2 SWAP1 POP SWAP2 SWAP1 POP JUMP JUMPDEST PUSH0 PUSH2 0x197 PUSH2 0x192 PUSH2 0x18D DUP5 PUSH2 0x16B JUMP JUMPDEST PUSH2 0x174 JUMP JUMPDEST PUSH2 0x16B JUMP JUMPDEST SWAP1 POP SWAP2 SWAP1 POP JUMP JUMPDEST PUSH0 DUP2 SWAP1 POP SWAP2 SWAP1 POP JUMP JUMPDEST PUSH2 0x1B0 DUP4 PUSH2 0x17D JUMP JUMPDEST PUSH2 0x1C4 PUSH2 0x1BC DUP3 PUSH2 0x19E JUMP JUMPDEST DUP5 DUP5 SLOAD PUSH2 0x11A JUMP JUMPDEST DUP3 SSTORE POP POP POP POP JUMP JUMPDEST PUSH0 SWAP1 JUMP JUMPDEST PUSH2 0x1D8 PUSH2 0x1CC JUMP JUMPDEST PUSH2 0x1E3 DUP2 DUP5 DUP5 PUSH2 0x1A7 JUMP JUMPDEST POP POP POP JUMP JUMPDEST JUMPDEST DUP2 DUP2 LT ISZERO PUSH2 0x206 JUMPI PUSH2 0x1FB PUSH0 DUP3 PUSH2 0x1D0 JUMP JUMPDEST PUSH1 0x1 DUP2 ADD SWAP1 POP PUSH2 0x1E9 JUMP JUMPDEST POP POP JUMP JUMPDEST PUSH1 0x1F DUP3 GT ISZERO PUSH2 0x24B JUMPI PUSH2 0x21C DUP2 PUSH2 0xED JUMP JUMPDEST PUSH2 0x225 DUP5 PUSH2 0xFF JUMP JUMPDEST DUP2 ADD PUSH1 0x20 DUP6 LT ISZERO PUSH2 0x234 JUMPI DUP2 SWAP1 POP JUMPDEST PUSH2 0x248 PUSH2 0x240 DUP6 PUSH2 0xFF JUMP JUMPDEST DUP4 ADD DUP3 PUSH2 0x1E8 JUMP JUMPDEST POP POP JUMPDEST POP POP POP JUMP JUMPDEST PUSH0 DUP3 DUP3 SHR SWAP1 POP SWAP3 SWAP2 POP POP JUMP JUMPDEST PUSH0 PUSH2 0x26B PUSH0 NOT DUP5 PUSH1 0x8 MUL PUSH2 0x250 JUMP JUMPDEST NOT DUP1 DUP4 AND SWAP2 POP POP SWAP3 SWAP2 POP POP JUMP JUMPDEST PUSH0 PUSH2 0x283 DUP4 DUP4 PUSH2 0x25C JUMP JUMPDEST SWAP2 POP DUP3 PUSH1 0x2 MUL DUP3 OR SWAP1 POP SWAP3 SWAP2 POP POP JUMP JUMPDEST PUSH2 0x29C DUP3 PUSH2 0x59 JUMP JUMPDEST PUSH8 0xFFFFFFFFFFFFFFFF DUP2 GT ISZERO PUSH2 0x2B5 JUMPI PUSH2 0x2B4 PUSH2 0x63 JUMP JUMPDEST JUMPDEST PUSH2 0x2BF DUP3 SLOAD PUSH2 0xBD JUMP JUMPDEST PUSH2 0x2CA DUP3 DUP3 DUP6 PUSH2 0x20A JUMP JUMPDEST PUSH0 PUSH1 0x20 SWAP1 POP PUSH1 0x1F DUP4 GT PUSH1 0x1 DUP2 EQ PUSH2 0x2FB JUMPI PUSH0 DUP5 ISZERO PUSH2 0x2E9 JUMPI DUP3 DUP8 ADD MLOAD SWAP1 POP JUMPDEST PUSH2 0x2F3 DUP6 DUP3 PUSH2 0x278 JUMP JUMPDEST DUP7 SSTORE POP PUSH2 0x35A JUMP JUMPDEST PUSH1 0x1F NOT DUP5 AND PUSH2 0x309 DUP7 PUSH2 0xED JUMP JUMPDEST PUSH0 JUMPDEST DUP3 DUP2 LT ISZERO PUSH2 0x330 JUMPI DUP5 DUP10 ADD MLOAD DUP3 SSTORE PUSH1 0x1 DUP3 ADD SWAP2 POP PUSH1 0x20 DUP6 ADD SWAP5 POP PUSH1 0x20 DUP2 ADD SWAP1 POP PUSH2 0x30B JUMP JUMPDEST DUP7 DUP4 LT ISZERO PUSH2 0x34D JUMPI DUP5 DUP10 ADD MLOAD PUSH2 0x349 PUSH1 0x1F DUP10 AND DUP3 PUSH2 0x25C JUMP JUMPDEST DUP4 SSTORE POP JUMPDEST PUSH1 0x1 PUSH1 0x2 DUP9 MUL ADD DUP9 SSTORE POP POP POP JUMPDEST POP POP POP POP POP POP JUMP JUMPDEST PUSH2 0x731 DUP1 PUSH2 0x36F PUSH0 CODECOPY PUSH0 RETURN INVALID PUSH1 0x80 PUSH1 0x40 MSTORE CALLVALUE DUP1 ISZERO PUSH2 0xF JUMPI PUSH0 DUP1 REVERT JUMPDEST POP PUSH1 0x4 CALLDATASIZE LT PUSH2 0x4A JUMPI PUSH0 CALLDATALOAD PUSH1 0xE0 SHR DUP1 PUSH4 0x1E26FD33 EQ PUSH2 0x4E JUMPI DUP1 PUSH4 0x492BFA18 EQ PUSH2 0x6A JUMPI DUP1 PUSH4 0x95A6C1A2 EQ PUSH2 0x88 JUMPI DUP1 PUSH4 0xAA8FB40B EQ PUSH2 0xA4 JUMPI JUMPDEST PUSH0 DUP1 REVERT JUMPDEST PUSH2 0x68 PUSH1 0x4 DUP1 CALLDATASIZE SUB DUP2 ADD SWAP1 PUSH2 0x63 SWAP2 SWAP1 PUSH2 0x1D3 JUMP JUMPDEST PUSH2 0xC2 JUMP JUMPDEST STOP JUMPDEST PUSH2 0x72 PUSH2 0xDE JUMP JUMPDEST PUSH1 0x40 MLOAD PUSH2 0x7F SWAP2 SWAP1 PUSH2 0x26E JUMP JUMPDEST PUSH1 0x40 MLOAD DUP1 SWAP2 SUB SWAP1 RETURN JUMPDEST PUSH2 0xA2 PUSH1 0x4 DUP1 CALLDATASIZE SUB DUP2 ADD SWAP1 PUSH2 0x9D SWAP2 SWAP1 PUSH2 0x3BA JUMP JUMPDEST PUSH2 0x169 JUMP JUMPDEST STOP JUMPDEST PUSH2 0xAC PUSH2 0x17B JUMP JUMPDEST PUSH1 0x40 MLOAD PUSH2 0xB9 SWAP2 SWAP1 PUSH2 0x410 JUMP JUMPDEST PUSH1 0x40 MLOAD DUP1 SWAP2 SUB SWAP1 RETURN JUMPDEST DUP1 PUSH1 0x1 PUSH0 PUSH2 0x100 EXP DUP2 SLOAD DUP2 PUSH1 0xFF MUL NOT AND SWAP1 DUP4 ISZERO ISZERO MUL OR SWAP1 SSTORE POP POP JUMP JUMPDEST PUSH0 DUP1 SLOAD PUSH2 0xEA SWAP1 PUSH2 0x456 JUMP JUMPDEST DUP1 PUSH1 0x1F ADD PUSH1 0x20 DUP1 SWAP2 DIV MUL PUSH1 0x20 ADD PUSH1 0x40 MLOAD SWAP1 DUP2 ADD PUSH1 0x40 MSTORE DUP1 SWAP3 SWAP2 SWAP1 DUP2 DUP2 MSTORE PUSH1 0x20 ADD DUP3 DUP1 SLOAD PUSH2 0x116 SWAP1 PUSH2 0x456 JUMP JUMPDEST DUP1 ISZERO PUSH2 0x161 JUMPI DUP1 PUSH1 0x1F LT PUSH2 0x138 JUMPI PUSH2 0x100 DUP1 DUP4 SLOAD DIV MUL DUP4 MSTORE SWAP2 PUSH1 0x20 ADD SWAP2 PUSH2 0x161 JUMP JUMPDEST DUP3 ADD SWAP2 SWAP1 PUSH0 MSTORE PUSH1 0x20 PUSH0 KECCAK256 SWAP1 JUMPDEST DUP2 SLOAD DUP2 MSTORE SWAP1 PUSH1 0x1 ADD SWAP1 PUSH1 0x20 ADD DUP1 DUP4 GT PUSH2 0x144 JUMPI DUP3 SWAP1 SUB PUSH1 0x1F AND DUP3 ADD SWAP2 JUMPDEST POP POP POP POP POP DUP2 JUMP JUMPDEST DUP1 PUSH0 SWAP1 DUP2 PUSH2 0x177 SWAP2 SWAP1 PUSH2 0x62C JUMP JUMPDEST POP POP JUMP JUMPDEST PUSH1 0x1 PUSH0 SWAP1 SLOAD SWAP1 PUSH2 0x100 EXP SWAP1 DIV PUSH1 0xFF AND DUP2 JUMP JUMPDEST PUSH0 PUSH1 0x40 MLOAD SWAP1 POP SWAP1 JUMP JUMPDEST PUSH0 DUP1 REVERT JUMPDEST PUSH0 DUP1 REVERT JUMPDEST PUSH0 DUP2 ISZERO ISZERO SWAP1 POP SWAP2 SWAP1 POP JUMP JUMPDEST PUSH2 0x1B2 DUP2 PUSH2 0x19E JUMP JUMPDEST DUP2 EQ PUSH2 0x1BC JUMPI PUSH0 DUP1 REVERT JUMPDEST POP JUMP JUMPDEST PUSH0 DUP2 CALLDATALOAD SWAP1 POP PUSH2 0x1CD DUP2 PUSH2 0x1A9 JUMP JUMPDEST SWAP3 SWAP2 POP POP JUMP JUMPDEST PUSH0 PUSH1 0x20 DUP3 DUP5 SUB SLT ISZERO PUSH2 0x1E8 JUMPI PUSH2 0x1E7 PUSH2 0x196 JUMP JUMPDEST JUMPDEST PUSH0 PUSH2 0x1F5 DUP5 DUP3 DUP6 ADD PUSH2 0x1BF JUMP JUMPDEST SWAP2 POP POP SWAP3 SWAP2 POP POP JUMP JUMPDEST PUSH0 DUP2 MLOAD SWAP1 POP SWAP2 SWAP1 POP JUMP JUMPDEST PUSH0 DUP3 DUP3 MSTORE PUSH1 0x20 DUP3 ADD SWAP1 POP SWAP3 SWAP2 POP POP JUMP JUMPDEST DUP3 DUP2 DUP4 MCOPY PUSH0 DUP4 DUP4 ADD MSTORE POP POP POP JUMP JUMPDEST PUSH0 PUSH1 0x1F NOT PUSH1 0x1F DUP4 ADD AND SWAP1 POP SWAP2 SWAP1 POP JUMP JUMPDEST PUSH0 PUSH2 0x240 DUP3 PUSH2 0x1FE JUMP JUMPDEST PUSH2 0x24A DUP2 DUP6 PUSH2 0x208 JUMP JUMPDEST SWAP4 POP PUSH2 0x25A DUP2 DUP6 PUSH1 0x20 DUP7 ADD PUSH2 0x218 JUMP JUMPDEST PUSH2 0x263 DUP2 PUSH2 0x226 JUMP JUMPDEST DUP5 ADD SWAP2 POP POP SWAP3 SWAP2 POP POP JUMP JUMPDEST PUSH0 PUSH1 0x20 DUP3 ADD SWAP1 POP DUP2 DUP2 SUB PUSH0 DUP4 ADD MSTORE PUSH2 0x286 DUP2 DUP5 PUSH2 0x236 JUMP JUMPDEST SWAP1 POP SWAP3 SWAP2 POP POP JUMP JUMPDEST PUSH0 DUP1 REVERT JUMPDEST PUSH0 DUP1 REVERT JUMPDEST PUSH32 0x4E487B7100000000000000000000000000000000000000000000000000000000 PUSH0 MSTORE PUSH1 0x41 PUSH1 0x4 MSTORE PUSH1 0x24 PUSH0 REVERT JUMPDEST PUSH2 0x2CC DUP3 PUSH2 0x226 JUMP JUMPDEST DUP2 ADD DUP2 DUP2 LT PUSH8 0xFFFFFFFFFFFFFFFF DUP3 GT OR ISZERO PUSH2 0x2EB JUMPI PUSH2 0x2EA PUSH2 0x296 JUMP JUMPDEST JUMPDEST DUP1 PUSH1 0x40 MSTORE POP POP POP JUMP JUMPDEST PUSH0 PUSH2 0x2FD PUSH2 0x18D JUMP JUMPDEST SWAP1 POP PUSH2 0x309 DUP3 DUP3 PUSH2 0x2C3 JUMP JUMPDEST SWAP2 SWAP1 POP JUMP JUMPDEST PUSH0 PUSH8 0xFFFFFFFFFFFFFFFF DUP3 GT ISZERO PUSH2 0x328 JUMPI PUSH2 0x327 PUSH2 0x296 JUMP JUMPDEST JUMPDEST PUSH2 0x331 DUP3 PUSH2 0x226 JUMP JUMPDEST SWAP1 POP PUSH1 0x20 DUP2 ADD SWAP1 POP SWAP2 SWAP1 POP JUMP JUMPDEST DUP3 DUP2 DUP4 CALLDATACOPY PUSH0 DUP4 DUP4 ADD MSTORE POP POP POP JUMP JUMPDEST PUSH0 PUSH2 0x35E PUSH2 0x359 DUP5 PUSH2 0x30E JUMP JUMPDEST PUSH2 0x2F4 JUMP JUMPDEST SWAP1 POP DUP3 DUP2 MSTORE PUSH1 0x20 DUP2 ADD DUP5 DUP5 DUP5 ADD GT ISZERO PUSH2 0x37A JUMPI PUSH2 0x379 PUSH2 0x292 JUMP JUMPDEST JUMPDEST PUSH2 0x385 DUP5 DUP3 DUP6 PUSH2 0x33E JUMP JUMPDEST POP SWAP4 SWAP3 POP POP POP JUMP JUMPDEST PUSH0 DUP3 PUSH1 0x1F DUP4 ADD SLT PUSH2 0x3A1 JUMPI PUSH2 0x3A0 PUSH2 0x28E JUMP JUMPDEST JUMPDEST DUP2 CALLDATALOAD PUSH2 0x3B1 DUP5 DUP3 PUSH1 0x20 DUP7 ADD PUSH2 0x34C JUMP JUMPDEST SWAP2 POP POP SWAP3 SWAP2 POP POP JUMP JUMPDEST PUSH0 PUSH1 0x20 DUP3 DUP5 SUB SLT ISZERO PUSH2 0x3CF JUMPI PUSH2 0x3CE PUSH2 0x196 JUMP JUMPDEST JUMPDEST PUSH0 DUP3 ADD CALLDATALOAD PUSH8 0xFFFFFFFFFFFFFFFF DUP2 GT ISZERO PUSH2 0x3EC JUMPI PUSH2 0x3EB PUSH2 0x19A JUMP JUMPDEST JUMPDEST PUSH2 0x3F8 DUP5 DUP3 DUP6 ADD PUSH2 0x38D JUMP JUMPDEST SWAP2 POP POP SWAP3 SWAP2 POP POP JUMP JUMPDEST PUSH2 0x40A DUP2 PUSH2 0x19E JUMP JUMPDEST DUP3 MSTORE POP POP JUMP JUMPDEST PUSH0 PUSH1 0x20 DUP3 ADD SWAP1 POP PUSH2 0x423 PUSH0 DUP4 ADD DUP5 PUSH2 0x401 JUMP JUMPDEST SWAP3 SWAP2 POP POP JUMP JUMPDEST PUSH32 0x4E487B7100000000000000000000000000000000000000000000000000000000 PUSH0 MSTORE PUSH1 0x22 PUSH1 0x4 MSTORE PUSH1 0x24 PUSH0 REVERT JUMPDEST PUSH0 PUSH1 0x2 DUP3 DIV SWAP1 POP PUSH1 0x1 DUP3 AND DUP1 PUSH2 0x46D JUMPI PUSH1 0x7F DUP3 AND SWAP2 POP JUMPDEST PUSH1 0x20 DUP3 LT DUP2 SUB PUSH2 0x480 JUMPI PUSH2 0x47F PUSH2 0x429 JUMP JUMPDEST JUMPDEST POP SWAP2 SWAP1 POP JUMP JUMPDEST PUSH0 DUP2 SWAP1 POP DUP2 PUSH0 MSTORE PUSH1 0x20 PUSH0 KECCAK256 SWAP1 POP SWAP2 SWAP1 POP JUMP JUMPDEST PUSH0 PUSH1 0x20 PUSH1 0x1F DUP4 ADD DIV SWAP1 POP SWAP2 SWAP1 POP JUMP JUMPDEST PUSH0 DUP3 DUP3 SHL SWAP1 POP SWAP3 SWAP2 POP POP JUMP JUMPDEST PUSH0 PUSH1 0x8 DUP4 MUL PUSH2 0x4E2 PUSH32 0xFFFFFFFFFFFFFFFFFFFFFFFFFFFFFFFFFFFFFFFFFFFFFFFFFFFFFFFFFFFFFFFF DUP3 PUSH2 0x4A7 JUMP JUMPDEST PUSH2 0x4EC DUP7 DUP4 PUSH2 0x4A7 JUMP JUMPDEST SWAP6 POP DUP1 NOT DUP5 AND SWAP4 POP DUP1 DUP7 AND DUP5 OR SWAP3 POP POP POP SWAP4 SWAP3 POP POP POP JUMP JUMPDEST PUSH0 DUP2 SWAP1 POP SWAP2 SWAP1 POP JUMP JUMPDEST PUSH0 DUP2 SWAP1 POP SWAP2 SWAP1 POP JUMP JUMPDEST PUSH0 PUSH2 0x530 PUSH2 0x52B PUSH2 0x526 DUP5 PUSH2 0x504 JUMP JUMPDEST PUSH2 0x50D JUMP JUMPDEST PUSH2 0x504 JUMP JUMPDEST SWAP1 POP SWAP2 SWAP1 POP JUMP JUMPDEST PUSH0 DUP2 SWAP1 POP SWAP2 SWAP1 POP JUMP JUMPDEST PUSH2 0x549 DUP4 PUSH2 0x516 JUMP JUMPDEST PUSH2 0x55D PUSH2 0x555 DUP3 PUSH2 0x537 JUMP JUMPDEST DUP5 DUP5 SLOAD PUSH2 0x4B3 JUMP JUMPDEST DUP3 SSTORE POP POP POP POP JUMP JUMPDEST PUSH0 SWAP1 JUMP JUMPDEST PUSH2 0x571 PUSH2 0x565 JUMP JUMPDEST PUSH2 0x57C DUP2 DUP5 DUP5 PUSH2 0x540 JUMP JUMPDEST POP POP POP JUMP JUMPDEST JUMPDEST DUP2 DUP2 LT ISZERO PUSH2 0x59F JUMPI PUSH2 0x594 PUSH0 DUP3 PUSH2 0x569 JUMP JUMPDEST PUSH1 0x1 DUP2 ADD SWAP1 POP PUSH2 0x582 JUMP JUMPDEST POP POP JUMP JUMPDEST PUSH1 0x1F DUP3 GT ISZERO PUSH2 0x5E4 JUMPI PUSH2 0x5B5 DUP2 PUSH2 0x486 JUMP JUMPDEST PUSH2 0x5BE DUP5 PUSH2 0x498 JUMP JUMPDEST DUP2 ADD PUSH1 0x20 DUP6 LT ISZERO PUSH2 0x5CD JUMPI DUP2 SWAP1 POP JUMPDEST PUSH2 0x5E1 PUSH2 0x5D9 DUP6 PUSH2 0x498 JUMP JUMPDEST DUP4 ADD DUP3 PUSH2 0x581 JUMP JUMPDEST POP POP JUMPDEST POP POP POP JUMP JUMPDEST PUSH0 DUP3 DUP3 SHR SWAP1 POP SWAP3 SWAP2 POP POP JUMP JUMPDEST PUSH0 PUSH2 0x604 PUSH0 NOT DUP5 PUSH1 0x8 MUL PUSH2 0x5E9 JUMP JUMPDEST NOT DUP1 DUP4 AND SWAP2 POP POP SWAP3 SWAP2 POP POP JUMP JUMPDEST PUSH0 PUSH2 0x61C DUP4 DUP4 PUSH2 0x5F5 JUMP JUMPDEST SWAP2 POP DUP3 PUSH1 0x2 MUL DUP3 OR SWAP1 POP SWAP3 SWAP2 POP POP JUMP JUMPDEST PUSH2 0x635 DUP3 PUSH2 0x1FE JUMP JUMPDEST PUSH8 0xFFFFFFFFFFFFFFFF DUP2 GT ISZERO PUSH2 0x64E JUMPI PUSH2 0x64D PUSH2 0x296 JUMP JUMPDEST JUMPDEST PUSH2 0x658 DUP3 SLOAD PUSH2 0x456 JUMP JUMPDEST PUSH2 0x663 DUP3 DUP3 DUP6 PUSH2 0x5A3 JUMP JUMPDEST PUSH0 PUSH1 0x20 SWAP1 POP PUSH1 0x1F DUP4 GT PUSH1 0x1 DUP2 EQ PUSH2 0x694 JUMPI PUSH0 DUP5 ISZERO PUSH2 0x682 JUMPI DUP3 DUP8 ADD MLOAD SWAP1 POP JUMPDEST PUSH2 0x68C DUP6 DUP3 PUSH2 0x611 JUMP JUMPDEST DUP7 SSTORE POP PUSH2 0x6F3 JUMP JUMPDEST PUSH1 0x1F NOT DUP5 AND PUSH2 0x6A2 DUP7 PUSH2 0x486 JUMP JUMPDEST PUSH0 JUMPDEST DUP3 DUP2 LT ISZERO PUSH2 0x6C9 JUMPI DUP5 DUP10 ADD MLOAD DUP3 SSTORE PUSH1 0x1 DUP3 ADD SWAP2 POP PUSH1 0x20 DUP6 ADD SWAP5 POP PUSH1 0x20 DUP2 ADD SWAP1 POP PUSH2 0x6A4 JUMP JUMPDEST DUP7 DUP4 LT ISZERO PUSH2 0x6E6 JUMPI DUP5 DUP10 ADD MLOAD PUSH2 0x6E2 PUSH1 0x1F DUP10 AND DUP3 PUSH2 0x5F5 JUMP JUMPDEST DUP4 SSTORE POP JUMPDEST PUSH1 0x1 PUSH1 0x2 DUP9 MUL ADD DUP9 SSTORE POP POP POP JUMPDEST POP POP POP POP POP POP JUMP INVALID LOG2 PUSH5 0x6970667358 0x22 SLT KECCAK256 PUSH28 0x8B0C85F8A80F1D9CD1FFE495D40DB161E13F121A04B509C1A2CED63B CHAINID LOG4 0xD7 PUSH5 0x736F6C6343 STOP ADDMOD BYTE STOP CALLER "
				},
				"gasEstimates": {
					"creation": {
						"codeDepositCost": "368200",
						"executionCost": "infinite",
						"totalCost": "infinite"
					},
					"external": {
						"good()": "2510",
						"hiString(string)": "infinite",
						"myString()": "infinite",
						"setBool(bool)": "24651"
					}
				},
				"methodIdentifiers": {
					"good()": "aa8fb40b",
					"hiString(string)": "95a6c1a2",
					"myString()": "492bfa18",
					"setBool(bool)": "1e26fd33"
				}
			},
			"storageLayout": {
				"storage": [
					{
						"astId": 4,
						"contract": "contracts/MySecondContract.sol:MySecondContract",
						"label": "myString",
						"offset": 0,
						"slot": "0",
						"type": "t_string_storage"
					},
					{
						"astId": 6,
						"contract": "contracts/MySecondContract.sol:MySecondContract",
						"label": "good",
						"offset": 0,
						"slot": "1",
						"type": "t_bool"
					}
				],
				"types": {
					"t_bool": {
						"encoding": "inplace",
						"label": "bool",
						"numberOfBytes": "1"
					},
					"t_string_storage": {
						"encoding": "bytes",
						"label": "string",
						"numberOfBytes": "32"
					}
				}
			},
			"userdoc": {
				"kind": "user",
				"methods": {},
				"version": 1
			}
		}
	}
}