{
	"contracts/MyContract.sol": {
		"MyContract": {
			"abi": [
				{
					"inputs": [
						{
							"internalType": "string",
							"name": "_updateString",
							"type": "string"
						}
					],
					"name": "compareTwoStrings",
					"outputs": [
						{
							"internalType": "bool",
							"name": "",
							"type": "bool"
						}
					],
					"stateMutability": "view",
					"type": "function"
				},
				{
					"inputs": [],
					"name": "ourString",
					"outputs": [
						{
							"internalType": "string",
							"name": "",
							"type": "string"
						}
					],
					"stateMutability": "view",
					"type": "function"
				},
				{
					"inputs": [
						{
							"internalType": "string",
							"name": "_updateString",
							"type": "string"
						}
					],
					"name": "updateOurString",
					"outputs": [],
					"stateMutability": "nonpayable",
					"type": "function"
				}
			],
			"devdoc": {
				"kind": "dev",
				"methods": {},
				"version": 1
			},
			"evm": {
				"assembly": "    /* \"contracts/MyContract.sol\":61:537  contract MyContract{... */\n  mstore(0x40, 0x80)\n    /* \"contracts/MyContract.sol\":87:126  string public ourString = \"Hello World\" */\n  mload(0x40)\n  dup1\n  0x40\n  add\n  0x40\n  mstore\n  dup1\n  0x0b\n  dup2\n  mstore\n  0x20\n  add\n  0x48656c6c6f20576f726c64000000000000000000000000000000000000000000\n  dup2\n  mstore\n  pop\n  0x00\n  swap1\n  dup2\n  tag_1\n  swap2\n  swap1\n  tag_2\n  jump\t// in\ntag_1:\n  pop\n    /* \"contracts/MyContract.sol\":133:156  bytes myBytes = \"Hello\" */\n  mload(0x40)\n  dup1\n  0x40\n  add\n  0x40\n  mstore\n  dup1\n  0x05\n  dup2\n  mstore\n  0x20\n  add\n  0x48656c6c6f000000000000000000000000000000000000000000000000000000\n  dup2\n  mstore\n  pop\n  0x01\n  swap1\n  dup2\n  tag_3\n  swap2\n  swap1\n  tag_4\n  jump\t// in\ntag_3:\n  pop\n    /* \"contracts/MyContract.sol\":61:537  contract MyContract{... */\n  callvalue\n  dup1\n  iszero\n  tag_5\n  jumpi\n  0x00\n  dup1\n  revert\ntag_5:\n  pop\n  jump(tag_6)\n    /* \"#utility.yul\":7:106   */\ntag_7:\n    /* \"#utility.yul\":59:65   */\n  0x00\n    /* \"#utility.yul\":93:98   */\n  dup2\n    /* \"#utility.yul\":87:99   */\n  mload\n    /* \"#utility.yul\":77:99   */\n  swap1\n  pop\n    /* \"#utility.yul\":7:106   */\n  swap2\n  swap1\n  pop\n  jump\t// out\n    /* \"#utility.yul\":112:292   */\ntag_8:\n    /* \"#utility.yul\":160:237   */\n  0x4e487b7100000000000000000000000000000000000000000000000000000000\n    /* \"#utility.yul\":157:158   */\n  0x00\n    /* \"#utility.yul\":150:238   */\n  mstore\n    /* \"#utility.yul\":257:261   */\n  0x41\n    /* \"#utility.yul\":254:255   */\n  0x04\n    /* \"#utility.yul\":247:262   */\n  mstore\n    /* \"#utility.yul\":281:285   */\n  0x24\n    /* \"#utility.yul\":278:279   */\n  0x00\n    /* \"#utility.yul\":271:286   */\n  revert\n    /* \"#utility.yul\":298:478   */\ntag_9:\n    /* \"#utility.yul\":346:423   */\n  0x4e487b7100000000000000000000000000000000000000000000000000000000\n    /* \"#utility.yul\":343:344   */\n  0x00\n    /* \"#utility.yul\":336:424   */\n  mstore\n    /* \"#utility.yul\":443:447   */\n  0x22\n    /* \"#utility.yul\":440:441   */\n  0x04\n    /* \"#utility.yul\":433:448   */\n  mstore\n    /* \"#utility.yul\":467:471   */\n  0x24\n    /* \"#utility.yul\":464:465   */\n  0x00\n    /* \"#utility.yul\":457:472   */\n  revert\n    /* \"#utility.yul\":484:804   */\ntag_10:\n    /* \"#utility.yul\":528:534   */\n  0x00\n    /* \"#utility.yul\":565:566   */\n  0x02\n    /* \"#utility.yul\":559:563   */\n  dup3\n    /* \"#utility.yul\":555:567   */\n  div\n    /* \"#utility.yul\":545:567   */\n  swap1\n  pop\n    /* \"#utility.yul\":612:613   */\n  0x01\n    /* \"#utility.yul\":606:610   */\n  dup3\n    /* \"#utility.yul\":602:614   */\n  and\n    /* \"#utility.yul\":633:651   */\n  dup1\n    /* \"#utility.yul\":623:704   */\n  tag_34\n  jumpi\n    /* \"#utility.yul\":689:693   */\n  0x7f\n    /* \"#utility.yul\":681:687   */\n  dup3\n    /* \"#utility.yul\":677:694   */\n  and\n    /* \"#utility.yul\":667:694   */\n  swap2\n  pop\n    /* \"#utility.yul\":623:704   */\ntag_34:\n    /* \"#utility.yul\":751:753   */\n  0x20\n    /* \"#utility.yul\":743:749   */\n  dup3\n    /* \"#utility.yul\":740:754   */\n  lt\n    /* \"#utility.yul\":720:738   */\n  dup2\n    /* \"#utility.yul\":717:755   */\n  sub\n    /* \"#utility.yul\":714:798   */\n  tag_35\n  jumpi\n    /* \"#utility.yul\":770:788   */\n  tag_36\n  tag_9\n  jump\t// in\ntag_36:\n    /* \"#utility.yul\":714:798   */\ntag_35:\n    /* \"#utility.yul\":535:804   */\n  pop\n    /* \"#utility.yul\":484:804   */\n  swap2\n  swap1\n  pop\n  jump\t// out\n    /* \"#utility.yul\":810:951   */\ntag_11:\n    /* \"#utility.yul\":859:863   */\n  0x00\n    /* \"#utility.yul\":882:885   */\n  dup2\n    /* \"#utility.yul\":874:885   */\n  swap1\n  pop\n    /* \"#utility.yul\":905:908   */\n  dup2\n    /* \"#utility.yul\":902:903   */\n  0x00\n    /* \"#utility.yul\":895:909   */\n  mstore\n    /* \"#utility.yul\":939:943   */\n  0x20\n    /* \"#utility.yul\":936:937   */\n  0x00\n    /* \"#utility.yul\":926:944   */\n  keccak256\n    /* \"#utility.yul\":918:944   */\n  swap1\n  pop\n    /* \"#utility.yul\":810:951   */\n  swap2\n  swap1\n  pop\n  jump\t// out\n    /* \"#utility.yul\":957:1050   */\ntag_12:\n    /* \"#utility.yul\":994:1000   */\n  0x00\n    /* \"#utility.yul\":1041:1043   */\n  0x20\n    /* \"#utility.yul\":1036:1038   */\n  0x1f\n    /* \"#utility.yul\":1029:1034   */\n  dup4\n    /* \"#utility.yul\":1025:1039   */\n  add\n    /* \"#utility.yul\":1021:1044   */\n  div\n    /* \"#utility.yul\":1011:1044   */\n  swap1\n  pop\n    /* \"#utility.yul\":957:1050   */\n  swap2\n  swap1\n  pop\n  jump\t// out\n    /* \"#utility.yul\":1056:1163   */\ntag_13:\n    /* \"#utility.yul\":1100:1108   */\n  0x00\n    /* \"#utility.yul\":1150:1155   */\n  dup3\n    /* \"#utility.yul\":1144:1148   */\n  dup3\n    /* \"#utility.yul\":1140:1156   */\n  shl\n    /* \"#utility.yul\":1119:1156   */\n  swap1\n  pop\n    /* \"#utility.yul\":1056:1163   */\n  swap3\n  swap2\n  pop\n  pop\n  jump\t// out\n    /* \"#utility.yul\":1169:1562   */\ntag_14:\n    /* \"#utility.yul\":1238:1244   */\n  0x00\n    /* \"#utility.yul\":1288:1289   */\n  0x08\n    /* \"#utility.yul\":1276:1286   */\n  dup4\n    /* \"#utility.yul\":1272:1290   */\n  mul\n    /* \"#utility.yul\":1311:1408   */\n  tag_41\n    /* \"#utility.yul\":1341:1407   */\n  0xffffffffffffffffffffffffffffffffffffffffffffffffffffffffffffffff\n    /* \"#utility.yul\":1330:1339   */\n  dup3\n    /* \"#utility.yul\":1311:1408   */\n  tag_13\n  jump\t// in\ntag_41:\n    /* \"#utility.yul\":1429:1468   */\n  tag_42\n    /* \"#utility.yul\":1459:1467   */\n  dup7\n    /* \"#utility.yul\":1448:1457   */\n  dup4\n    /* \"#utility.yul\":1429:1468   */\n  tag_13\n  jump\t// in\ntag_42:\n    /* \"#utility.yul\":1417:1468   */\n  swap6\n  pop\n    /* \"#utility.yul\":1501:1505   */\n  dup1\n    /* \"#utility.yul\":1497:1506   */\n  not\n    /* \"#utility.yul\":1490:1495   */\n  dup5\n    /* \"#utility.yul\":1486:1507   */\n  and\n    /* \"#utility.yul\":1477:1507   */\n  swap4\n  pop\n    /* \"#utility.yul\":1550:1554   */\n  dup1\n    /* \"#utility.yul\":1540:1548   */\n  dup7\n    /* \"#utility.yul\":1536:1555   */\n  and\n    /* \"#utility.yul\":1529:1534   */\n  dup5\n    /* \"#utility.yul\":1526:1556   */\n  or\n    /* \"#utility.yul\":1516:1556   */\n  swap3\n  pop\n    /* \"#utility.yul\":1245:1562   */\n  pop\n  pop\n    /* \"#utility.yul\":1169:1562   */\n  swap4\n  swap3\n  pop\n  pop\n  pop\n  jump\t// out\n    /* \"#utility.yul\":1568:1645   */\ntag_15:\n    /* \"#utility.yul\":1605:1612   */\n  0x00\n    /* \"#utility.yul\":1634:1639   */\n  dup2\n    /* \"#utility.yul\":1623:1639   */\n  swap1\n  pop\n    /* \"#utility.yul\":1568:1645   */\n  swap2\n  swap1\n  pop\n  jump\t// out\n    /* \"#utility.yul\":1651:1711   */\ntag_16:\n    /* \"#utility.yul\":1679:1682   */\n  0x00\n    /* \"#utility.yul\":1700:1705   */\n  dup2\n    /* \"#utility.yul\":1693:1705   */\n  swap1\n  pop\n    /* \"#utility.yul\":1651:1711   */\n  swap2\n  swap1\n  pop\n  jump\t// out\n    /* \"#utility.yul\":1717:1859   */\ntag_17:\n    /* \"#utility.yul\":1767:1776   */\n  0x00\n    /* \"#utility.yul\":1800:1853   */\n  tag_46\n    /* \"#utility.yul\":1818:1852   */\n  tag_47\n    /* \"#utility.yul\":1827:1851   */\n  tag_48\n    /* \"#utility.yul\":1845:1850   */\n  dup5\n    /* \"#utility.yul\":1827:1851   */\n  tag_15\n  jump\t// in\ntag_48:\n    /* \"#utility.yul\":1818:1852   */\n  tag_16\n  jump\t// in\ntag_47:\n    /* \"#utility.yul\":1800:1853   */\n  tag_15\n  jump\t// in\ntag_46:\n    /* \"#utility.yul\":1787:1853   */\n  swap1\n  pop\n    /* \"#utility.yul\":1717:1859   */\n  swap2\n  swap1\n  pop\n  jump\t// out\n    /* \"#utility.yul\":1865:1940   */\ntag_18:\n    /* \"#utility.yul\":1908:1911   */\n  0x00\n    /* \"#utility.yul\":1929:1934   */\n  dup2\n    /* \"#utility.yul\":1922:1934   */\n  swap1\n  pop\n    /* \"#utility.yul\":1865:1940   */\n  swap2\n  swap1\n  pop\n  jump\t// out\n    /* \"#utility.yul\":1946:2215   */\ntag_19:\n    /* \"#utility.yul\":2056:2095   */\n  tag_51\n    /* \"#utility.yul\":2087:2094   */\n  dup4\n    /* \"#utility.yul\":2056:2095   */\n  tag_17\n  jump\t// in\ntag_51:\n    /* \"#utility.yul\":2117:2208   */\n  tag_52\n    /* \"#utility.yul\":2166:2207   */\n  tag_53\n    /* \"#utility.yul\":2190:2206   */\n  dup3\n    /* \"#utility.yul\":2166:2207   */\n  tag_18\n  jump\t// in\ntag_53:\n    /* \"#utility.yul\":2158:2164   */\n  dup5\n    /* \"#utility.yul\":2151:2155   */\n  dup5\n    /* \"#utility.yul\":2145:2156   */\n  sload\n    /* \"#utility.yul\":2117:2208   */\n  tag_14\n  jump\t// in\ntag_52:\n    /* \"#utility.yul\":2111:2115   */\n  dup3\n    /* \"#utility.yul\":2104:2209   */\n  sstore\n    /* \"#utility.yul\":2022:2215   */\n  pop\n    /* \"#utility.yul\":1946:2215   */\n  pop\n  pop\n  pop\n  jump\t// out\n    /* \"#utility.yul\":2221:2294   */\ntag_20:\n    /* \"#utility.yul\":2266:2269   */\n  0x00\n    /* \"#utility.yul\":2221:2294   */\n  swap1\n  jump\t// out\n    /* \"#utility.yul\":2300:2489   */\ntag_21:\n    /* \"#utility.yul\":2377:2409   */\n  tag_56\n  tag_20\n  jump\t// in\ntag_56:\n    /* \"#utility.yul\":2418:2483   */\n  tag_57\n    /* \"#utility.yul\":2476:2482   */\n  dup2\n    /* \"#utility.yul\":2468:2474   */\n  dup5\n    /* \"#utility.yul\":2462:2466   */\n  dup5\n    /* \"#utility.yul\":2418:2483   */\n  tag_19\n  jump\t// in\ntag_57:\n    /* \"#utility.yul\":2353:2489   */\n  pop\n    /* \"#utility.yul\":2300:2489   */\n  pop\n  pop\n  jump\t// out\n    /* \"#utility.yul\":2495:2681   */\ntag_22:\n    /* \"#utility.yul\":2555:2675   */\ntag_59:\n    /* \"#utility.yul\":2572:2575   */\n  dup2\n    /* \"#utility.yul\":2565:2570   */\n  dup2\n    /* \"#utility.yul\":2562:2576   */\n  lt\n    /* \"#utility.yul\":2555:2675   */\n  iszero\n  tag_61\n  jumpi\n    /* \"#utility.yul\":2626:2665   */\n  tag_62\n    /* \"#utility.yul\":2663:2664   */\n  0x00\n    /* \"#utility.yul\":2656:2661   */\n  dup3\n    /* \"#utility.yul\":2626:2665   */\n  tag_21\n  jump\t// in\ntag_62:\n    /* \"#utility.yul\":2599:2600   */\n  0x01\n    /* \"#utility.yul\":2592:2597   */\n  dup2\n    /* \"#utility.yul\":2588:2601   */\n  add\n    /* \"#utility.yul\":2579:2601   */\n  swap1\n  pop\n    /* \"#utility.yul\":2555:2675   */\n  jump(tag_59)\ntag_61:\n    /* \"#utility.yul\":2495:2681   */\n  pop\n  pop\n  jump\t// out\n    /* \"#utility.yul\":2687:3230   */\ntag_23:\n    /* \"#utility.yul\":2788:2790   */\n  0x1f\n    /* \"#utility.yul\":2783:2786   */\n  dup3\n    /* \"#utility.yul\":2780:2791   */\n  gt\n    /* \"#utility.yul\":2777:3223   */\n  iszero\n  tag_64\n  jumpi\n    /* \"#utility.yul\":2822:2860   */\n  tag_65\n    /* \"#utility.yul\":2854:2859   */\n  dup2\n    /* \"#utility.yul\":2822:2860   */\n  tag_11\n  jump\t// in\ntag_65:\n    /* \"#utility.yul\":2906:2935   */\n  tag_66\n    /* \"#utility.yul\":2924:2934   */\n  dup5\n    /* \"#utility.yul\":2906:2935   */\n  tag_12\n  jump\t// in\ntag_66:\n    /* \"#utility.yul\":2896:2904   */\n  dup2\n    /* \"#utility.yul\":2892:2936   */\n  add\n    /* \"#utility.yul\":3089:3091   */\n  0x20\n    /* \"#utility.yul\":3077:3087   */\n  dup6\n    /* \"#utility.yul\":3074:3092   */\n  lt\n    /* \"#utility.yul\":3071:3120   */\n  iszero\n  tag_67\n  jumpi\n    /* \"#utility.yul\":3110:3118   */\n  dup2\n    /* \"#utility.yul\":3095:3118   */\n  swap1\n  pop\n    /* \"#utility.yul\":3071:3120   */\ntag_67:\n    /* \"#utility.yul\":3133:3213   */\n  tag_68\n    /* \"#utility.yul\":3189:3211   */\n  tag_69\n    /* \"#utility.yul\":3207:3210   */\n  dup6\n    /* \"#utility.yul\":3189:3211   */\n  tag_12\n  jump\t// in\ntag_69:\n    /* \"#utility.yul\":3179:3187   */\n  dup4\n    /* \"#utility.yul\":3175:3212   */\n  add\n    /* \"#utility.yul\":3162:3173   */\n  dup3\n    /* \"#utility.yul\":3133:3213   */\n  tag_22\n  jump\t// in\ntag_68:\n    /* \"#utility.yul\":2792:3223   */\n  pop\n  pop\n    /* \"#utility.yul\":2777:3223   */\ntag_64:\n    /* \"#utility.yul\":2687:3230   */\n  pop\n  pop\n  pop\n  jump\t// out\n    /* \"#utility.yul\":3236:3353   */\ntag_24:\n    /* \"#utility.yul\":3290:3298   */\n  0x00\n    /* \"#utility.yul\":3340:3345   */\n  dup3\n    /* \"#utility.yul\":3334:3338   */\n  dup3\n    /* \"#utility.yul\":3330:3346   */\n  shr\n    /* \"#utility.yul\":3309:3346   */\n  swap1\n  pop\n    /* \"#utility.yul\":3236:3353   */\n  swap3\n  swap2\n  pop\n  pop\n  jump\t// out\n    /* \"#utility.yul\":3359:3528   */\ntag_25:\n    /* \"#utility.yul\":3403:3409   */\n  0x00\n    /* \"#utility.yul\":3436:3487   */\n  tag_72\n    /* \"#utility.yul\":3484:3485   */\n  0x00\n    /* \"#utility.yul\":3480:3486   */\n  not\n    /* \"#utility.yul\":3472:3477   */\n  dup5\n    /* \"#utility.yul\":3469:3470   */\n  0x08\n    /* \"#utility.yul\":3465:3478   */\n  mul\n    /* \"#utility.yul\":3436:3487   */\n  tag_24\n  jump\t// in\ntag_72:\n    /* \"#utility.yul\":3432:3488   */\n  not\n    /* \"#utility.yul\":3517:3521   */\n  dup1\n    /* \"#utility.yul\":3511:3515   */\n  dup4\n    /* \"#utility.yul\":3507:3522   */\n  and\n    /* \"#utility.yul\":3497:3522   */\n  swap2\n  pop\n    /* \"#utility.yul\":3410:3528   */\n  pop\n    /* \"#utility.yul\":3359:3528   */\n  swap3\n  swap2\n  pop\n  pop\n  jump\t// out\n    /* \"#utility.yul\":3533:3828   */\ntag_26:\n    /* \"#utility.yul\":3609:3613   */\n  0x00\n    /* \"#utility.yul\":3755:3784   */\n  tag_74\n    /* \"#utility.yul\":3780:3783   */\n  dup4\n    /* \"#utility.yul\":3774:3778   */\n  dup4\n    /* \"#utility.yul\":3755:3784   */\n  tag_25\n  jump\t// in\ntag_74:\n    /* \"#utility.yul\":3747:3784   */\n  swap2\n  pop\n    /* \"#utility.yul\":3817:3820   */\n  dup3\n    /* \"#utility.yul\":3814:3815   */\n  0x02\n    /* \"#utility.yul\":3810:3821   */\n  mul\n    /* \"#utility.yul\":3804:3808   */\n  dup3\n    /* \"#utility.yul\":3801:3822   */\n  or\n    /* \"#utility.yul\":3793:3822   */\n  swap1\n  pop\n    /* \"#utility.yul\":3533:3828   */\n  swap3\n  swap2\n  pop\n  pop\n  jump\t// out\n    /* \"#utility.yul\":3833:5228   */\ntag_2:\n    /* \"#utility.yul\":3950:3987   */\n  tag_76\n    /* \"#utility.yul\":3983:3986   */\n  dup3\n    /* \"#utility.yul\":3950:3987   */\n  tag_7\n  jump\t// in\ntag_76:\n    /* \"#utility.yul\":4052:4070   */\n  0xffffffffffffffff\n    /* \"#utility.yul\":4044:4050   */\n  dup2\n    /* \"#utility.yul\":4041:4071   */\n  gt\n    /* \"#utility.yul\":4038:4094   */\n  iszero\n  tag_77\n  jumpi\n    /* \"#utility.yul\":4074:4092   */\n  tag_78\n  tag_8\n  jump\t// in\ntag_78:\n    /* \"#utility.yul\":4038:4094   */\ntag_77:\n    /* \"#utility.yul\":4118:4156   */\n  tag_79\n    /* \"#utility.yul\":4150:4154   */\n  dup3\n    /* \"#utility.yul\":4144:4155   */\n  sload\n    /* \"#utility.yul\":4118:4156   */\n  tag_10\n  jump\t// in\ntag_79:\n    /* \"#utility.yul\":4203:4270   */\n  tag_80\n    /* \"#utility.yul\":4263:4269   */\n  dup3\n    /* \"#utility.yul\":4255:4261   */\n  dup3\n    /* \"#utility.yul\":4249:4253   */\n  dup6\n    /* \"#utility.yul\":4203:4270   */\n  tag_23\n  jump\t// in\ntag_80:\n    /* \"#utility.yul\":4297:4298   */\n  0x00\n    /* \"#utility.yul\":4321:4325   */\n  0x20\n    /* \"#utility.yul\":4308:4325   */\n  swap1\n  pop\n    /* \"#utility.yul\":4353:4355   */\n  0x1f\n    /* \"#utility.yul\":4345:4351   */\n  dup4\n    /* \"#utility.yul\":4342:4356   */\n  gt\n    /* \"#utility.yul\":4370:4371   */\n  0x01\n    /* \"#utility.yul\":4365:4983   */\n  dup2\n  eq\n  tag_82\n  jumpi\n    /* \"#utility.yul\":5027:5028   */\n  0x00\n    /* \"#utility.yul\":5044:5050   */\n  dup5\n    /* \"#utility.yul\":5041:5118   */\n  iszero\n  tag_83\n  jumpi\n    /* \"#utility.yul\":5093:5102   */\n  dup3\n    /* \"#utility.yul\":5088:5091   */\n  dup8\n    /* \"#utility.yul\":5084:5103   */\n  add\n    /* \"#utility.yul\":5078:5104   */\n  mload\n    /* \"#utility.yul\":5069:5104   */\n  swap1\n  pop\n    /* \"#utility.yul\":5041:5118   */\ntag_83:\n    /* \"#utility.yul\":5144:5211   */\n  tag_84\n    /* \"#utility.yul\":5204:5210   */\n  dup6\n    /* \"#utility.yul\":5197:5202   */\n  dup3\n    /* \"#utility.yul\":5144:5211   */\n  tag_26\n  jump\t// in\ntag_84:\n    /* \"#utility.yul\":5138:5142   */\n  dup7\n    /* \"#utility.yul\":5131:5212   */\n  sstore\n    /* \"#utility.yul\":5000:5222   */\n  pop\n    /* \"#utility.yul\":4335:5222   */\n  jump(tag_81)\n    /* \"#utility.yul\":4365:4983   */\ntag_82:\n    /* \"#utility.yul\":4417:4421   */\n  0x1f\n    /* \"#utility.yul\":4413:4422   */\n  not\n    /* \"#utility.yul\":4405:4411   */\n  dup5\n    /* \"#utility.yul\":4401:4423   */\n  and\n    /* \"#utility.yul\":4451:4488   */\n  tag_85\n    /* \"#utility.yul\":4483:4487   */\n  dup7\n    /* \"#utility.yul\":4451:4488   */\n  tag_11\n  jump\t// in\ntag_85:\n    /* \"#utility.yul\":4510:4511   */\n  0x00\n    /* \"#utility.yul\":4524:4732   */\ntag_86:\n    /* \"#utility.yul\":4538:4545   */\n  dup3\n    /* \"#utility.yul\":4535:4536   */\n  dup2\n    /* \"#utility.yul\":4532:4546   */\n  lt\n    /* \"#utility.yul\":4524:4732   */\n  iszero\n  tag_88\n  jumpi\n    /* \"#utility.yul\":4617:4626   */\n  dup5\n    /* \"#utility.yul\":4612:4615   */\n  dup10\n    /* \"#utility.yul\":4608:4627   */\n  add\n    /* \"#utility.yul\":4602:4628   */\n  mload\n    /* \"#utility.yul\":4594:4600   */\n  dup3\n    /* \"#utility.yul\":4587:4629   */\n  sstore\n    /* \"#utility.yul\":4668:4669   */\n  0x01\n    /* \"#utility.yul\":4660:4666   */\n  dup3\n    /* \"#utility.yul\":4656:4670   */\n  add\n    /* \"#utility.yul\":4646:4670   */\n  swap2\n  pop\n    /* \"#utility.yul\":4715:4717   */\n  0x20\n    /* \"#utility.yul\":4704:4713   */\n  dup6\n    /* \"#utility.yul\":4700:4718   */\n  add\n    /* \"#utility.yul\":4687:4718   */\n  swap5\n  pop\n    /* \"#utility.yul\":4561:4565   */\n  0x20\n    /* \"#utility.yul\":4558:4559   */\n  dup2\n    /* \"#utility.yul\":4554:4566   */\n  add\n    /* \"#utility.yul\":4549:4566   */\n  swap1\n  pop\n    /* \"#utility.yul\":4524:4732   */\n  jump(tag_86)\ntag_88:\n    /* \"#utility.yul\":4760:4766   */\n  dup7\n    /* \"#utility.yul\":4751:4758   */\n  dup4\n    /* \"#utility.yul\":4748:4767   */\n  lt\n    /* \"#utility.yul\":4745:4924   */\n  iszero\n  tag_89\n  jumpi\n    /* \"#utility.yul\":4818:4827   */\n  dup5\n    /* \"#utility.yul\":4813:4816   */\n  dup10\n    /* \"#utility.yul\":4809:4828   */\n  add\n    /* \"#utility.yul\":4803:4829   */\n  mload\n    /* \"#utility.yul\":4861:4909   */\n  tag_90\n    /* \"#utility.yul\":4903:4907   */\n  0x1f\n    /* \"#utility.yul\":4895:4901   */\n  dup10\n    /* \"#utility.yul\":4891:4908   */\n  and\n    /* \"#utility.yul\":4880:4889   */\n  dup3\n    /* \"#utility.yul\":4861:4909   */\n  tag_25\n  jump\t// in\ntag_90:\n    /* \"#utility.yul\":4853:4859   */\n  dup4\n    /* \"#utility.yul\":4846:4910   */\n  sstore\n    /* \"#utility.yul\":4768:4924   */\n  pop\n    /* \"#utility.yul\":4745:4924   */\ntag_89:\n    /* \"#utility.yul\":4970:4971   */\n  0x01\n    /* \"#utility.yul\":4966:4967   */\n  0x02\n    /* \"#utility.yul\":4958:4964   */\n  dup9\n    /* \"#utility.yul\":4954:4968   */\n  mul\n    /* \"#utility.yul\":4950:4972   */\n  add\n    /* \"#utility.yul\":4944:4948   */\n  dup9\n    /* \"#utility.yul\":4937:4973   */\n  sstore\n    /* \"#utility.yul\":4372:4983   */\n  pop\n  pop\n  pop\n    /* \"#utility.yul\":4335:5222   */\ntag_81:\n  pop\n    /* \"#utility.yul\":3925:5228   */\n  pop\n  pop\n  pop\n    /* \"#utility.yul\":3833:5228   */\n  pop\n  pop\n  jump\t// out\n    /* \"#utility.yul\":5234:5374   */\ntag_27:\n    /* \"#utility.yul\":5282:5286   */\n  0x00\n    /* \"#utility.yul\":5305:5308   */\n  dup2\n    /* \"#utility.yul\":5297:5308   */\n  swap1\n  pop\n    /* \"#utility.yul\":5328:5331   */\n  dup2\n    /* \"#utility.yul\":5325:5326   */\n  0x00\n    /* \"#utility.yul\":5318:5332   */\n  mstore\n    /* \"#utility.yul\":5362:5366   */\n  0x20\n    /* \"#utility.yul\":5359:5360   */\n  0x00\n    /* \"#utility.yul\":5349:5367   */\n  keccak256\n    /* \"#utility.yul\":5341:5367   */\n  swap1\n  pop\n    /* \"#utility.yul\":5234:5374   */\n  swap2\n  swap1\n  pop\n  jump\t// out\n    /* \"#utility.yul\":5380:5921   */\ntag_28:\n    /* \"#utility.yul\":5480:5482   */\n  0x1f\n    /* \"#utility.yul\":5475:5478   */\n  dup3\n    /* \"#utility.yul\":5472:5483   */\n  gt\n    /* \"#utility.yul\":5469:5914   */\n  iszero\n  tag_93\n  jumpi\n    /* \"#utility.yul\":5514:5551   */\n  tag_94\n    /* \"#utility.yul\":5545:5550   */\n  dup2\n    /* \"#utility.yul\":5514:5551   */\n  tag_27\n  jump\t// in\ntag_94:\n    /* \"#utility.yul\":5597:5626   */\n  tag_95\n    /* \"#utility.yul\":5615:5625   */\n  dup5\n    /* \"#utility.yul\":5597:5626   */\n  tag_12\n  jump\t// in\ntag_95:\n    /* \"#utility.yul\":5587:5595   */\n  dup2\n    /* \"#utility.yul\":5583:5627   */\n  add\n    /* \"#utility.yul\":5780:5782   */\n  0x20\n    /* \"#utility.yul\":5768:5778   */\n  dup6\n    /* \"#utility.yul\":5765:5783   */\n  lt\n    /* \"#utility.yul\":5762:5811   */\n  iszero\n  tag_96\n  jumpi\n    /* \"#utility.yul\":5801:5809   */\n  dup2\n    /* \"#utility.yul\":5786:5809   */\n  swap1\n  pop\n    /* \"#utility.yul\":5762:5811   */\ntag_96:\n    /* \"#utility.yul\":5824:5904   */\n  tag_97\n    /* \"#utility.yul\":5880:5902   */\n  tag_98\n    /* \"#utility.yul\":5898:5901   */\n  dup6\n    /* \"#utility.yul\":5880:5902   */\n  tag_12\n  jump\t// in\ntag_98:\n    /* \"#utility.yul\":5870:5878   */\n  dup4\n    /* \"#utility.yul\":5866:5903   */\n  add\n    /* \"#utility.yul\":5853:5864   */\n  dup3\n    /* \"#utility.yul\":5824:5904   */\n  tag_22\n  jump\t// in\ntag_97:\n    /* \"#utility.yul\":5484:5914   */\n  pop\n  pop\n    /* \"#utility.yul\":5469:5914   */\ntag_93:\n    /* \"#utility.yul\":5380:5921   */\n  pop\n  pop\n  pop\n  jump\t// out\n    /* \"#utility.yul\":5927:7319   */\ntag_4:\n    /* \"#utility.yul\":6043:6080   */\n  tag_100\n    /* \"#utility.yul\":6076:6079   */\n  dup3\n    /* \"#utility.yul\":6043:6080   */\n  tag_7\n  jump\t// in\ntag_100:\n    /* \"#utility.yul\":6145:6163   */\n  0xffffffffffffffff\n    /* \"#utility.yul\":6137:6143   */\n  dup2\n    /* \"#utility.yul\":6134:6164   */\n  gt\n    /* \"#utility.yul\":6131:6187   */\n  iszero\n  tag_101\n  jumpi\n    /* \"#utility.yul\":6167:6185   */\n  tag_102\n  tag_8\n  jump\t// in\ntag_102:\n    /* \"#utility.yul\":6131:6187   */\ntag_101:\n    /* \"#utility.yul\":6211:6249   */\n  tag_103\n    /* \"#utility.yul\":6243:6247   */\n  dup3\n    /* \"#utility.yul\":6237:6248   */\n  sload\n    /* \"#utility.yul\":6211:6249   */\n  tag_10\n  jump\t// in\ntag_103:\n    /* \"#utility.yul\":6296:6362   */\n  tag_104\n    /* \"#utility.yul\":6355:6361   */\n  dup3\n    /* \"#utility.yul\":6347:6353   */\n  dup3\n    /* \"#utility.yul\":6341:6345   */\n  dup6\n    /* \"#utility.yul\":6296:6362   */\n  tag_28\n  jump\t// in\ntag_104:\n    /* \"#utility.yul\":6389:6390   */\n  0x00\n    /* \"#utility.yul\":6413:6417   */\n  0x20\n    /* \"#utility.yul\":6400:6417   */\n  swap1\n  pop\n    /* \"#utility.yul\":6445:6447   */\n  0x1f\n    /* \"#utility.yul\":6437:6443   */\n  dup4\n    /* \"#utility.yul\":6434:6448   */\n  gt\n    /* \"#utility.yul\":6462:6463   */\n  0x01\n    /* \"#utility.yul\":6457:7074   */\n  dup2\n  eq\n  tag_106\n  jumpi\n    /* \"#utility.yul\":7118:7119   */\n  0x00\n    /* \"#utility.yul\":7135:7141   */\n  dup5\n    /* \"#utility.yul\":7132:7209   */\n  iszero\n  tag_107\n  jumpi\n    /* \"#utility.yul\":7184:7193   */\n  dup3\n    /* \"#utility.yul\":7179:7182   */\n  dup8\n    /* \"#utility.yul\":7175:7194   */\n  add\n    /* \"#utility.yul\":7169:7195   */\n  mload\n    /* \"#utility.yul\":7160:7195   */\n  swap1\n  pop\n    /* \"#utility.yul\":7132:7209   */\ntag_107:\n    /* \"#utility.yul\":7235:7302   */\n  tag_108\n    /* \"#utility.yul\":7295:7301   */\n  dup6\n    /* \"#utility.yul\":7288:7293   */\n  dup3\n    /* \"#utility.yul\":7235:7302   */\n  tag_26\n  jump\t// in\ntag_108:\n    /* \"#utility.yul\":7229:7233   */\n  dup7\n    /* \"#utility.yul\":7222:7303   */\n  sstore\n    /* \"#utility.yul\":7091:7313   */\n  pop\n    /* \"#utility.yul\":6427:7313   */\n  jump(tag_105)\n    /* \"#utility.yul\":6457:7074   */\ntag_106:\n    /* \"#utility.yul\":6509:6513   */\n  0x1f\n    /* \"#utility.yul\":6505:6514   */\n  not\n    /* \"#utility.yul\":6497:6503   */\n  dup5\n    /* \"#utility.yul\":6493:6515   */\n  and\n    /* \"#utility.yul\":6543:6579   */\n  tag_109\n    /* \"#utility.yul\":6574:6578   */\n  dup7\n    /* \"#utility.yul\":6543:6579   */\n  tag_27\n  jump\t// in\ntag_109:\n    /* \"#utility.yul\":6601:6602   */\n  0x00\n    /* \"#utility.yul\":6615:6823   */\ntag_110:\n    /* \"#utility.yul\":6629:6636   */\n  dup3\n    /* \"#utility.yul\":6626:6627   */\n  dup2\n    /* \"#utility.yul\":6623:6637   */\n  lt\n    /* \"#utility.yul\":6615:6823   */\n  iszero\n  tag_112\n  jumpi\n    /* \"#utility.yul\":6708:6717   */\n  dup5\n    /* \"#utility.yul\":6703:6706   */\n  dup10\n    /* \"#utility.yul\":6699:6718   */\n  add\n    /* \"#utility.yul\":6693:6719   */\n  mload\n    /* \"#utility.yul\":6685:6691   */\n  dup3\n    /* \"#utility.yul\":6678:6720   */\n  sstore\n    /* \"#utility.yul\":6759:6760   */\n  0x01\n    /* \"#utility.yul\":6751:6757   */\n  dup3\n    /* \"#utility.yul\":6747:6761   */\n  add\n    /* \"#utility.yul\":6737:6761   */\n  swap2\n  pop\n    /* \"#utility.yul\":6806:6808   */\n  0x20\n    /* \"#utility.yul\":6795:6804   */\n  dup6\n    /* \"#utility.yul\":6791:6809   */\n  add\n    /* \"#utility.yul\":6778:6809   */\n  swap5\n  pop\n    /* \"#utility.yul\":6652:6656   */\n  0x20\n    /* \"#utility.yul\":6649:6650   */\n  dup2\n    /* \"#utility.yul\":6645:6657   */\n  add\n    /* \"#utility.yul\":6640:6657   */\n  swap1\n  pop\n    /* \"#utility.yul\":6615:6823   */\n  jump(tag_110)\ntag_112:\n    /* \"#utility.yul\":6851:6857   */\n  dup7\n    /* \"#utility.yul\":6842:6849   */\n  dup4\n    /* \"#utility.yul\":6839:6858   */\n  lt\n    /* \"#utility.yul\":6836:7015   */\n  iszero\n  tag_113\n  jumpi\n    /* \"#utility.yul\":6909:6918   */\n  dup5\n    /* \"#utility.yul\":6904:6907   */\n  dup10\n    /* \"#utility.yul\":6900:6919   */\n  add\n    /* \"#utility.yul\":6894:6920   */\n  mload\n    /* \"#utility.yul\":6952:7000   */\n  tag_114\n    /* \"#utility.yul\":6994:6998   */\n  0x1f\n    /* \"#utility.yul\":6986:6992   */\n  dup10\n    /* \"#utility.yul\":6982:6999   */\n  and\n    /* \"#utility.yul\":6971:6980   */\n  dup3\n    /* \"#utility.yul\":6952:7000   */\n  tag_25\n  jump\t// in\ntag_114:\n    /* \"#utility.yul\":6944:6950   */\n  dup4\n    /* \"#utility.yul\":6937:7001   */\n  sstore\n    /* \"#utility.yul\":6859:7015   */\n  pop\n    /* \"#utility.yul\":6836:7015   */\ntag_113:\n    /* \"#utility.yul\":7061:7062   */\n  0x01\n    /* \"#utility.yul\":7057:7058   */\n  0x02\n    /* \"#utility.yul\":7049:7055   */\n  dup9\n    /* \"#utility.yul\":7045:7059   */\n  mul\n    /* \"#utility.yul\":7041:7063   */\n  add\n    /* \"#utility.yul\":7035:7039   */\n  dup9\n    /* \"#utility.yul\":7028:7064   */\n  sstore\n    /* \"#utility.yul\":6464:7074   */\n  pop\n  pop\n  pop\n    /* \"#utility.yul\":6427:7313   */\ntag_105:\n  pop\n    /* \"#utility.yul\":6018:7319   */\n  pop\n  pop\n  pop\n    /* \"#utility.yul\":5927:7319   */\n  pop\n  pop\n  jump\t// out\n    /* \"contracts/MyContract.sol\":61:537  contract MyContract{... */\ntag_6:\n  dataSize(sub_0)\n  dup1\n  dataOffset(sub_0)\n  0x00\n  codecopy\n  0x00\n  return\nstop\n\nsub_0: assembly {\n        /* \"contracts/MyContract.sol\":61:537  contract MyContract{... */\n      mstore(0x40, 0x80)\n      callvalue\n      dup1\n      iszero\n      tag_1\n      jumpi\n      0x00\n      dup1\n      revert\n    tag_1:\n      pop\n      jumpi(tag_2, lt(calldatasize, 0x04))\n      shr(0xe0, calldataload(0x00))\n      dup1\n      0x037a96b6\n      eq\n      tag_3\n      jumpi\n      dup1\n      0x390a0099\n      eq\n      tag_4\n      jumpi\n      dup1\n      0x5ce25353\n      eq\n      tag_5\n      jumpi\n    tag_2:\n      0x00\n      dup1\n      revert\n        /* \"contracts/MyContract.sol\":165:270  function updateOurString(string memory _updateString) public {... */\n    tag_3:\n      tag_6\n      0x04\n      dup1\n      calldatasize\n      sub\n      dup2\n      add\n      swap1\n      tag_7\n      swap2\n      swap1\n      tag_8\n      jump\t// in\n    tag_7:\n      tag_9\n      jump\t// in\n    tag_6:\n      stop\n        /* \"contracts/MyContract.sol\":87:126  string public ourString = \"Hello World\" */\n    tag_4:\n      tag_10\n      tag_11\n      jump\t// in\n    tag_10:\n      mload(0x40)\n      tag_12\n      swap2\n      swap1\n      tag_13\n      jump\t// in\n    tag_12:\n      mload(0x40)\n      dup1\n      swap2\n      sub\n      swap1\n      return\n        /* \"contracts/MyContract.sol\":343:534  function compareTwoStrings(string memory _updateString) public view returns(bool){... */\n    tag_5:\n      tag_14\n      0x04\n      dup1\n      calldatasize\n      sub\n      dup2\n      add\n      swap1\n      tag_15\n      swap2\n      swap1\n      tag_8\n      jump\t// in\n    tag_15:\n      tag_16\n      jump\t// in\n    tag_14:\n      mload(0x40)\n      tag_17\n      swap2\n      swap1\n      tag_18\n      jump\t// in\n    tag_17:\n      mload(0x40)\n      dup1\n      swap2\n      sub\n      swap1\n      return\n        /* \"contracts/MyContract.sol\":165:270  function updateOurString(string memory _updateString) public {... */\n    tag_9:\n        /* \"contracts/MyContract.sol\":249:262  _updateString */\n      dup1\n        /* \"contracts/MyContract.sol\":237:246  ourString */\n      0x00\n        /* \"contracts/MyContract.sol\":237:262  ourString = _updateString */\n      swap1\n      dup2\n      tag_20\n      swap2\n      swap1\n      tag_21\n      jump\t// in\n    tag_20:\n      pop\n        /* \"contracts/MyContract.sol\":165:270  function updateOurString(string memory _updateString) public {... */\n      pop\n      jump\t// out\n        /* \"contracts/MyContract.sol\":87:126  string public ourString = \"Hello World\" */\n    tag_11:\n      0x00\n      dup1\n      sload\n      tag_22\n      swap1\n      tag_23\n      jump\t// in\n    tag_22:\n      dup1\n      0x1f\n      add\n      0x20\n      dup1\n      swap2\n      div\n      mul\n      0x20\n      add\n      mload(0x40)\n      swap1\n      dup2\n      add\n      0x40\n      mstore\n      dup1\n      swap3\n      swap2\n      swap1\n      dup2\n      dup2\n      mstore\n      0x20\n      add\n      dup3\n      dup1\n      sload\n      tag_24\n      swap1\n      tag_23\n      jump\t// in\n    tag_24:\n      dup1\n      iszero\n      tag_25\n      jumpi\n      dup1\n      0x1f\n      lt\n      tag_26\n      jumpi\n      0x0100\n      dup1\n      dup4\n      sload\n      div\n      mul\n      dup4\n      mstore\n      swap2\n      0x20\n      add\n      swap2\n      jump(tag_25)\n    tag_26:\n      dup3\n      add\n      swap2\n      swap1\n      0x00\n      mstore\n      keccak256(0x00, 0x20)\n      swap1\n    tag_27:\n      dup2\n      sload\n      dup2\n      mstore\n      swap1\n      0x01\n      add\n      swap1\n      0x20\n      add\n      dup1\n      dup4\n      gt\n      tag_27\n      jumpi\n      dup3\n      swap1\n      sub\n      0x1f\n      and\n      dup3\n      add\n      swap2\n    tag_25:\n      pop\n      pop\n      pop\n      pop\n      pop\n      dup2\n      jump\t// out\n        /* \"contracts/MyContract.sol\":343:534  function compareTwoStrings(string memory _updateString) public view returns(bool){... */\n    tag_16:\n        /* \"contracts/MyContract.sol\":419:423  bool */\n      0x00\n        /* \"contracts/MyContract.sol\":511:524  _updateString */\n      dup2\n        /* \"contracts/MyContract.sol\":494:525  abi.encodePacked(_updateString) */\n      add(0x20, mload(0x40))\n      tag_29\n      swap2\n      swap1\n      tag_30\n      jump\t// in\n    tag_29:\n      mload(0x40)\n      0x20\n      dup2\n      dup4\n      sub\n      sub\n      dup2\n      mstore\n      swap1\n      0x40\n      mstore\n        /* \"contracts/MyContract.sol\":484:526  keccak256(abi.encodePacked(_updateString)) */\n      dup1\n      mload\n      swap1\n      0x20\n      add\n      keccak256\n        /* \"contracts/MyContract.sol\":469:478  ourString */\n      0x00\n        /* \"contracts/MyContract.sol\":452:479  abi.encodePacked(ourString) */\n      add(0x20, mload(0x40))\n      tag_31\n      swap2\n      swap1\n      tag_32\n      jump\t// in\n    tag_31:\n      mload(0x40)\n      0x20\n      dup2\n      dup4\n      sub\n      sub\n      dup2\n      mstore\n      swap1\n      0x40\n      mstore\n        /* \"contracts/MyContract.sol\":442:480  keccak256(abi.encodePacked(ourString)) */\n      dup1\n      mload\n      swap1\n      0x20\n      add\n      keccak256\n        /* \"contracts/MyContract.sol\":442:526  keccak256(abi.encodePacked(ourString)) == keccak256(abi.encodePacked(_updateString)) */\n      eq\n        /* \"contracts/MyContract.sol\":435:526  return keccak256(abi.encodePacked(ourString)) == keccak256(abi.encodePacked(_updateString)) */\n      swap1\n      pop\n        /* \"contracts/MyContract.sol\":343:534  function compareTwoStrings(string memory _updateString) public view returns(bool){... */\n      swap2\n      swap1\n      pop\n      jump\t// out\n        /* \"#utility.yul\":7:82   */\n    tag_33:\n        /* \"#utility.yul\":40:46   */\n      0x00\n        /* \"#utility.yul\":73:75   */\n      0x40\n        /* \"#utility.yul\":67:76   */\n      mload\n        /* \"#utility.yul\":57:76   */\n      swap1\n      pop\n        /* \"#utility.yul\":7:82   */\n      swap1\n      jump\t// out\n        /* \"#utility.yul\":88:205   */\n    tag_34:\n        /* \"#utility.yul\":197:198   */\n      0x00\n        /* \"#utility.yul\":194:195   */\n      dup1\n        /* \"#utility.yul\":187:199   */\n      revert\n        /* \"#utility.yul\":211:328   */\n    tag_35:\n        /* \"#utility.yul\":320:321   */\n      0x00\n        /* \"#utility.yul\":317:318   */\n      dup1\n        /* \"#utility.yul\":310:322   */\n      revert\n        /* \"#utility.yul\":334:451   */\n    tag_36:\n        /* \"#utility.yul\":443:444   */\n      0x00\n        /* \"#utility.yul\":440:441   */\n      dup1\n        /* \"#utility.yul\":433:445   */\n      revert\n        /* \"#utility.yul\":457:574   */\n    tag_37:\n        /* \"#utility.yul\":566:567   */\n      0x00\n        /* \"#utility.yul\":563:564   */\n      dup1\n        /* \"#utility.yul\":556:568   */\n      revert\n        /* \"#utility.yul\":580:682   */\n    tag_38:\n        /* \"#utility.yul\":621:627   */\n      0x00\n        /* \"#utility.yul\":672:674   */\n      0x1f\n        /* \"#utility.yul\":668:675   */\n      not\n        /* \"#utility.yul\":663:665   */\n      0x1f\n        /* \"#utility.yul\":656:661   */\n      dup4\n        /* \"#utility.yul\":652:666   */\n      add\n        /* \"#utility.yul\":648:676   */\n      and\n        /* \"#utility.yul\":638:676   */\n      swap1\n      pop\n        /* \"#utility.yul\":580:682   */\n      swap2\n      swap1\n      pop\n      jump\t// out\n        /* \"#utility.yul\":688:868   */\n    tag_39:\n        /* \"#utility.yul\":736:813   */\n      0x4e487b7100000000000000000000000000000000000000000000000000000000\n        /* \"#utility.yul\":733:734   */\n      0x00\n        /* \"#utility.yul\":726:814   */\n      mstore\n        /* \"#utility.yul\":833:837   */\n      0x41\n        /* \"#utility.yul\":830:831   */\n      0x04\n        /* \"#utility.yul\":823:838   */\n      mstore\n        /* \"#utility.yul\":857:861   */\n      0x24\n        /* \"#utility.yul\":854:855   */\n      0x00\n        /* \"#utility.yul\":847:862   */\n      revert\n        /* \"#utility.yul\":874:1155   */\n    tag_40:\n        /* \"#utility.yul\":957:984   */\n      tag_81\n        /* \"#utility.yul\":979:983   */\n      dup3\n        /* \"#utility.yul\":957:984   */\n      tag_38\n      jump\t// in\n    tag_81:\n        /* \"#utility.yul\":949:955   */\n      dup2\n        /* \"#utility.yul\":945:985   */\n      add\n        /* \"#utility.yul\":1087:1093   */\n      dup2\n        /* \"#utility.yul\":1075:1085   */\n      dup2\n        /* \"#utility.yul\":1072:1094   */\n      lt\n        /* \"#utility.yul\":1051:1069   */\n      0xffffffffffffffff\n        /* \"#utility.yul\":1039:1049   */\n      dup3\n        /* \"#utility.yul\":1036:1070   */\n      gt\n        /* \"#utility.yul\":1033:1095   */\n      or\n        /* \"#utility.yul\":1030:1118   */\n      iszero\n      tag_82\n      jumpi\n        /* \"#utility.yul\":1098:1116   */\n      tag_83\n      tag_39\n      jump\t// in\n    tag_83:\n        /* \"#utility.yul\":1030:1118   */\n    tag_82:\n        /* \"#utility.yul\":1138:1148   */\n      dup1\n        /* \"#utility.yul\":1134:1136   */\n      0x40\n        /* \"#utility.yul\":1127:1149   */\n      mstore\n        /* \"#utility.yul\":917:1155   */\n      pop\n        /* \"#utility.yul\":874:1155   */\n      pop\n      pop\n      jump\t// out\n        /* \"#utility.yul\":1161:1290   */\n    tag_41:\n        /* \"#utility.yul\":1195:1201   */\n      0x00\n        /* \"#utility.yul\":1222:1242   */\n      tag_85\n      tag_33\n      jump\t// in\n    tag_85:\n        /* \"#utility.yul\":1212:1242   */\n      swap1\n      pop\n        /* \"#utility.yul\":1251:1284   */\n      tag_86\n        /* \"#utility.yul\":1279:1283   */\n      dup3\n        /* \"#utility.yul\":1271:1277   */\n      dup3\n        /* \"#utility.yul\":1251:1284   */\n      tag_40\n      jump\t// in\n    tag_86:\n        /* \"#utility.yul\":1161:1290   */\n      swap2\n      swap1\n      pop\n      jump\t// out\n        /* \"#utility.yul\":1296:1604   */\n    tag_42:\n        /* \"#utility.yul\":1358:1362   */\n      0x00\n        /* \"#utility.yul\":1448:1466   */\n      0xffffffffffffffff\n        /* \"#utility.yul\":1440:1446   */\n      dup3\n        /* \"#utility.yul\":1437:1467   */\n      gt\n        /* \"#utility.yul\":1434:1490   */\n      iszero\n      tag_88\n      jumpi\n        /* \"#utility.yul\":1470:1488   */\n      tag_89\n      tag_39\n      jump\t// in\n    tag_89:\n        /* \"#utility.yul\":1434:1490   */\n    tag_88:\n        /* \"#utility.yul\":1508:1537   */\n      tag_90\n        /* \"#utility.yul\":1530:1536   */\n      dup3\n        /* \"#utility.yul\":1508:1537   */\n      tag_38\n      jump\t// in\n    tag_90:\n        /* \"#utility.yul\":1500:1537   */\n      swap1\n      pop\n        /* \"#utility.yul\":1592:1596   */\n      0x20\n        /* \"#utility.yul\":1586:1590   */\n      dup2\n        /* \"#utility.yul\":1582:1597   */\n      add\n        /* \"#utility.yul\":1574:1597   */\n      swap1\n      pop\n        /* \"#utility.yul\":1296:1604   */\n      swap2\n      swap1\n      pop\n      jump\t// out\n        /* \"#utility.yul\":1610:1758   */\n    tag_43:\n        /* \"#utility.yul\":1708:1714   */\n      dup3\n        /* \"#utility.yul\":1703:1706   */\n      dup2\n        /* \"#utility.yul\":1698:1701   */\n      dup4\n        /* \"#utility.yul\":1685:1715   */\n      calldatacopy\n        /* \"#utility.yul\":1749:1750   */\n      0x00\n        /* \"#utility.yul\":1740:1746   */\n      dup4\n        /* \"#utility.yul\":1735:1738   */\n      dup4\n        /* \"#utility.yul\":1731:1747   */\n      add\n        /* \"#utility.yul\":1724:1751   */\n      mstore\n        /* \"#utility.yul\":1610:1758   */\n      pop\n      pop\n      pop\n      jump\t// out\n        /* \"#utility.yul\":1764:2189   */\n    tag_44:\n        /* \"#utility.yul\":1842:1847   */\n      0x00\n        /* \"#utility.yul\":1867:1933   */\n      tag_93\n        /* \"#utility.yul\":1883:1932   */\n      tag_94\n        /* \"#utility.yul\":1925:1931   */\n      dup5\n        /* \"#utility.yul\":1883:1932   */\n      tag_42\n      jump\t// in\n    tag_94:\n        /* \"#utility.yul\":1867:1933   */\n      tag_41\n      jump\t// in\n    tag_93:\n        /* \"#utility.yul\":1858:1933   */\n      swap1\n      pop\n        /* \"#utility.yul\":1956:1962   */\n      dup3\n        /* \"#utility.yul\":1949:1954   */\n      dup2\n        /* \"#utility.yul\":1942:1963   */\n      mstore\n        /* \"#utility.yul\":1994:1998   */\n      0x20\n        /* \"#utility.yul\":1987:1992   */\n      dup2\n        /* \"#utility.yul\":1983:1999   */\n      add\n        /* \"#utility.yul\":2032:2035   */\n      dup5\n        /* \"#utility.yul\":2023:2029   */\n      dup5\n        /* \"#utility.yul\":2018:2021   */\n      dup5\n        /* \"#utility.yul\":2014:2030   */\n      add\n        /* \"#utility.yul\":2011:2036   */\n      gt\n        /* \"#utility.yul\":2008:2120   */\n      iszero\n      tag_95\n      jumpi\n        /* \"#utility.yul\":2039:2118   */\n      tag_96\n      tag_37\n      jump\t// in\n    tag_96:\n        /* \"#utility.yul\":2008:2120   */\n    tag_95:\n        /* \"#utility.yul\":2129:2183   */\n      tag_97\n        /* \"#utility.yul\":2176:2182   */\n      dup5\n        /* \"#utility.yul\":2171:2174   */\n      dup3\n        /* \"#utility.yul\":2166:2169   */\n      dup6\n        /* \"#utility.yul\":2129:2183   */\n      tag_43\n      jump\t// in\n    tag_97:\n        /* \"#utility.yul\":1848:2189   */\n      pop\n        /* \"#utility.yul\":1764:2189   */\n      swap4\n      swap3\n      pop\n      pop\n      pop\n      jump\t// out\n        /* \"#utility.yul\":2209:2549   */\n    tag_45:\n        /* \"#utility.yul\":2265:2270   */\n      0x00\n        /* \"#utility.yul\":2314:2317   */\n      dup3\n        /* \"#utility.yul\":2307:2311   */\n      0x1f\n        /* \"#utility.yul\":2299:2305   */\n      dup4\n        /* \"#utility.yul\":2295:2312   */\n      add\n        /* \"#utility.yul\":2291:2318   */\n      slt\n        /* \"#utility.yul\":2281:2403   */\n      tag_99\n      jumpi\n        /* \"#utility.yul\":2322:2401   */\n      tag_100\n      tag_36\n      jump\t// in\n    tag_100:\n        /* \"#utility.yul\":2281:2403   */\n    tag_99:\n        /* \"#utility.yul\":2439:2445   */\n      dup2\n        /* \"#utility.yul\":2426:2446   */\n      calldataload\n        /* \"#utility.yul\":2464:2543   */\n      tag_101\n        /* \"#utility.yul\":2539:2542   */\n      dup5\n        /* \"#utility.yul\":2531:2537   */\n      dup3\n        /* \"#utility.yul\":2524:2528   */\n      0x20\n        /* \"#utility.yul\":2516:2522   */\n      dup7\n        /* \"#utility.yul\":2512:2529   */\n      add\n        /* \"#utility.yul\":2464:2543   */\n      tag_44\n      jump\t// in\n    tag_101:\n        /* \"#utility.yul\":2455:2543   */\n      swap2\n      pop\n        /* \"#utility.yul\":2271:2549   */\n      pop\n        /* \"#utility.yul\":2209:2549   */\n      swap3\n      swap2\n      pop\n      pop\n      jump\t// out\n        /* \"#utility.yul\":2555:3064   */\n    tag_8:\n        /* \"#utility.yul\":2624:2630   */\n      0x00\n        /* \"#utility.yul\":2673:2675   */\n      0x20\n        /* \"#utility.yul\":2661:2670   */\n      dup3\n        /* \"#utility.yul\":2652:2659   */\n      dup5\n        /* \"#utility.yul\":2648:2671   */\n      sub\n        /* \"#utility.yul\":2644:2676   */\n      slt\n        /* \"#utility.yul\":2641:2760   */\n      iszero\n      tag_103\n      jumpi\n        /* \"#utility.yul\":2679:2758   */\n      tag_104\n      tag_34\n      jump\t// in\n    tag_104:\n        /* \"#utility.yul\":2641:2760   */\n    tag_103:\n        /* \"#utility.yul\":2827:2828   */\n      0x00\n        /* \"#utility.yul\":2816:2825   */\n      dup3\n        /* \"#utility.yul\":2812:2829   */\n      add\n        /* \"#utility.yul\":2799:2830   */\n      calldataload\n        /* \"#utility.yul\":2857:2875   */\n      0xffffffffffffffff\n        /* \"#utility.yul\":2849:2855   */\n      dup2\n        /* \"#utility.yul\":2846:2876   */\n      gt\n        /* \"#utility.yul\":2843:2960   */\n      iszero\n      tag_105\n      jumpi\n        /* \"#utility.yul\":2879:2958   */\n      tag_106\n      tag_35\n      jump\t// in\n    tag_106:\n        /* \"#utility.yul\":2843:2960   */\n    tag_105:\n        /* \"#utility.yul\":2984:3047   */\n      tag_107\n        /* \"#utility.yul\":3039:3046   */\n      dup5\n        /* \"#utility.yul\":3030:3036   */\n      dup3\n        /* \"#utility.yul\":3019:3028   */\n      dup6\n        /* \"#utility.yul\":3015:3037   */\n      add\n        /* \"#utility.yul\":2984:3047   */\n      tag_45\n      jump\t// in\n    tag_107:\n        /* \"#utility.yul\":2974:3047   */\n      swap2\n      pop\n        /* \"#utility.yul\":2770:3057   */\n      pop\n        /* \"#utility.yul\":2555:3064   */\n      swap3\n      swap2\n      pop\n      pop\n      jump\t// out\n        /* \"#utility.yul\":3070:3169   */\n    tag_46:\n        /* \"#utility.yul\":3122:3128   */\n      0x00\n        /* \"#utility.yul\":3156:3161   */\n      dup2\n        /* \"#utility.yul\":3150:3162   */\n      mload\n        /* \"#utility.yul\":3140:3162   */\n      swap1\n      pop\n        /* \"#utility.yul\":3070:3169   */\n      swap2\n      swap1\n      pop\n      jump\t// out\n        /* \"#utility.yul\":3175:3344   */\n    tag_47:\n        /* \"#utility.yul\":3259:3270   */\n      0x00\n        /* \"#utility.yul\":3293:3299   */\n      dup3\n        /* \"#utility.yul\":3288:3291   */\n      dup3\n        /* \"#utility.yul\":3281:3300   */\n      mstore\n        /* \"#utility.yul\":3333:3337   */\n      0x20\n        /* \"#utility.yul\":3328:3331   */\n      dup3\n        /* \"#utility.yul\":3324:3338   */\n      add\n        /* \"#utility.yul\":3309:3338   */\n      swap1\n      pop\n        /* \"#utility.yul\":3175:3344   */\n      swap3\n      swap2\n      pop\n      pop\n      jump\t// out\n        /* \"#utility.yul\":3350:3489   */\n    tag_48:\n        /* \"#utility.yul\":3439:3445   */\n      dup3\n        /* \"#utility.yul\":3434:3437   */\n      dup2\n        /* \"#utility.yul\":3429:3432   */\n      dup4\n        /* \"#utility.yul\":3423:3446   */\n      mcopy\n        /* \"#utility.yul\":3480:3481   */\n      0x00\n        /* \"#utility.yul\":3471:3477   */\n      dup4\n        /* \"#utility.yul\":3466:3469   */\n      dup4\n        /* \"#utility.yul\":3462:3478   */\n      add\n        /* \"#utility.yul\":3455:3482   */\n      mstore\n        /* \"#utility.yul\":3350:3489   */\n      pop\n      pop\n      pop\n      jump\t// out\n        /* \"#utility.yul\":3495:3872   */\n    tag_49:\n        /* \"#utility.yul\":3583:3586   */\n      0x00\n        /* \"#utility.yul\":3611:3650   */\n      tag_112\n        /* \"#utility.yul\":3644:3649   */\n      dup3\n        /* \"#utility.yul\":3611:3650   */\n      tag_46\n      jump\t// in\n    tag_112:\n        /* \"#utility.yul\":3666:3737   */\n      tag_113\n        /* \"#utility.yul\":3730:3736   */\n      dup2\n        /* \"#utility.yul\":3725:3728   */\n      dup6\n        /* \"#utility.yul\":3666:3737   */\n      tag_47\n      jump\t// in\n    tag_113:\n        /* \"#utility.yul\":3659:3737   */\n      swap4\n      pop\n        /* \"#utility.yul\":3746:3811   */\n      tag_114\n        /* \"#utility.yul\":3804:3810   */\n      dup2\n        /* \"#utility.yul\":3799:3802   */\n      dup6\n        /* \"#utility.yul\":3792:3796   */\n      0x20\n        /* \"#utility.yul\":3785:3790   */\n      dup7\n        /* \"#utility.yul\":3781:3797   */\n      add\n        /* \"#utility.yul\":3746:3811   */\n      tag_48\n      jump\t// in\n    tag_114:\n        /* \"#utility.yul\":3836:3865   */\n      tag_115\n        /* \"#utility.yul\":3858:3864   */\n      dup2\n        /* \"#utility.yul\":3836:3865   */\n      tag_38\n      jump\t// in\n    tag_115:\n        /* \"#utility.yul\":3831:3834   */\n      dup5\n        /* \"#utility.yul\":3827:3866   */\n      add\n        /* \"#utility.yul\":3820:3866   */\n      swap2\n      pop\n        /* \"#utility.yul\":3587:3872   */\n      pop\n        /* \"#utility.yul\":3495:3872   */\n      swap3\n      swap2\n      pop\n      pop\n      jump\t// out\n        /* \"#utility.yul\":3878:4191   */\n    tag_13:\n        /* \"#utility.yul\":3991:3995   */\n      0x00\n        /* \"#utility.yul\":4029:4031   */\n      0x20\n        /* \"#utility.yul\":4018:4027   */\n      dup3\n        /* \"#utility.yul\":4014:4032   */\n      add\n        /* \"#utility.yul\":4006:4032   */\n      swap1\n      pop\n        /* \"#utility.yul\":4078:4087   */\n      dup2\n        /* \"#utility.yul\":4072:4076   */\n      dup2\n        /* \"#utility.yul\":4068:4088   */\n      sub\n        /* \"#utility.yul\":4064:4065   */\n      0x00\n        /* \"#utility.yul\":4053:4062   */\n      dup4\n        /* \"#utility.yul\":4049:4066   */\n      add\n        /* \"#utility.yul\":4042:4089   */\n      mstore\n        /* \"#utility.yul\":4106:4184   */\n      tag_117\n        /* \"#utility.yul\":4179:4183   */\n      dup2\n        /* \"#utility.yul\":4170:4176   */\n      dup5\n        /* \"#utility.yul\":4106:4184   */\n      tag_49\n      jump\t// in\n    tag_117:\n        /* \"#utility.yul\":4098:4184   */\n      swap1\n      pop\n        /* \"#utility.yul\":3878:4191   */\n      swap3\n      swap2\n      pop\n      pop\n      jump\t// out\n        /* \"#utility.yul\":4197:4287   */\n    tag_50:\n        /* \"#utility.yul\":4231:4238   */\n      0x00\n        /* \"#utility.yul\":4274:4279   */\n      dup2\n        /* \"#utility.yul\":4267:4280   */\n      iszero\n        /* \"#utility.yul\":4260:4281   */\n      iszero\n        /* \"#utility.yul\":4249:4281   */\n      swap1\n      pop\n        /* \"#utility.yul\":4197:4287   */\n      swap2\n      swap1\n      pop\n      jump\t// out\n        /* \"#utility.yul\":4293:4402   */\n    tag_51:\n        /* \"#utility.yul\":4374:4395   */\n      tag_120\n        /* \"#utility.yul\":4389:4394   */\n      dup2\n        /* \"#utility.yul\":4374:4395   */\n      tag_50\n      jump\t// in\n    tag_120:\n        /* \"#utility.yul\":4369:4372   */\n      dup3\n        /* \"#utility.yul\":4362:4396   */\n      mstore\n        /* \"#utility.yul\":4293:4402   */\n      pop\n      pop\n      jump\t// out\n        /* \"#utility.yul\":4408:4618   */\n    tag_18:\n        /* \"#utility.yul\":4495:4499   */\n      0x00\n        /* \"#utility.yul\":4533:4535   */\n      0x20\n        /* \"#utility.yul\":4522:4531   */\n      dup3\n        /* \"#utility.yul\":4518:4536   */\n      add\n        /* \"#utility.yul\":4510:4536   */\n      swap1\n      pop\n        /* \"#utility.yul\":4546:4611   */\n      tag_122\n        /* \"#utility.yul\":4608:4609   */\n      0x00\n        /* \"#utility.yul\":4597:4606   */\n      dup4\n        /* \"#utility.yul\":4593:4610   */\n      add\n        /* \"#utility.yul\":4584:4590   */\n      dup5\n        /* \"#utility.yul\":4546:4611   */\n      tag_51\n      jump\t// in\n    tag_122:\n        /* \"#utility.yul\":4408:4618   */\n      swap3\n      swap2\n      pop\n      pop\n      jump\t// out\n        /* \"#utility.yul\":4624:4804   */\n    tag_52:\n        /* \"#utility.yul\":4672:4749   */\n      0x4e487b7100000000000000000000000000000000000000000000000000000000\n        /* \"#utility.yul\":4669:4670   */\n      0x00\n        /* \"#utility.yul\":4662:4750   */\n      mstore\n        /* \"#utility.yul\":4769:4773   */\n      0x22\n        /* \"#utility.yul\":4766:4767   */\n      0x04\n        /* \"#utility.yul\":4759:4774   */\n      mstore\n        /* \"#utility.yul\":4793:4797   */\n      0x24\n        /* \"#utility.yul\":4790:4791   */\n      0x00\n        /* \"#utility.yul\":4783:4798   */\n      revert\n        /* \"#utility.yul\":4810:5130   */\n    tag_23:\n        /* \"#utility.yul\":4854:4860   */\n      0x00\n        /* \"#utility.yul\":4891:4892   */\n      0x02\n        /* \"#utility.yul\":4885:4889   */\n      dup3\n        /* \"#utility.yul\":4881:4893   */\n      div\n        /* \"#utility.yul\":4871:4893   */\n      swap1\n      pop\n        /* \"#utility.yul\":4938:4939   */\n      0x01\n        /* \"#utility.yul\":4932:4936   */\n      dup3\n        /* \"#utility.yul\":4928:4940   */\n      and\n        /* \"#utility.yul\":4959:4977   */\n      dup1\n        /* \"#utility.yul\":4949:5030   */\n      tag_125\n      jumpi\n        /* \"#utility.yul\":5015:5019   */\n      0x7f\n        /* \"#utility.yul\":5007:5013   */\n      dup3\n        /* \"#utility.yul\":5003:5020   */\n      and\n        /* \"#utility.yul\":4993:5020   */\n      swap2\n      pop\n        /* \"#utility.yul\":4949:5030   */\n    tag_125:\n        /* \"#utility.yul\":5077:5079   */\n      0x20\n        /* \"#utility.yul\":5069:5075   */\n      dup3\n        /* \"#utility.yul\":5066:5080   */\n      lt\n        /* \"#utility.yul\":5046:5064   */\n      dup2\n        /* \"#utility.yul\":5043:5081   */\n      sub\n        /* \"#utility.yul\":5040:5124   */\n      tag_126\n      jumpi\n        /* \"#utility.yul\":5096:5114   */\n      tag_127\n      tag_52\n      jump\t// in\n    tag_127:\n        /* \"#utility.yul\":5040:5124   */\n    tag_126:\n        /* \"#utility.yul\":4861:5130   */\n      pop\n        /* \"#utility.yul\":4810:5130   */\n      swap2\n      swap1\n      pop\n      jump\t// out\n        /* \"#utility.yul\":5136:5277   */\n    tag_53:\n        /* \"#utility.yul\":5185:5189   */\n      0x00\n        /* \"#utility.yul\":5208:5211   */\n      dup2\n        /* \"#utility.yul\":5200:5211   */\n      swap1\n      pop\n        /* \"#utility.yul\":5231:5234   */\n      dup2\n        /* \"#utility.yul\":5228:5229   */\n      0x00\n        /* \"#utility.yul\":5221:5235   */\n      mstore\n        /* \"#utility.yul\":5265:5269   */\n      0x20\n        /* \"#utility.yul\":5262:5263   */\n      0x00\n        /* \"#utility.yul\":5252:5270   */\n      keccak256\n        /* \"#utility.yul\":5244:5270   */\n      swap1\n      pop\n        /* \"#utility.yul\":5136:5277   */\n      swap2\n      swap1\n      pop\n      jump\t// out\n        /* \"#utility.yul\":5283:5376   */\n    tag_54:\n        /* \"#utility.yul\":5320:5326   */\n      0x00\n        /* \"#utility.yul\":5367:5369   */\n      0x20\n        /* \"#utility.yul\":5362:5364   */\n      0x1f\n        /* \"#utility.yul\":5355:5360   */\n      dup4\n        /* \"#utility.yul\":5351:5365   */\n      add\n        /* \"#utility.yul\":5347:5370   */\n      div\n        /* \"#utility.yul\":5337:5370   */\n      swap1\n      pop\n        /* \"#utility.yul\":5283:5376   */\n      swap2\n      swap1\n      pop\n      jump\t// out\n        /* \"#utility.yul\":5382:5489   */\n    tag_55:\n        /* \"#utility.yul\":5426:5434   */\n      0x00\n        /* \"#utility.yul\":5476:5481   */\n      dup3\n        /* \"#utility.yul\":5470:5474   */\n      dup3\n        /* \"#utility.yul\":5466:5482   */\n      shl\n        /* \"#utility.yul\":5445:5482   */\n      swap1\n      pop\n        /* \"#utility.yul\":5382:5489   */\n      swap3\n      swap2\n      pop\n      pop\n      jump\t// out\n        /* \"#utility.yul\":5495:5888   */\n    tag_56:\n        /* \"#utility.yul\":5564:5570   */\n      0x00\n        /* \"#utility.yul\":5614:5615   */\n      0x08\n        /* \"#utility.yul\":5602:5612   */\n      dup4\n        /* \"#utility.yul\":5598:5616   */\n      mul\n        /* \"#utility.yul\":5637:5734   */\n      tag_132\n        /* \"#utility.yul\":5667:5733   */\n      0xffffffffffffffffffffffffffffffffffffffffffffffffffffffffffffffff\n        /* \"#utility.yul\":5656:5665   */\n      dup3\n        /* \"#utility.yul\":5637:5734   */\n      tag_55\n      jump\t// in\n    tag_132:\n        /* \"#utility.yul\":5755:5794   */\n      tag_133\n        /* \"#utility.yul\":5785:5793   */\n      dup7\n        /* \"#utility.yul\":5774:5783   */\n      dup4\n        /* \"#utility.yul\":5755:5794   */\n      tag_55\n      jump\t// in\n    tag_133:\n        /* \"#utility.yul\":5743:5794   */\n      swap6\n      pop\n        /* \"#utility.yul\":5827:5831   */\n      dup1\n        /* \"#utility.yul\":5823:5832   */\n      not\n        /* \"#utility.yul\":5816:5821   */\n      dup5\n        /* \"#utility.yul\":5812:5833   */\n      and\n        /* \"#utility.yul\":5803:5833   */\n      swap4\n      pop\n        /* \"#utility.yul\":5876:5880   */\n      dup1\n        /* \"#utility.yul\":5866:5874   */\n      dup7\n        /* \"#utility.yul\":5862:5881   */\n      and\n        /* \"#utility.yul\":5855:5860   */\n      dup5\n        /* \"#utility.yul\":5852:5882   */\n      or\n        /* \"#utility.yul\":5842:5882   */\n      swap3\n      pop\n        /* \"#utility.yul\":5571:5888   */\n      pop\n      pop\n        /* \"#utility.yul\":5495:5888   */\n      swap4\n      swap3\n      pop\n      pop\n      pop\n      jump\t// out\n        /* \"#utility.yul\":5894:5971   */\n    tag_57:\n        /* \"#utility.yul\":5931:5938   */\n      0x00\n        /* \"#utility.yul\":5960:5965   */\n      dup2\n        /* \"#utility.yul\":5949:5965   */\n      swap1\n      pop\n        /* \"#utility.yul\":5894:5971   */\n      swap2\n      swap1\n      pop\n      jump\t// out\n        /* \"#utility.yul\":5977:6037   */\n    tag_58:\n        /* \"#utility.yul\":6005:6008   */\n      0x00\n        /* \"#utility.yul\":6026:6031   */\n      dup2\n        /* \"#utility.yul\":6019:6031   */\n      swap1\n      pop\n        /* \"#utility.yul\":5977:6037   */\n      swap2\n      swap1\n      pop\n      jump\t// out\n        /* \"#utility.yul\":6043:6185   */\n    tag_59:\n        /* \"#utility.yul\":6093:6102   */\n      0x00\n        /* \"#utility.yul\":6126:6179   */\n      tag_137\n        /* \"#utility.yul\":6144:6178   */\n      tag_138\n        /* \"#utility.yul\":6153:6177   */\n      tag_139\n        /* \"#utility.yul\":6171:6176   */\n      dup5\n        /* \"#utility.yul\":6153:6177   */\n      tag_57\n      jump\t// in\n    tag_139:\n        /* \"#utility.yul\":6144:6178   */\n      tag_58\n      jump\t// in\n    tag_138:\n        /* \"#utility.yul\":6126:6179   */\n      tag_57\n      jump\t// in\n    tag_137:\n        /* \"#utility.yul\":6113:6179   */\n      swap1\n      pop\n        /* \"#utility.yul\":6043:6185   */\n      swap2\n      swap1\n      pop\n      jump\t// out\n        /* \"#utility.yul\":6191:6266   */\n    tag_60:\n        /* \"#utility.yul\":6234:6237   */\n      0x00\n        /* \"#utility.yul\":6255:6260   */\n      dup2\n        /* \"#utility.yul\":6248:6260   */\n      swap1\n      pop\n        /* \"#utility.yul\":6191:6266   */\n      swap2\n      swap1\n      pop\n      jump\t// out\n        /* \"#utility.yul\":6272:6541   */\n    tag_61:\n        /* \"#utility.yul\":6382:6421   */\n      tag_142\n        /* \"#utility.yul\":6413:6420   */\n      dup4\n        /* \"#utility.yul\":6382:6421   */\n      tag_59\n      jump\t// in\n    tag_142:\n        /* \"#utility.yul\":6443:6534   */\n      tag_143\n        /* \"#utility.yul\":6492:6533   */\n      tag_144\n        /* \"#utility.yul\":6516:6532   */\n      dup3\n        /* \"#utility.yul\":6492:6533   */\n      tag_60\n      jump\t// in\n    tag_144:\n        /* \"#utility.yul\":6484:6490   */\n      dup5\n        /* \"#utility.yul\":6477:6481   */\n      dup5\n        /* \"#utility.yul\":6471:6482   */\n      sload\n        /* \"#utility.yul\":6443:6534   */\n      tag_56\n      jump\t// in\n    tag_143:\n        /* \"#utility.yul\":6437:6441   */\n      dup3\n        /* \"#utility.yul\":6430:6535   */\n      sstore\n        /* \"#utility.yul\":6348:6541   */\n      pop\n        /* \"#utility.yul\":6272:6541   */\n      pop\n      pop\n      pop\n      jump\t// out\n        /* \"#utility.yul\":6547:6620   */\n    tag_62:\n        /* \"#utility.yul\":6592:6595   */\n      0x00\n        /* \"#utility.yul\":6547:6620   */\n      swap1\n      jump\t// out\n        /* \"#utility.yul\":6626:6815   */\n    tag_63:\n        /* \"#utility.yul\":6703:6735   */\n      tag_147\n      tag_62\n      jump\t// in\n    tag_147:\n        /* \"#utility.yul\":6744:6809   */\n      tag_148\n        /* \"#utility.yul\":6802:6808   */\n      dup2\n        /* \"#utility.yul\":6794:6800   */\n      dup5\n        /* \"#utility.yul\":6788:6792   */\n      dup5\n        /* \"#utility.yul\":6744:6809   */\n      tag_61\n      jump\t// in\n    tag_148:\n        /* \"#utility.yul\":6679:6815   */\n      pop\n        /* \"#utility.yul\":6626:6815   */\n      pop\n      pop\n      jump\t// out\n        /* \"#utility.yul\":6821:7007   */\n    tag_64:\n        /* \"#utility.yul\":6881:7001   */\n    tag_150:\n        /* \"#utility.yul\":6898:6901   */\n      dup2\n        /* \"#utility.yul\":6891:6896   */\n      dup2\n        /* \"#utility.yul\":6888:6902   */\n      lt\n        /* \"#utility.yul\":6881:7001   */\n      iszero\n      tag_152\n      jumpi\n        /* \"#utility.yul\":6952:6991   */\n      tag_153\n        /* \"#utility.yul\":6989:6990   */\n      0x00\n        /* \"#utility.yul\":6982:6987   */\n      dup3\n        /* \"#utility.yul\":6952:6991   */\n      tag_63\n      jump\t// in\n    tag_153:\n        /* \"#utility.yul\":6925:6926   */\n      0x01\n        /* \"#utility.yul\":6918:6923   */\n      dup2\n        /* \"#utility.yul\":6914:6927   */\n      add\n        /* \"#utility.yul\":6905:6927   */\n      swap1\n      pop\n        /* \"#utility.yul\":6881:7001   */\n      jump(tag_150)\n    tag_152:\n        /* \"#utility.yul\":6821:7007   */\n      pop\n      pop\n      jump\t// out\n        /* \"#utility.yul\":7013:7556   */\n    tag_65:\n        /* \"#utility.yul\":7114:7116   */\n      0x1f\n        /* \"#utility.yul\":7109:7112   */\n      dup3\n        /* \"#utility.yul\":7106:7117   */\n      gt\n        /* \"#utility.yul\":7103:7549   */\n      iszero\n      tag_155\n      jumpi\n        /* \"#utility.yul\":7148:7186   */\n      tag_156\n        /* \"#utility.yul\":7180:7185   */\n      dup2\n        /* \"#utility.yul\":7148:7186   */\n      tag_53\n      jump\t// in\n    tag_156:\n        /* \"#utility.yul\":7232:7261   */\n      tag_157\n        /* \"#utility.yul\":7250:7260   */\n      dup5\n        /* \"#utility.yul\":7232:7261   */\n      tag_54\n      jump\t// in\n    tag_157:\n        /* \"#utility.yul\":7222:7230   */\n      dup2\n        /* \"#utility.yul\":7218:7262   */\n      add\n        /* \"#utility.yul\":7415:7417   */\n      0x20\n        /* \"#utility.yul\":7403:7413   */\n      dup6\n        /* \"#utility.yul\":7400:7418   */\n      lt\n        /* \"#utility.yul\":7397:7446   */\n      iszero\n      tag_158\n      jumpi\n        /* \"#utility.yul\":7436:7444   */\n      dup2\n        /* \"#utility.yul\":7421:7444   */\n      swap1\n      pop\n        /* \"#utility.yul\":7397:7446   */\n    tag_158:\n        /* \"#utility.yul\":7459:7539   */\n      tag_159\n        /* \"#utility.yul\":7515:7537   */\n      tag_160\n        /* \"#utility.yul\":7533:7536   */\n      dup6\n        /* \"#utility.yul\":7515:7537   */\n      tag_54\n      jump\t// in\n    tag_160:\n        /* \"#utility.yul\":7505:7513   */\n      dup4\n        /* \"#utility.yul\":7501:7538   */\n      add\n        /* \"#utility.yul\":7488:7499   */\n      dup3\n        /* \"#utility.yul\":7459:7539   */\n      tag_64\n      jump\t// in\n    tag_159:\n        /* \"#utility.yul\":7118:7549   */\n      pop\n      pop\n        /* \"#utility.yul\":7103:7549   */\n    tag_155:\n        /* \"#utility.yul\":7013:7556   */\n      pop\n      pop\n      pop\n      jump\t// out\n        /* \"#utility.yul\":7562:7679   */\n    tag_66:\n        /* \"#utility.yul\":7616:7624   */\n      0x00\n        /* \"#utility.yul\":7666:7671   */\n      dup3\n        /* \"#utility.yul\":7660:7664   */\n      dup3\n        /* \"#utility.yul\":7656:7672   */\n      shr\n        /* \"#utility.yul\":7635:7672   */\n      swap1\n      pop\n        /* \"#utility.yul\":7562:7679   */\n      swap3\n      swap2\n      pop\n      pop\n      jump\t// out\n        /* \"#utility.yul\":7685:7854   */\n    tag_67:\n        /* \"#utility.yul\":7729:7735   */\n      0x00\n        /* \"#utility.yul\":7762:7813   */\n      tag_163\n        /* \"#utility.yul\":7810:7811   */\n      0x00\n        /* \"#utility.yul\":7806:7812   */\n      not\n        /* \"#utility.yul\":7798:7803   */\n      dup5\n        /* \"#utility.yul\":7795:7796   */\n      0x08\n        /* \"#utility.yul\":7791:7804   */\n      mul\n        /* \"#utility.yul\":7762:7813   */\n      tag_66\n      jump\t// in\n    tag_163:\n        /* \"#utility.yul\":7758:7814   */\n      not\n        /* \"#utility.yul\":7843:7847   */\n      dup1\n        /* \"#utility.yul\":7837:7841   */\n      dup4\n        /* \"#utility.yul\":7833:7848   */\n      and\n        /* \"#utility.yul\":7823:7848   */\n      swap2\n      pop\n        /* \"#utility.yul\":7736:7854   */\n      pop\n        /* \"#utility.yul\":7685:7854   */\n      swap3\n      swap2\n      pop\n      pop\n      jump\t// out\n        /* \"#utility.yul\":7859:8154   */\n    tag_68:\n        /* \"#utility.yul\":7935:7939   */\n      0x00\n        /* \"#utility.yul\":8081:8110   */\n      tag_165\n        /* \"#utility.yul\":8106:8109   */\n      dup4\n        /* \"#utility.yul\":8100:8104   */\n      dup4\n        /* \"#utility.yul\":8081:8110   */\n      tag_67\n      jump\t// in\n    tag_165:\n        /* \"#utility.yul\":8073:8110   */\n      swap2\n      pop\n        /* \"#utility.yul\":8143:8146   */\n      dup3\n        /* \"#utility.yul\":8140:8141   */\n      0x02\n        /* \"#utility.yul\":8136:8147   */\n      mul\n        /* \"#utility.yul\":8130:8134   */\n      dup3\n        /* \"#utility.yul\":8127:8148   */\n      or\n        /* \"#utility.yul\":8119:8148   */\n      swap1\n      pop\n        /* \"#utility.yul\":7859:8154   */\n      swap3\n      swap2\n      pop\n      pop\n      jump\t// out\n        /* \"#utility.yul\":8159:9554   */\n    tag_21:\n        /* \"#utility.yul\":8276:8313   */\n      tag_167\n        /* \"#utility.yul\":8309:8312   */\n      dup3\n        /* \"#utility.yul\":8276:8313   */\n      tag_46\n      jump\t// in\n    tag_167:\n        /* \"#utility.yul\":8378:8396   */\n      0xffffffffffffffff\n        /* \"#utility.yul\":8370:8376   */\n      dup2\n        /* \"#utility.yul\":8367:8397   */\n      gt\n        /* \"#utility.yul\":8364:8420   */\n      iszero\n      tag_168\n      jumpi\n        /* \"#utility.yul\":8400:8418   */\n      tag_169\n      tag_39\n      jump\t// in\n    tag_169:\n        /* \"#utility.yul\":8364:8420   */\n    tag_168:\n        /* \"#utility.yul\":8444:8482   */\n      tag_170\n        /* \"#utility.yul\":8476:8480   */\n      dup3\n        /* \"#utility.yul\":8470:8481   */\n      sload\n        /* \"#utility.yul\":8444:8482   */\n      tag_23\n      jump\t// in\n    tag_170:\n        /* \"#utility.yul\":8529:8596   */\n      tag_171\n        /* \"#utility.yul\":8589:8595   */\n      dup3\n        /* \"#utility.yul\":8581:8587   */\n      dup3\n        /* \"#utility.yul\":8575:8579   */\n      dup6\n        /* \"#utility.yul\":8529:8596   */\n      tag_65\n      jump\t// in\n    tag_171:\n        /* \"#utility.yul\":8623:8624   */\n      0x00\n        /* \"#utility.yul\":8647:8651   */\n      0x20\n        /* \"#utility.yul\":8634:8651   */\n      swap1\n      pop\n        /* \"#utility.yul\":8679:8681   */\n      0x1f\n        /* \"#utility.yul\":8671:8677   */\n      dup4\n        /* \"#utility.yul\":8668:8682   */\n      gt\n        /* \"#utility.yul\":8696:8697   */\n      0x01\n        /* \"#utility.yul\":8691:9309   */\n      dup2\n      eq\n      tag_173\n      jumpi\n        /* \"#utility.yul\":9353:9354   */\n      0x00\n        /* \"#utility.yul\":9370:9376   */\n      dup5\n        /* \"#utility.yul\":9367:9444   */\n      iszero\n      tag_174\n      jumpi\n        /* \"#utility.yul\":9419:9428   */\n      dup3\n        /* \"#utility.yul\":9414:9417   */\n      dup8\n        /* \"#utility.yul\":9410:9429   */\n      add\n        /* \"#utility.yul\":9404:9430   */\n      mload\n        /* \"#utility.yul\":9395:9430   */\n      swap1\n      pop\n        /* \"#utility.yul\":9367:9444   */\n    tag_174:\n        /* \"#utility.yul\":9470:9537   */\n      tag_175\n        /* \"#utility.yul\":9530:9536   */\n      dup6\n        /* \"#utility.yul\":9523:9528   */\n      dup3\n        /* \"#utility.yul\":9470:9537   */\n      tag_68\n      jump\t// in\n    tag_175:\n        /* \"#utility.yul\":9464:9468   */\n      dup7\n        /* \"#utility.yul\":9457:9538   */\n      sstore\n        /* \"#utility.yul\":9326:9548   */\n      pop\n        /* \"#utility.yul\":8661:9548   */\n      jump(tag_172)\n        /* \"#utility.yul\":8691:9309   */\n    tag_173:\n        /* \"#utility.yul\":8743:8747   */\n      0x1f\n        /* \"#utility.yul\":8739:8748   */\n      not\n        /* \"#utility.yul\":8731:8737   */\n      dup5\n        /* \"#utility.yul\":8727:8749   */\n      and\n        /* \"#utility.yul\":8777:8814   */\n      tag_176\n        /* \"#utility.yul\":8809:8813   */\n      dup7\n        /* \"#utility.yul\":8777:8814   */\n      tag_53\n      jump\t// in\n    tag_176:\n        /* \"#utility.yul\":8836:8837   */\n      0x00\n        /* \"#utility.yul\":8850:9058   */\n    tag_177:\n        /* \"#utility.yul\":8864:8871   */\n      dup3\n        /* \"#utility.yul\":8861:8862   */\n      dup2\n        /* \"#utility.yul\":8858:8872   */\n      lt\n        /* \"#utility.yul\":8850:9058   */\n      iszero\n      tag_179\n      jumpi\n        /* \"#utility.yul\":8943:8952   */\n      dup5\n        /* \"#utility.yul\":8938:8941   */\n      dup10\n        /* \"#utility.yul\":8934:8953   */\n      add\n        /* \"#utility.yul\":8928:8954   */\n      mload\n        /* \"#utility.yul\":8920:8926   */\n      dup3\n        /* \"#utility.yul\":8913:8955   */\n      sstore\n        /* \"#utility.yul\":8994:8995   */\n      0x01\n        /* \"#utility.yul\":8986:8992   */\n      dup3\n        /* \"#utility.yul\":8982:8996   */\n      add\n        /* \"#utility.yul\":8972:8996   */\n      swap2\n      pop\n        /* \"#utility.yul\":9041:9043   */\n      0x20\n        /* \"#utility.yul\":9030:9039   */\n      dup6\n        /* \"#utility.yul\":9026:9044   */\n      add\n        /* \"#utility.yul\":9013:9044   */\n      swap5\n      pop\n        /* \"#utility.yul\":8887:8891   */\n      0x20\n        /* \"#utility.yul\":8884:8885   */\n      dup2\n        /* \"#utility.yul\":8880:8892   */\n      add\n        /* \"#utility.yul\":8875:8892   */\n      swap1\n      pop\n        /* \"#utility.yul\":8850:9058   */\n      jump(tag_177)\n    tag_179:\n        /* \"#utility.yul\":9086:9092   */\n      dup7\n        /* \"#utility.yul\":9077:9084   */\n      dup4\n        /* \"#utility.yul\":9074:9093   */\n      lt\n        /* \"#utility.yul\":9071:9250   */\n      iszero\n      tag_180\n      jumpi\n        /* \"#utility.yul\":9144:9153   */\n      dup5\n        /* \"#utility.yul\":9139:9142   */\n      dup10\n        /* \"#utility.yul\":9135:9154   */\n      add\n        /* \"#utility.yul\":9129:9155   */\n      mload\n        /* \"#utility.yul\":9187:9235   */\n      tag_181\n        /* \"#utility.yul\":9229:9233   */\n      0x1f\n        /* \"#utility.yul\":9221:9227   */\n      dup10\n        /* \"#utility.yul\":9217:9234   */\n      and\n        /* \"#utility.yul\":9206:9215   */\n      dup3\n        /* \"#utility.yul\":9187:9235   */\n      tag_67\n      jump\t// in\n    tag_181:\n        /* \"#utility.yul\":9179:9185   */\n      dup4\n        /* \"#utility.yul\":9172:9236   */\n      sstore\n        /* \"#utility.yul\":9094:9250   */\n      pop\n        /* \"#utility.yul\":9071:9250   */\n    tag_180:\n        /* \"#utility.yul\":9296:9297   */\n      0x01\n        /* \"#utility.yul\":9292:9293   */\n      0x02\n        /* \"#utility.yul\":9284:9290   */\n      dup9\n        /* \"#utility.yul\":9280:9294   */\n      mul\n        /* \"#utility.yul\":9276:9298   */\n      add\n        /* \"#utility.yul\":9270:9274   */\n      dup9\n        /* \"#utility.yul\":9263:9299   */\n      sstore\n        /* \"#utility.yul\":8698:9309   */\n      pop\n      pop\n      pop\n        /* \"#utility.yul\":8661:9548   */\n    tag_172:\n      pop\n        /* \"#utility.yul\":8251:9554   */\n      pop\n      pop\n      pop\n        /* \"#utility.yul\":8159:9554   */\n      pop\n      pop\n      jump\t// out\n        /* \"#utility.yul\":9560:9708   */\n    tag_69:\n        /* \"#utility.yul\":9662:9673   */\n      0x00\n        /* \"#utility.yul\":9699:9702   */\n      dup2\n        /* \"#utility.yul\":9684:9702   */\n      swap1\n      pop\n        /* \"#utility.yul\":9560:9708   */\n      swap3\n      swap2\n      pop\n      pop\n      jump\t// out\n        /* \"#utility.yul\":9714:10104   */\n    tag_70:\n        /* \"#utility.yul\":9820:9823   */\n      0x00\n        /* \"#utility.yul\":9848:9887   */\n      tag_184\n        /* \"#utility.yul\":9881:9886   */\n      dup3\n        /* \"#utility.yul\":9848:9887   */\n      tag_46\n      jump\t// in\n    tag_184:\n        /* \"#utility.yul\":9903:9992   */\n      tag_185\n        /* \"#utility.yul\":9985:9991   */\n      dup2\n        /* \"#utility.yul\":9980:9983   */\n      dup6\n        /* \"#utility.yul\":9903:9992   */\n      tag_69\n      jump\t// in\n    tag_185:\n        /* \"#utility.yul\":9896:9992   */\n      swap4\n      pop\n        /* \"#utility.yul\":10001:10066   */\n      tag_186\n        /* \"#utility.yul\":10059:10065   */\n      dup2\n        /* \"#utility.yul\":10054:10057   */\n      dup6\n        /* \"#utility.yul\":10047:10051   */\n      0x20\n        /* \"#utility.yul\":10040:10045   */\n      dup7\n        /* \"#utility.yul\":10036:10052   */\n      add\n        /* \"#utility.yul\":10001:10066   */\n      tag_48\n      jump\t// in\n    tag_186:\n        /* \"#utility.yul\":10091:10097   */\n      dup1\n        /* \"#utility.yul\":10086:10089   */\n      dup5\n        /* \"#utility.yul\":10082:10098   */\n      add\n        /* \"#utility.yul\":10075:10098   */\n      swap2\n      pop\n        /* \"#utility.yul\":9824:10104   */\n      pop\n        /* \"#utility.yul\":9714:10104   */\n      swap3\n      swap2\n      pop\n      pop\n      jump\t// out\n        /* \"#utility.yul\":10110:10385   */\n    tag_30:\n        /* \"#utility.yul\":10242:10245   */\n      0x00\n        /* \"#utility.yul\":10264:10359   */\n      tag_188\n        /* \"#utility.yul\":10355:10358   */\n      dup3\n        /* \"#utility.yul\":10346:10352   */\n      dup5\n        /* \"#utility.yul\":10264:10359   */\n      tag_70\n      jump\t// in\n    tag_188:\n        /* \"#utility.yul\":10257:10359   */\n      swap2\n      pop\n        /* \"#utility.yul\":10376:10379   */\n      dup2\n        /* \"#utility.yul\":10369:10379   */\n      swap1\n      pop\n        /* \"#utility.yul\":10110:10385   */\n      swap3\n      swap2\n      pop\n      pop\n      jump\t// out\n        /* \"#utility.yul\":10415:11289   */\n    tag_71:\n        /* \"#utility.yul\":10518:10521   */\n      0x00\n        /* \"#utility.yul\":10555:10560   */\n      dup2\n        /* \"#utility.yul\":10549:10561   */\n      sload\n        /* \"#utility.yul\":10584:10620   */\n      tag_190\n        /* \"#utility.yul\":10610:10619   */\n      dup2\n        /* \"#utility.yul\":10584:10620   */\n      tag_23\n      jump\t// in\n    tag_190:\n        /* \"#utility.yul\":10636:10725   */\n      tag_191\n        /* \"#utility.yul\":10718:10724   */\n      dup2\n        /* \"#utility.yul\":10713:10716   */\n      dup7\n        /* \"#utility.yul\":10636:10725   */\n      tag_69\n      jump\t// in\n    tag_191:\n        /* \"#utility.yul\":10629:10725   */\n      swap5\n      pop\n        /* \"#utility.yul\":10756:10757   */\n      0x01\n        /* \"#utility.yul\":10745:10754   */\n      dup3\n        /* \"#utility.yul\":10741:10758   */\n      and\n        /* \"#utility.yul\":10772:10773   */\n      0x00\n        /* \"#utility.yul\":10767:10933   */\n      dup2\n      eq\n      tag_193\n      jumpi\n        /* \"#utility.yul\":10947:10948   */\n      0x01\n        /* \"#utility.yul\":10942:11283   */\n      dup2\n      eq\n      tag_194\n      jumpi\n        /* \"#utility.yul\":10734:11283   */\n      jump(tag_192)\n        /* \"#utility.yul\":10767:10933   */\n    tag_193:\n        /* \"#utility.yul\":10851:10855   */\n      0xff\n        /* \"#utility.yul\":10847:10856   */\n      not\n        /* \"#utility.yul\":10836:10845   */\n      dup4\n        /* \"#utility.yul\":10832:10857   */\n      and\n        /* \"#utility.yul\":10827:10830   */\n      dup7\n        /* \"#utility.yul\":10820:10858   */\n      mstore\n        /* \"#utility.yul\":10913:10919   */\n      dup2\n        /* \"#utility.yul\":10906:10920   */\n      iszero\n        /* \"#utility.yul\":10899:10921   */\n      iszero\n        /* \"#utility.yul\":10891:10897   */\n      dup3\n        /* \"#utility.yul\":10887:10922   */\n      mul\n        /* \"#utility.yul\":10882:10885   */\n      dup7\n        /* \"#utility.yul\":10878:10923   */\n      add\n        /* \"#utility.yul\":10871:10923   */\n      swap4\n      pop\n        /* \"#utility.yul\":10767:10933   */\n      jump(tag_192)\n        /* \"#utility.yul\":10942:11283   */\n    tag_194:\n        /* \"#utility.yul\":11009:11047   */\n      tag_195\n        /* \"#utility.yul\":11041:11046   */\n      dup6\n        /* \"#utility.yul\":11009:11047   */\n      tag_53\n      jump\t// in\n    tag_195:\n        /* \"#utility.yul\":11069:11070   */\n      0x00\n        /* \"#utility.yul\":11083:11237   */\n    tag_196:\n        /* \"#utility.yul\":11097:11103   */\n      dup4\n        /* \"#utility.yul\":11094:11095   */\n      dup2\n        /* \"#utility.yul\":11091:11104   */\n      lt\n        /* \"#utility.yul\":11083:11237   */\n      iszero\n      tag_198\n      jumpi\n        /* \"#utility.yul\":11171:11178   */\n      dup2\n        /* \"#utility.yul\":11165:11179   */\n      sload\n        /* \"#utility.yul\":11161:11162   */\n      dup2\n        /* \"#utility.yul\":11156:11159   */\n      dup10\n        /* \"#utility.yul\":11152:11163   */\n      add\n        /* \"#utility.yul\":11145:11180   */\n      mstore\n        /* \"#utility.yul\":11221:11222   */\n      0x01\n        /* \"#utility.yul\":11212:11219   */\n      dup3\n        /* \"#utility.yul\":11208:11223   */\n      add\n        /* \"#utility.yul\":11197:11223   */\n      swap2\n      pop\n        /* \"#utility.yul\":11119:11123   */\n      0x20\n        /* \"#utility.yul\":11116:11117   */\n      dup2\n        /* \"#utility.yul\":11112:11124   */\n      add\n        /* \"#utility.yul\":11107:11124   */\n      swap1\n      pop\n        /* \"#utility.yul\":11083:11237   */\n      jump(tag_196)\n    tag_198:\n        /* \"#utility.yul\":11266:11272   */\n      dup4\n        /* \"#utility.yul\":11261:11264   */\n      dup9\n        /* \"#utility.yul\":11257:11273   */\n      add\n        /* \"#utility.yul\":11250:11273   */\n      swap6\n      pop\n        /* \"#utility.yul\":10949:11283   */\n      pop\n      pop\n        /* \"#utility.yul\":10734:11283   */\n    tag_192:\n      pop\n        /* \"#utility.yul\":10522:11289   */\n      pop\n      pop\n        /* \"#utility.yul\":10415:11289   */\n      swap3\n      swap2\n      pop\n      pop\n      jump\t// out\n        /* \"#utility.yul\":11295:11564   */\n    tag_32:\n        /* \"#utility.yul\":11424:11427   */\n      0x00\n        /* \"#utility.yul\":11446:11538   */\n      tag_200\n        /* \"#utility.yul\":11534:11537   */\n      dup3\n        /* \"#utility.yul\":11525:11531   */\n      dup5\n        /* \"#utility.yul\":11446:11538   */\n      tag_71\n      jump\t// in\n    tag_200:\n        /* \"#utility.yul\":11439:11538   */\n      swap2\n      pop\n        /* \"#utility.yul\":11555:11558   */\n      dup2\n        /* \"#utility.yul\":11548:11558   */\n      swap1\n      pop\n        /* \"#utility.yul\":11295:11564   */\n      swap3\n      swap2\n      pop\n      pop\n      jump\t// out\n\n    auxdata: 0xa2646970667358221220f0479f66400d39708155c6c620ac2e15573b502339ba9b50b3d161079f9322f364736f6c634300081a0033\n}\n",
				"bytecode": {
					"linkReferences": {},
					"object": "60806040526040518060400160405280600b81526020017f48656c6c6f20576f726c640000000000000000000000000000000000000000008152505f908161004791906102d8565b506040518060400160405280600581526020017f48656c6c6f0000000000000000000000000000000000000000000000000000008152506001908161008c91906103ff565b50348015610098575f80fd5b506104ce565b5f81519050919050565b7f4e487b71000000000000000000000000000000000000000000000000000000005f52604160045260245ffd5b7f4e487b71000000000000000000000000000000000000000000000000000000005f52602260045260245ffd5b5f600282049050600182168061011957607f821691505b60208210810361012c5761012b6100d5565b5b50919050565b5f819050815f5260205f209050919050565b5f6020601f8301049050919050565b5f82821b905092915050565b5f6008830261018e7fffffffffffffffffffffffffffffffffffffffffffffffffffffffffffffffff82610153565b6101988683610153565b95508019841693508086168417925050509392505050565b5f819050919050565b5f819050919050565b5f6101dc6101d76101d2846101b0565b6101b9565b6101b0565b9050919050565b5f819050919050565b6101f5836101c2565b610209610201826101e3565b84845461015f565b825550505050565b5f90565b61021d610211565b6102288184846101ec565b505050565b5b8181101561024b576102405f82610215565b60018101905061022e565b5050565b601f8211156102905761026181610132565b61026a84610144565b81016020851015610279578190505b61028d61028585610144565b83018261022d565b50505b505050565b5f82821c905092915050565b5f6102b05f1984600802610295565b1980831691505092915050565b5f6102c883836102a1565b9150826002028217905092915050565b6102e18261009e565b67ffffffffffffffff8111156102fa576102f96100a8565b5b6103048254610102565b61030f82828561024f565b5f60209050601f831160018114610340575f841561032e578287015190505b61033885826102bd565b86555061039f565b601f19841661034e86610132565b5f5b8281101561037557848901518255600182019150602085019450602081019050610350565b86831015610392578489015161038e601f8916826102a1565b8355505b6001600288020188555050505b505050505050565b5f819050815f5260205f209050919050565b601f8211156103fa576103cb816103a7565b6103d484610144565b810160208510156103e3578190505b6103f76103ef85610144565b83018261022d565b50505b505050565b6104088261009e565b67ffffffffffffffff811115610421576104206100a8565b5b61042b8254610102565b6104368282856103b9565b5f60209050601f831160018114610467575f8415610455578287015190505b61045f85826102bd565b8655506104c6565b601f198416610475866103a7565b5f5b8281101561049c57848901518255600182019150602085019450602081019050610477565b868310156104b957848901516104b5601f8916826102a1565b8355505b6001600288020188555050505b505050505050565b6107d6806104db5f395ff3fe608060405234801561000f575f80fd5b506004361061003f575f3560e01c8063037a96b614610043578063390a00991461005f5780635ce253531461007d575b5f80fd5b61005d600480360381019061005891906102ee565b6100ad565b005b6100676100bf565b6040516100749190610395565b60405180910390f35b610097600480360381019061009291906102ee565b61014a565b6040516100a491906103cf565b60405180910390f35b805f90816100bb91906105eb565b5050565b5f80546100cb90610415565b80601f01602080910402602001604051908101604052809291908181526020018280546100f790610415565b80156101425780601f1061011957610100808354040283529160200191610142565b820191905f5260205f20905b81548152906001019060200180831161012557829003601f168201915b505050505081565b5f8160405160200161015c91906106f4565b604051602081830303815290604052805190602001205f604051602001610183919061078a565b60405160208183030381529060405280519060200120149050919050565b5f604051905090565b5f80fd5b5f80fd5b5f80fd5b5f80fd5b5f601f19601f8301169050919050565b7f4e487b71000000000000000000000000000000000000000000000000000000005f52604160045260245ffd5b610200826101ba565b810181811067ffffffffffffffff8211171561021f5761021e6101ca565b5b80604052505050565b5f6102316101a1565b905061023d82826101f7565b919050565b5f67ffffffffffffffff82111561025c5761025b6101ca565b5b610265826101ba565b9050602081019050919050565b828183375f83830152505050565b5f61029261028d84610242565b610228565b9050828152602081018484840111156102ae576102ad6101b6565b5b6102b9848285610272565b509392505050565b5f82601f8301126102d5576102d46101b2565b5b81356102e5848260208601610280565b91505092915050565b5f60208284031215610303576103026101aa565b5b5f82013567ffffffffffffffff8111156103205761031f6101ae565b5b61032c848285016102c1565b91505092915050565b5f81519050919050565b5f82825260208201905092915050565b8281835e5f83830152505050565b5f61036782610335565b610371818561033f565b935061038181856020860161034f565b61038a816101ba565b840191505092915050565b5f6020820190508181035f8301526103ad818461035d565b905092915050565b5f8115159050919050565b6103c9816103b5565b82525050565b5f6020820190506103e25f8301846103c0565b92915050565b7f4e487b71000000000000000000000000000000000000000000000000000000005f52602260045260245ffd5b5f600282049050600182168061042c57607f821691505b60208210810361043f5761043e6103e8565b5b50919050565b5f819050815f5260205f209050919050565b5f6020601f8301049050919050565b5f82821b905092915050565b5f600883026104a17fffffffffffffffffffffffffffffffffffffffffffffffffffffffffffffffff82610466565b6104ab8683610466565b95508019841693508086168417925050509392505050565b5f819050919050565b5f819050919050565b5f6104ef6104ea6104e5846104c3565b6104cc565b6104c3565b9050919050565b5f819050919050565b610508836104d5565b61051c610514826104f6565b848454610472565b825550505050565b5f90565b610530610524565b61053b8184846104ff565b505050565b5b8181101561055e576105535f82610528565b600181019050610541565b5050565b601f8211156105a35761057481610445565b61057d84610457565b8101602085101561058c578190505b6105a061059885610457565b830182610540565b50505b505050565b5f82821c905092915050565b5f6105c35f19846008026105a8565b1980831691505092915050565b5f6105db83836105b4565b9150826002028217905092915050565b6105f482610335565b67ffffffffffffffff81111561060d5761060c6101ca565b5b6106178254610415565b610622828285610562565b5f60209050601f831160018114610653575f8415610641578287015190505b61064b85826105d0565b8655506106b2565b601f19841661066186610445565b5f5b8281101561068857848901518255600182019150602085019450602081019050610663565b868310156106a557848901516106a1601f8916826105b4565b8355505b6001600288020188555050505b505050505050565b5f81905092915050565b5f6106ce82610335565b6106d881856106ba565b93506106e881856020860161034f565b80840191505092915050565b5f6106ff82846106c4565b915081905092915050565b5f815461071681610415565b61072081866106ba565b9450600182165f811461073a576001811461074f57610781565b60ff1983168652811515820286019350610781565b61075885610445565b5f5b838110156107795781548189015260018201915060208101905061075a565b838801955050505b50505092915050565b5f610795828461070a565b91508190509291505056fea2646970667358221220f0479f66400d39708155c6c620ac2e15573b502339ba9b50b3d161079f9322f364736f6c634300081a0033",
					"opcodes": "PUSH1 0x80 PUSH1 0x40 MSTORE PUSH1 0x40 MLOAD DUP1 PUSH1 0x40 ADD PUSH1 0x40 MSTORE DUP1 PUSH1 0xB DUP2 MSTORE PUSH1 0x20 ADD PUSH32 0x48656C6C6F20576F726C64000000000000000000000000000000000000000000 DUP2 MSTORE POP PUSH0 SWAP1 DUP2 PUSH2 0x47 SWAP2 SWAP1 PUSH2 0x2D8 JUMP JUMPDEST POP PUSH1 0x40 MLOAD DUP1 PUSH1 0x40 ADD PUSH1 0x40 MSTORE DUP1 PUSH1 0x5 DUP2 MSTORE PUSH1 0x20 ADD PUSH32 0x48656C6C6F000000000000000000000000000000000000000000000000000000 DUP2 MSTORE POP PUSH1 0x1 SWAP1 DUP2 PUSH2 0x8C SWAP2 SWAP1 PUSH2 0x3FF JUMP JUMPDEST POP CALLVALUE DUP1 ISZERO PUSH2 0x98 JUMPI PUSH0 DUP1 REVERT JUMPDEST POP PUSH2 0x4CE JUMP JUMPDEST PUSH0 DUP2 MLOAD SWAP1 POP SWAP2 SWAP1 POP JUMP JUMPDEST PUSH32 0x4E487B7100000000000000000000000000000000000000000000000000000000 PUSH0 MSTORE PUSH1 0x41 PUSH1 0x4 MSTORE PUSH1 0x24 PUSH0 REVERT JUMPDEST PUSH32 0x4E487B7100000000000000000000000000000000000000000000000000000000 PUSH0 MSTORE PUSH1 0x22 PUSH1 0x4 MSTORE PUSH1 0x24 PUSH0 REVERT JUMPDEST PUSH0 PUSH1 0x2 DUP3 DIV SWAP1 POP PUSH1 0x1 DUP3 AND DUP1 PUSH2 0x119 JUMPI PUSH1 0x7F DUP3 AND SWAP2 POP JUMPDEST PUSH1 0x20 DUP3 LT DUP2 SUB PUSH2 0x12C JUMPI PUSH2 0x12B PUSH2 0xD5 JUMP JUMPDEST JUMPDEST POP SWAP2 SWAP1 POP JUMP JUMPDEST PUSH0 DUP2 SWAP1 POP DUP2 PUSH0 MSTORE PUSH1 0x20 PUSH0 KECCAK256 SWAP1 POP SWAP2 SWAP1 POP JUMP JUMPDEST PUSH0 PUSH1 0x20 PUSH1 0x1F DUP4 ADD DIV SWAP1 POP SWAP2 SWAP1 POP JUMP JUMPDEST PUSH0 DUP3 DUP3 SHL SWAP1 POP SWAP3 SWAP2 POP POP JUMP JUMPDEST PUSH0 PUSH1 0x8 DUP4 MUL PUSH2 0x18E PUSH32 0xFFFFFFFFFFFFFFFFFFFFFFFFFFFFFFFFFFFFFFFFFFFFFFFFFFFFFFFFFFFFFFFF DUP3 PUSH2 0x153 JUMP JUMPDEST PUSH2 0x198 DUP7 DUP4 PUSH2 0x153 JUMP JUMPDEST SWAP6 POP DUP1 NOT DUP5 AND SWAP4 POP DUP1 DUP7 AND DUP5 OR SWAP3 POP POP POP SWAP4 SWAP3 POP POP POP JUMP JUMPDEST PUSH0 DUP2 SWAP1 POP SWAP2 SWAP1 POP JUMP JUMPDEST PUSH0 DUP2 SWAP1 POP SWAP2 SWAP1 POP JUMP JUMPDEST PUSH0 PUSH2 0x1DC PUSH2 0x1D7 PUSH2 0x1D2 DUP5 PUSH2 0x1B0 JUMP JUMPDEST PUSH2 0x1B9 JUMP JUMPDEST PUSH2 0x1B0 JUMP JUMPDEST SWAP1 POP SWAP2 SWAP1 POP JUMP JUMPDEST PUSH0 DUP2 SWAP1 POP SWAP2 SWAP1 POP JUMP JUMPDEST PUSH2 0x1F5 DUP4 PUSH2 0x1C2 JUMP JUMPDEST PUSH2 0x209 PUSH2 0x201 DUP3 PUSH2 0x1E3 JUMP JUMPDEST DUP5 DUP5 SLOAD PUSH2 0x15F JUMP JUMPDEST DUP3 SSTORE POP POP POP POP JUMP JUMPDEST PUSH0 SWAP1 JUMP JUMPDEST PUSH2 0x21D PUSH2 0x211 JUMP JUMPDEST PUSH2 0x228 DUP2 DUP5 DUP5 PUSH2 0x1EC JUMP JUMPDEST POP POP POP JUMP JUMPDEST JUMPDEST DUP2 DUP2 LT ISZERO PUSH2 0x24B JUMPI PUSH2 0x240 PUSH0 DUP3 PUSH2 0x215 JUMP JUMPDEST PUSH1 0x1 DUP2 ADD SWAP1 POP PUSH2 0x22E JUMP JUMPDEST POP POP JUMP JUMPDEST PUSH1 0x1F DUP3 GT ISZERO PUSH2 0x290 JUMPI PUSH2 0x261 DUP2 PUSH2 0x132 JUMP JUMPDEST PUSH2 0x26A DUP5 PUSH2 0x144 JUMP JUMPDEST DUP2 ADD PUSH1 0x20 DUP6 LT ISZERO PUSH2 0x279 JUMPI DUP2 SWAP1 POP JUMPDEST PUSH2 0x28D PUSH2 0x285 DUP6 PUSH2 0x144 JUMP JUMPDEST DUP4 ADD DUP3 PUSH2 0x22D JUMP JUMPDEST POP POP JUMPDEST POP POP POP JUMP JUMPDEST PUSH0 DUP3 DUP3 SHR SWAP1 POP SWAP3 SWAP2 POP POP JUMP JUMPDEST PUSH0 PUSH2 0x2B0 PUSH0 NOT DUP5 PUSH1 0x8 MUL PUSH2 0x295 JUMP JUMPDEST NOT DUP1 DUP4 AND SWAP2 POP POP SWAP3 SWAP2 POP POP JUMP JUMPDEST PUSH0 PUSH2 0x2C8 DUP4 DUP4 PUSH2 0x2A1 JUMP JUMPDEST SWAP2 POP DUP3 PUSH1 0x2 MUL DUP3 OR SWAP1 POP SWAP3 SWAP2 POP POP JUMP JUMPDEST PUSH2 0x2E1 DUP3 PUSH2 0x9E JUMP JUMPDEST PUSH8 0xFFFFFFFFFFFFFFFF DUP2 GT ISZERO PUSH2 0x2FA JUMPI PUSH2 0x2F9 PUSH2 0xA8 JUMP JUMPDEST JUMPDEST PUSH2 0x304 DUP3 SLOAD PUSH2 0x102 JUMP JUMPDEST PUSH2 0x30F DUP3 DUP3 DUP6 PUSH2 0x24F JUMP JUMPDEST PUSH0 PUSH1 0x20 SWAP1 POP PUSH1 0x1F DUP4 GT PUSH1 0x1 DUP2 EQ PUSH2 0x340 JUMPI PUSH0 DUP5 ISZERO PUSH2 0x32E JUMPI DUP3 DUP8 ADD MLOAD SWAP1 POP JUMPDEST PUSH2 0x338 DUP6 DUP3 PUSH2 0x2BD JUMP JUMPDEST DUP7 SSTORE POP PUSH2 0x39F JUMP JUMPDEST PUSH1 0x1F NOT DUP5 AND PUSH2 0x34E DUP7 PUSH2 0x132 JUMP JUMPDEST PUSH0 JUMPDEST DUP3 DUP2 LT ISZERO PUSH2 0x375 JUMPI DUP5 DUP10 ADD MLOAD DUP3 SSTORE PUSH1 0x1 DUP3 ADD SWAP2 POP PUSH1 0x20 DUP6 ADD SWAP5 POP PUSH1 0x20 DUP2 ADD SWAP1 POP PUSH2 0x350 JUMP JUMPDEST DUP7 DUP4 LT ISZERO PUSH2 0x392 JUMPI DUP5 DUP10 ADD MLOAD PUSH2 0x38E PUSH1 0x1F DUP10 AND DUP3 PUSH2 0x2A1 JUMP JUMPDEST DUP4 SSTORE POP JUMPDEST PUSH1 0x1 PUSH1 0x2 DUP9 MUL ADD DUP9 SSTORE POP POP POP JUMPDEST POP POP POP POP POP POP JUMP JUMPDEST PUSH0 DUP2 SWAP1 POP DUP2 PUSH0 MSTORE PUSH1 0x20 PUSH0 KECCAK256 SWAP1 POP SWAP2 SWAP1 POP JUMP JUMPDEST PUSH1 0x1F DUP3 GT ISZERO PUSH2 0x3FA JUMPI PUSH2 0x3CB DUP2 PUSH2 0x3A7 JUMP JUMPDEST PUSH2 0x3D4 DUP5 PUSH2 0x144 JUMP JUMPDEST DUP2 ADD PUSH1 0x20 DUP6 LT ISZERO PUSH2 0x3E3 JUMPI DUP2 SWAP1 POP JUMPDEST PUSH2 0x3F7 PUSH2 0x3EF DUP6 PUSH2 0x144 JUMP JUMPDEST DUP4 ADD DUP3 PUSH2 0x22D JUMP JUMPDEST POP POP JUMPDEST POP POP POP JUMP JUMPDEST PUSH2 0x408 DUP3 PUSH2 0x9E JUMP JUMPDEST PUSH8 0xFFFFFFFFFFFFFFFF DUP2 GT ISZERO PUSH2 0x421 JUMPI PUSH2 0x420 PUSH2 0xA8 JUMP JUMPDEST JUMPDEST PUSH2 0x42B DUP3 SLOAD PUSH2 0x102 JUMP JUMPDEST PUSH2 0x436 DUP3 DUP3 DUP6 PUSH2 0x3B9 JUMP JUMPDEST PUSH0 PUSH1 0x20 SWAP1 POP PUSH1 0x1F DUP4 GT PUSH1 0x1 DUP2 EQ PUSH2 0x467 JUMPI PUSH0 DUP5 ISZERO PUSH2 0x455 JUMPI DUP3 DUP8 ADD MLOAD SWAP1 POP JUMPDEST PUSH2 0x45F DUP6 DUP3 PUSH2 0x2BD JUMP JUMPDEST DUP7 SSTORE POP PUSH2 0x4C6 JUMP JUMPDEST PUSH1 0x1F NOT DUP5 AND PUSH2 0x475 DUP7 PUSH2 0x3A7 JUMP JUMPDEST PUSH0 JUMPDEST DUP3 DUP2 LT ISZERO PUSH2 0x49C JUMPI DUP5 DUP10 ADD MLOAD DUP3 SSTORE PUSH1 0x1 DUP3 ADD SWAP2 POP PUSH1 0x20 DUP6 ADD SWAP5 POP PUSH1 0x20 DUP2 ADD SWAP1 POP PUSH2 0x477 JUMP JUMPDEST DUP7 DUP4 LT ISZERO PUSH2 0x4B9 JUMPI DUP5 DUP10 ADD MLOAD PUSH2 0x4B5 PUSH1 0x1F DUP10 AND DUP3 PUSH2 0x2A1 JUMP JUMPDEST DUP4 SSTORE POP JUMPDEST PUSH1 0x1 PUSH1 0x2 DUP9 MUL ADD DUP9 SSTORE POP POP POP JUMPDEST POP POP POP POP POP POP JUMP JUMPDEST PUSH2 0x7D6 DUP1 PUSH2 0x4DB PUSH0 CODECOPY PUSH0 RETURN INVALID PUSH1 0x80 PUSH1 0x40 MSTORE CALLVALUE DUP1 ISZERO PUSH2 0xF JUMPI PUSH0 DUP1 REVERT JUMPDEST POP PUSH1 0x4 CALLDATASIZE LT PUSH2 0x3F JUMPI PUSH0 CALLDATALOAD PUSH1 0xE0 SHR DUP1 PUSH4 0x37A96B6 EQ PUSH2 0x43 JUMPI DUP1 PUSH4 0x390A0099 EQ PUSH2 0x5F JUMPI DUP1 PUSH4 0x5CE25353 EQ PUSH2 0x7D JUMPI JUMPDEST PUSH0 DUP1 REVERT JUMPDEST PUSH2 0x5D PUSH1 0x4 DUP1 CALLDATASIZE SUB DUP2 ADD SWAP1 PUSH2 0x58 SWAP2 SWAP1 PUSH2 0x2EE JUMP JUMPDEST PUSH2 0xAD JUMP JUMPDEST STOP JUMPDEST PUSH2 0x67 PUSH2 0xBF JUMP JUMPDEST PUSH1 0x40 MLOAD PUSH2 0x74 SWAP2 SWAP1 PUSH2 0x395 JUMP JUMPDEST PUSH1 0x40 MLOAD DUP1 SWAP2 SUB SWAP1 RETURN JUMPDEST PUSH2 0x97 PUSH1 0x4 DUP1 CALLDATASIZE SUB DUP2 ADD SWAP1 PUSH2 0x92 SWAP2 SWAP1 PUSH2 0x2EE JUMP JUMPDEST PUSH2 0x14A JUMP JUMPDEST PUSH1 0x40 MLOAD PUSH2 0xA4 SWAP2 SWAP1 PUSH2 0x3CF JUMP JUMPDEST PUSH1 0x40 MLOAD DUP1 SWAP2 SUB SWAP1 RETURN JUMPDEST DUP1 PUSH0 SWAP1 DUP2 PUSH2 0xBB SWAP2 SWAP1 PUSH2 0x5EB JUMP JUMPDEST POP POP JUMP JUMPDEST PUSH0 DUP1 SLOAD PUSH2 0xCB SWAP1 PUSH2 0x415 JUMP JUMPDEST DUP1 PUSH1 0x1F ADD PUSH1 0x20 DUP1 SWAP2 DIV MUL PUSH1 0x20 ADD PUSH1 0x40 MLOAD SWAP1 DUP2 ADD PUSH1 0x40 MSTORE DUP1 SWAP3 SWAP2 SWAP1 DUP2 DUP2 MSTORE PUSH1 0x20 ADD DUP3 DUP1 SLOAD PUSH2 0xF7 SWAP1 PUSH2 0x415 JUMP JUMPDEST DUP1 ISZERO PUSH2 0x142 JUMPI DUP1 PUSH1 0x1F LT PUSH2 0x119 JUMPI PUSH2 0x100 DUP1 DUP4 SLOAD DIV MUL DUP4 MSTORE SWAP2 PUSH1 0x20 ADD SWAP2 PUSH2 0x142 JUMP JUMPDEST DUP3 ADD SWAP2 SWAP1 PUSH0 MSTORE PUSH1 0x20 PUSH0 KECCAK256 SWAP1 JUMPDEST DUP2 SLOAD DUP2 MSTORE SWAP1 PUSH1 0x1 ADD SWAP1 PUSH1 0x20 ADD DUP1 DUP4 GT PUSH2 0x125 JUMPI DUP3 SWAP1 SUB PUSH1 0x1F AND DUP3 ADD SWAP2 JUMPDEST POP POP POP POP POP DUP2 JUMP JUMPDEST PUSH0 DUP2 PUSH1 0x40 MLOAD PUSH1 0x20 ADD PUSH2 0x15C SWAP2 SWAP1 PUSH2 0x6F4 JUMP JUMPDEST PUSH1 0x40 MLOAD PUSH1 0x20 DUP2 DUP4 SUB SUB DUP2 MSTORE SWAP1 PUSH1 0x40 MSTORE DUP1 MLOAD SWAP1 PUSH1 0x20 ADD KECCAK256 PUSH0 PUSH1 0x40 MLOAD PUSH1 0x20 ADD PUSH2 0x183 SWAP2 SWAP1 PUSH2 0x78A JUMP JUMPDEST PUSH1 0x40 MLOAD PUSH1 0x20 DUP2 DUP4 SUB SUB DUP2 MSTORE SWAP1 PUSH1 0x40 MSTORE DUP1 MLOAD SWAP1 PUSH1 0x20 ADD KECCAK256 EQ SWAP1 POP SWAP2 SWAP1 POP JUMP JUMPDEST PUSH0 PUSH1 0x40 MLOAD SWAP1 POP SWAP1 JUMP JUMPDEST PUSH0 DUP1 REVERT JUMPDEST PUSH0 DUP1 REVERT JUMPDEST PUSH0 DUP1 REVERT JUMPDEST PUSH0 DUP1 REVERT JUMPDEST PUSH0 PUSH1 0x1F NOT PUSH1 0x1F DUP4 ADD AND SWAP1 POP SWAP2 SWAP1 POP JUMP JUMPDEST PUSH32 0x4E487B7100000000000000000000000000000000000000000000000000000000 PUSH0 MSTORE PUSH1 0x41 PUSH1 0x4 MSTORE PUSH1 0x24 PUSH0 REVERT JUMPDEST PUSH2 0x200 DUP3 PUSH2 0x1BA JUMP JUMPDEST DUP2 ADD DUP2 DUP2 LT PUSH8 0xFFFFFFFFFFFFFFFF DUP3 GT OR ISZERO PUSH2 0x21F JUMPI PUSH2 0x21E PUSH2 0x1CA JUMP JUMPDEST JUMPDEST DUP1 PUSH1 0x40 MSTORE POP POP POP JUMP JUMPDEST PUSH0 PUSH2 0x231 PUSH2 0x1A1 JUMP JUMPDEST SWAP1 POP PUSH2 0x23D DUP3 DUP3 PUSH2 0x1F7 JUMP JUMPDEST SWAP2 SWAP1 POP JUMP JUMPDEST PUSH0 PUSH8 0xFFFFFFFFFFFFFFFF DUP3 GT ISZERO PUSH2 0x25C JUMPI PUSH2 0x25B PUSH2 0x1CA JUMP JUMPDEST JUMPDEST PUSH2 0x265 DUP3 PUSH2 0x1BA JUMP JUMPDEST SWAP1 POP PUSH1 0x20 DUP2 ADD SWAP1 POP SWAP2 SWAP1 POP JUMP JUMPDEST DUP3 DUP2 DUP4 CALLDATACOPY PUSH0 DUP4 DUP4 ADD MSTORE POP POP POP JUMP JUMPDEST PUSH0 PUSH2 0x292 PUSH2 0x28D DUP5 PUSH2 0x242 JUMP JUMPDEST PUSH2 0x228 JUMP JUMPDEST SWAP1 POP DUP3 DUP2 MSTORE PUSH1 0x20 DUP2 ADD DUP5 DUP5 DUP5 ADD GT ISZERO PUSH2 0x2AE JUMPI PUSH2 0x2AD PUSH2 0x1B6 JUMP JUMPDEST JUMPDEST PUSH2 0x2B9 DUP5 DUP3 DUP6 PUSH2 0x272 JUMP JUMPDEST POP SWAP4 SWAP3 POP POP POP JUMP JUMPDEST PUSH0 DUP3 PUSH1 0x1F DUP4 ADD SLT PUSH2 0x2D5 JUMPI PUSH2 0x2D4 PUSH2 0x1B2 JUMP JUMPDEST JUMPDEST DUP2 CALLDATALOAD PUSH2 0x2E5 DUP5 DUP3 PUSH1 0x20 DUP7 ADD PUSH2 0x280 JUMP JUMPDEST SWAP2 POP POP SWAP3 SWAP2 POP POP JUMP JUMPDEST PUSH0 PUSH1 0x20 DUP3 DUP5 SUB SLT ISZERO PUSH2 0x303 JUMPI PUSH2 0x302 PUSH2 0x1AA JUMP JUMPDEST JUMPDEST PUSH0 DUP3 ADD CALLDATALOAD PUSH8 0xFFFFFFFFFFFFFFFF DUP2 GT ISZERO PUSH2 0x320 JUMPI PUSH2 0x31F PUSH2 0x1AE JUMP JUMPDEST JUMPDEST PUSH2 0x32C DUP5 DUP3 DUP6 ADD PUSH2 0x2C1 JUMP JUMPDEST SWAP2 POP POP SWAP3 SWAP2 POP POP JUMP JUMPDEST PUSH0 DUP2 MLOAD SWAP1 POP SWAP2 SWAP1 POP JUMP JUMPDEST PUSH0 DUP3 DUP3 MSTORE PUSH1 0x20 DUP3 ADD SWAP1 POP SWAP3 SWAP2 POP POP JUMP JUMPDEST DUP3 DUP2 DUP4 MCOPY PUSH0 DUP4 DUP4 ADD MSTORE POP POP POP JUMP JUMPDEST PUSH0 PUSH2 0x367 DUP3 PUSH2 0x335 JUMP JUMPDEST PUSH2 0x371 DUP2 DUP6 PUSH2 0x33F JUMP JUMPDEST SWAP4 POP PUSH2 0x381 DUP2 DUP6 PUSH1 0x20 DUP7 ADD PUSH2 0x34F JUMP JUMPDEST PUSH2 0x38A DUP2 PUSH2 0x1BA JUMP JUMPDEST DUP5 ADD SWAP2 POP POP SWAP3 SWAP2 POP POP JUMP JUMPDEST PUSH0 PUSH1 0x20 DUP3 ADD SWAP1 POP DUP2 DUP2 SUB PUSH0 DUP4 ADD MSTORE PUSH2 0x3AD DUP2 DUP5 PUSH2 0x35D JUMP JUMPDEST SWAP1 POP SWAP3 SWAP2 POP POP JUMP JUMPDEST PUSH0 DUP2 ISZERO ISZERO SWAP1 POP SWAP2 SWAP1 POP JUMP JUMPDEST PUSH2 0x3C9 DUP2 PUSH2 0x3B5 JUMP JUMPDEST DUP3 MSTORE POP POP JUMP JUMPDEST PUSH0 PUSH1 0x20 DUP3 ADD SWAP1 POP PUSH2 0x3E2 PUSH0 DUP4 ADD DUP5 PUSH2 0x3C0 JUMP JUMPDEST SWAP3 SWAP2 POP POP JUMP JUMPDEST PUSH32 0x4E487B7100000000000000000000000000000000000000000000000000000000 PUSH0 MSTORE PUSH1 0x22 PUSH1 0x4 MSTORE PUSH1 0x24 PUSH0 REVERT JUMPDEST PUSH0 PUSH1 0x2 DUP3 DIV SWAP1 POP PUSH1 0x1 DUP3 AND DUP1 PUSH2 0x42C JUMPI PUSH1 0x7F DUP3 AND SWAP2 POP JUMPDEST PUSH1 0x20 DUP3 LT DUP2 SUB PUSH2 0x43F JUMPI PUSH2 0x43E PUSH2 0x3E8 JUMP JUMPDEST JUMPDEST POP SWAP2 SWAP1 POP JUMP JUMPDEST PUSH0 DUP2 SWAP1 POP DUP2 PUSH0 MSTORE PUSH1 0x20 PUSH0 KECCAK256 SWAP1 POP SWAP2 SWAP1 POP JUMP JUMPDEST PUSH0 PUSH1 0x20 PUSH1 0x1F DUP4 ADD DIV SWAP1 POP SWAP2 SWAP1 POP JUMP JUMPDEST PUSH0 DUP3 DUP3 SHL SWAP1 POP SWAP3 SWAP2 POP POP JUMP JUMPDEST PUSH0 PUSH1 0x8 DUP4 MUL PUSH2 0x4A1 PUSH32 0xFFFFFFFFFFFFFFFFFFFFFFFFFFFFFFFFFFFFFFFFFFFFFFFFFFFFFFFFFFFFFFFF DUP3 PUSH2 0x466 JUMP JUMPDEST PUSH2 0x4AB DUP7 DUP4 PUSH2 0x466 JUMP JUMPDEST SWAP6 POP DUP1 NOT DUP5 AND SWAP4 POP DUP1 DUP7 AND DUP5 OR SWAP3 POP POP POP SWAP4 SWAP3 POP POP POP JUMP JUMPDEST PUSH0 DUP2 SWAP1 POP SWAP2 SWAP1 POP JUMP JUMPDEST PUSH0 DUP2 SWAP1 POP SWAP2 SWAP1 POP JUMP JUMPDEST PUSH0 PUSH2 0x4EF PUSH2 0x4EA PUSH2 0x4E5 DUP5 PUSH2 0x4C3 JUMP JUMPDEST PUSH2 0x4CC JUMP JUMPDEST PUSH2 0x4C3 JUMP JUMPDEST SWAP1 POP SWAP2 SWAP1 POP JUMP JUMPDEST PUSH0 DUP2 SWAP1 POP SWAP2 SWAP1 POP JUMP JUMPDEST PUSH2 0x508 DUP4 PUSH2 0x4D5 JUMP JUMPDEST PUSH2 0x51C PUSH2 0x514 DUP3 PUSH2 0x4F6 JUMP JUMPDEST DUP5 DUP5 SLOAD PUSH2 0x472 JUMP JUMPDEST DUP3 SSTORE POP POP POP POP JUMP JUMPDEST PUSH0 SWAP1 JUMP JUMPDEST PUSH2 0x530 PUSH2 0x524 JUMP JUMPDEST PUSH2 0x53B DUP2 DUP5 DUP5 PUSH2 0x4FF JUMP JUMPDEST POP POP POP JUMP JUMPDEST JUMPDEST DUP2 DUP2 LT ISZERO PUSH2 0x55E JUMPI PUSH2 0x553 PUSH0 DUP3 PUSH2 0x528 JUMP JUMPDEST PUSH1 0x1 DUP2 ADD SWAP1 POP PUSH2 0x541 JUMP JUMPDEST POP POP JUMP JUMPDEST PUSH1 0x1F DUP3 GT ISZERO PUSH2 0x5A3 JUMPI PUSH2 0x574 DUP2 PUSH2 0x445 JUMP JUMPDEST PUSH2 0x57D DUP5 PUSH2 0x457 JUMP JUMPDEST DUP2 ADD PUSH1 0x20 DUP6 LT ISZERO PUSH2 0x58C JUMPI DUP2 SWAP1 POP JUMPDEST PUSH2 0x5A0 PUSH2 0x598 DUP6 PUSH2 0x457 JUMP JUMPDEST DUP4 ADD DUP3 PUSH2 0x540 JUMP JUMPDEST POP POP JUMPDEST POP POP POP JUMP JUMPDEST PUSH0 DUP3 DUP3 SHR SWAP1 POP SWAP3 SWAP2 POP POP JUMP JUMPDEST PUSH0 PUSH2 0x5C3 PUSH0 NOT DUP5 PUSH1 0x8 MUL PUSH2 0x5A8 JUMP JUMPDEST NOT DUP1 DUP4 AND SWAP2 POP POP SWAP3 SWAP2 POP POP JUMP JUMPDEST PUSH0 PUSH2 0x5DB DUP4 DUP4 PUSH2 0x5B4 JUMP JUMPDEST SWAP2 POP DUP3 PUSH1 0x2 MUL DUP3 OR SWAP1 POP SWAP3 SWAP2 POP POP JUMP JUMPDEST PUSH2 0x5F4 DUP3 PUSH2 0x335 JUMP JUMPDEST PUSH8 0xFFFFFFFFFFFFFFFF DUP2 GT ISZERO PUSH2 0x60D JUMPI PUSH2 0x60C PUSH2 0x1CA JUMP JUMPDEST JUMPDEST PUSH2 0x617 DUP3 SLOAD PUSH2 0x415 JUMP JUMPDEST PUSH2 0x622 DUP3 DUP3 DUP6 PUSH2 0x562 JUMP JUMPDEST PUSH0 PUSH1 0x20 SWAP1 POP PUSH1 0x1F DUP4 GT PUSH1 0x1 DUP2 EQ PUSH2 0x653 JUMPI PUSH0 DUP5 ISZERO PUSH2 0x641 JUMPI DUP3 DUP8 ADD MLOAD SWAP1 POP JUMPDEST PUSH2 0x64B DUP6 DUP3 PUSH2 0x5D0 JUMP JUMPDEST DUP7 SSTORE POP PUSH2 0x6B2 JUMP JUMPDEST PUSH1 0x1F NOT DUP5 AND PUSH2 0x661 DUP7 PUSH2 0x445 JUMP JUMPDEST PUSH0 JUMPDEST DUP3 DUP2 LT ISZERO PUSH2 0x688 JUMPI DUP5 DUP10 ADD MLOAD DUP3 SSTORE PUSH1 0x1 DUP3 ADD SWAP2 POP PUSH1 0x20 DUP6 ADD SWAP5 POP PUSH1 0x20 DUP2 ADD SWAP1 POP PUSH2 0x663 JUMP JUMPDEST DUP7 DUP4 LT ISZERO PUSH2 0x6A5 JUMPI DUP5 DUP10 ADD MLOAD PUSH2 0x6A1 PUSH1 0x1F DUP10 AND DUP3 PUSH2 0x5B4 JUMP JUMPDEST DUP4 SSTORE POP JUMPDEST PUSH1 0x1 PUSH1 0x2 DUP9 MUL ADD DUP9 SSTORE POP POP POP JUMPDEST POP POP POP POP POP POP JUMP JUMPDEST PUSH0 DUP2 SWAP1 POP SWAP3 SWAP2 POP POP JUMP JUMPDEST PUSH0 PUSH2 0x6CE DUP3 PUSH2 0x335 JUMP JUMPDEST PUSH2 0x6D8 DUP2 DUP6 PUSH2 0x6BA JUMP JUMPDEST SWAP4 POP PUSH2 0x6E8 DUP2 DUP6 PUSH1 0x20 DUP7 ADD PUSH2 0x34F JUMP JUMPDEST DUP1 DUP5 ADD SWAP2 POP POP SWAP3 SWAP2 POP POP JUMP JUMPDEST PUSH0 PUSH2 0x6FF DUP3 DUP5 PUSH2 0x6C4 JUMP JUMPDEST SWAP2 POP DUP2 SWAP1 POP SWAP3 SWAP2 POP POP JUMP JUMPDEST PUSH0 DUP2 SLOAD PUSH2 0x716 DUP2 PUSH2 0x415 JUMP JUMPDEST PUSH2 0x720 DUP2 DUP7 PUSH2 0x6BA JUMP JUMPDEST SWAP5 POP PUSH1 0x1 DUP3 AND PUSH0 DUP2 EQ PUSH2 0x73A JUMPI PUSH1 0x1 DUP2 EQ PUSH2 0x74F JUMPI PUSH2 0x781 JUMP JUMPDEST PUSH1 0xFF NOT DUP4 AND DUP7 MSTORE DUP2 ISZERO ISZERO DUP3 MUL DUP7 ADD SWAP4 POP PUSH2 0x781 JUMP JUMPDEST PUSH2 0x758 DUP6 PUSH2 0x445 JUMP JUMPDEST PUSH0 JUMPDEST DUP4 DUP2 LT ISZERO PUSH2 0x779 JUMPI DUP2 SLOAD DUP2 DUP10 ADD MSTORE PUSH1 0x1 DUP3 ADD SWAP2 POP PUSH1 0x20 DUP2 ADD SWAP1 POP PUSH2 0x75A JUMP JUMPDEST DUP4 DUP9 ADD SWAP6 POP POP POP JUMPDEST POP POP POP SWAP3 SWAP2 POP POP JUMP JUMPDEST PUSH0 PUSH2 0x795 DUP3 DUP5 PUSH2 0x70A JUMP JUMPDEST SWAP2 POP DUP2 SWAP1 POP SWAP3 SWAP2 POP POP JUMP INVALID LOG2 PUSH5 0x6970667358 0x22 SLT KECCAK256 CREATE SELFBALANCE SWAP16 PUSH7 0x400D39708155C6 0xC6 KECCAK256 0xAC 0x2E ISZERO JUMPI EXTCODESIZE POP 0x23 CODECOPY 0xBA SWAP12 POP 0xB3 0xD1 PUSH2 0x79F SWAP4 0x22 RETURN PUSH5 0x736F6C6343 STOP ADDMOD BYTE STOP CALLER "
				},
				"gasEstimates": {
					"creation": {
						"codeDepositCost": "401200",
						"executionCost": "infinite",
						"totalCost": "infinite"
					},
					"external": {
						"compareTwoStrings(string)": "infinite",
						"ourString()": "infinite",
						"updateOurString(string)": "infinite"
					}
				},
				"methodIdentifiers": {
					"compareTwoStrings(string)": "5ce25353",
					"ourString()": "390a0099",
					"updateOurString(string)": "037a96b6"
				}
			},
			"storageLayout": {
				"storage": [
					{
						"astId": 4,
						"contract": "contracts/MyContract.sol:MyContract",
						"label": "ourString",
						"offset": 0,
						"slot": "0",
						"type": "t_string_storage"
					},
					{
						"astId": 7,
						"contract": "contracts/MyContract.sol:MyContract",
						"label": "myBytes",
						"offset": 0,
						"slot": "1",
						"type": "t_bytes_storage"
					}
				],
				"types": {
					"t_bytes_storage": {
						"encoding": "bytes",
						"label": "bytes",
						"numberOfBytes": "32"
					},
					"t_string_storage": {
						"encoding": "bytes",
						"label": "string",
						"numberOfBytes": "32"
					}
				}
			},
			"userdoc": {
				"kind": "user",
				"methods": {},
				"version": 1
			}
		}
	}
}